:100000000C94A0000C94BD000C94BD000C94BD0099
:100010000C94BD000C94BD000C94BD000C94E90040
:100020000C94BD000C94BD000C94BD000C945817AA
:100030000C94BD000C94BD000C94BD000C94BD004C
:100040000C942A170C94BD000C946A190C94B619E0
:100050000C94BD000C94BD000C94BD000C94BD002C
:100060000C94BD000C94BD00922A952A9A2AA32ACA
:10007000AC2ABD2ACE2ADF2AF02AF92A022B0B2B22
:10008000132B312E30732E32303137303730310070
:100090007E00200020007E0020007E007E002000E8
:1000A00020007E00414C524D00484F4D45004D41CF
:1000B0004E4C0050415553002052554E0049444C7F
:1000C00045002052554E004F52474E0046494C4580
:1000D00000554152540053414645004C4F4646009E
:1000E000592020202020302E303030200058202071
:1000F000202020302E30303020006572726F723A2E
:10010000004E6F20552D6469736B2066696C6573B2
:100110002100556E6B6E6F776E20534420636172C1
:10012000642100496E7365727420534420636172C8
:100130006421000A006572726F723A006F6B0000F2
:1001400011241FBECFEFD8E0DEBFCDBF11E0A0E08D
:10015000B1E0E8E5FAE602C005900D92A430B107DF
:10016000D9F727E0A4E0B1E001C01D92A63DB20797
:10017000E1F70E9460250C942A350C9400005A98EF
:10018000289A87B1807F87B9449A85E08A95F1F7EC
:10019000000096B1449885E08A95F1F70000449AF2
:1001A00085E08A95F1F7000026B12F70892F82959E
:1001B000807F4498822B089593B192708091B3060A
:1001C00080FD02C082E0982781E0911101C080E0AB
:1001D00008951F920F920FB60F9211248F939F9341
:1001E0008091A00191E0980F9093A001853638F09E
:1001F0008091BF0681608093BF061092A0019F91FD
:100200008F910F900FBE0F901F901895449A85E024
:100210008A95F1F70000449808951F93CF93DF93D8
:100220001F92CDB7DEB7662311F05A9A01C05A98D3
:10023000289897B19F6097B998B1192F107F982F80
:1002400092959F70912B98B989830E9406018981AC
:100250008F70812B88B90E9406011F6018B90F901A
:10026000DF91CF911F910895CF93C82F0E94BF00B7
:1002700087FDFCCF85E18A95F1F7000061E08C2FC6
:10028000CF910C940D010F931F93CF93DF93082F01
:10029000EC011C2F101B8991882341F09FE9980FD6
:1002A0009A3108F480520E943401F3CF1C3028F4B4
:1002B00080E20E9434011F5FF9CFDF91CF911F913F
:1002C0000F910895CF93DF93FC018491EF01219664
:1002D000882321F00E943401FE01F7CFDF91CF91F6
:1002E0000895CF93C82F0E94BF0087FDFCCF85E102
:1002F0008A95F1F7000060E08C2FCF910C940D01EE
:100300001F93CF93DF93C82F81E00E94710180E893
:100310000E947101C53639F0C63661F0C43669F401
:1003200083E291E002C082E191E0DF91CF911F91E1
:100330000C94620181E091E0F8CF8AEF90E00E9496
:100340006201C43640F08C2F6AE00E94BF34D0E3D3
:10035000D90FC82F03C0D0E0CA3040F08C2F6AE01C
:100360000E94BF3410E3190FC82F01C010E080E3D2
:100370008C0F0E943401112319F0812F0E94340147
:10038000DD2331F08D2FDF91CF911F910C9434013B
:10039000DF91CF911F9108958CEC0E9471018091A3
:1003A000B606883011F0803189F48091B806811149
:1003B00003C081ED90E013C0813019F48CEC90E023
:1003C0000EC0823071F487EC90E009C08091BD06C8
:1003D000811103C08BED90E002C086ED90E00C949B
:1003E000620108958091B6069091B706891781F150
:1003F0008093B7068CE80E9471018091B606843024
:1004000009F138F4882371F0813001F584EA90E035
:100410001BC0803151F0803291F08830B9F482EC09
:1004200090E012C08DEB90E00FC08091BE06882353
:1004300019F088EB90E008C083EB90E005C08EEAED
:1004400090E002C089EA90E00E9462010C94CC0125
:100450000895E4E0F1E01082118212821382148286
:1004600015821682178280E80E9471018DEE90E05D
:100470000E94620180EC0E94710180EE90E00E9477
:10048000620182E08093B7060E94F20181E08093CE
:10049000BF0608952F923F924F925F926F927F9284
:1004A0008F929F92AF92BF92CF92DF92EF92FF9284
:1004B0000F931F93CF93DF93CDB7DEB760970FB63F
:1004C000F894DEBF0FBECDBF32ED232E33E0332EC6
:1004D0008AEC93E09C878B87EDE8F6E0FA87E98762
:1004E00044E0E42E41E0F42E10E05AE0452E512C79
:1004F000612C712C60E2C62EF10181919191A19144
:10050000B1911F01EB85FC8581909190A190B190F4
:10051000FC87EB87E985FA852191319141915191D1
:10052000FA87E987BC01CD01681979098A099B0915
:100530002D873E874F87588B0E949D322D853E85A3
:100540004F8558890E94F3314B015C01F7012081EE
:100550003181428153810E94EE31811108C0F4E063
:10056000EF0EF11C113009F47FC011E0C5CFF70187
:1005700080829182A282B38220E030E0A901C5018D
:10058000B4010E94EE3187FF07C0B7FAB094B7F804
:10059000B094DD24D39401C0D12C20E030E04AE7B0
:1005A00054E4C501B4010E94C63320E030E040E0CD
:1005B0005FE30E946B310E94653200E061157105B6
:1005C0008105910591F0AA24A394B12CAC0EBD1E17
:1005D000A00EB11CA30192010E94DF34605DF50101
:1005E0006083B901CA010F5FE9CF033050F4E1E045
:1005F000F0E0EC0FFD1FE00FF11D80E380830F5F43
:10060000F4CF033019F490E39C8304E0DD2049F03B
:10061000E1E0F0E0EC0FFD1FE00FF11D8DE28083C3
:100620000F5F083040F4E1E0F0E0EC0FFD1FE00F59
:10063000F11DC082F5CF111102C082E801C082EC29
:100640000E947101033039F4111102C088E801C021
:1006500088EC0E947101FE01E00FF11D80810E9473
:100660003401015079F77BCF60960FB6F894DEBF66
:100670000FBECDBFDF91CF911F910F91FF90EF90F3
:10068000DF90CF90BF90AF909F908F907F906F90B2
:100690005F904F903F902F9008952F923F924F92EE
:1006A0005F926F927F928F929F92AF92BF92CF9202
:1006B000DF92EF92FF920F931F93CF93DF93CDB70B
:1006C000DEB768970FB6F894DEBF0FBECDBF94E6D5
:1006D0009093BC061092B9071092C1070091B3061F
:1006E000027021EB37E0388F2F8B9DE8292E96E0A2
:1006F000392E42EC57E05E834D83AAECB3E0B88B11
:10070000AF871A8A198A12E0282F30E040E050E0C3
:100710002B8B3C8B4D8B5E8B8091B50690E00988CE
:1007200002C0959587950A94E2F780FFAEC0AD812F
:10073000BE818D919D910D90BC91A02D8B879C8742
:10074000AD87BE87AF85B8892D913D914D915C9164
:100750002F83388749875A87D1012D913D914D913B
:100760005C9129833A834B835C836B857C858D8583
:100770009E852F81388549855A85621B730B840BB2
:10078000950B0E949D3229813A814B815C810E94A8
:10079000F3312B013C0120E030E040E251E40E94C3
:1007A000C6330E9433346B017C016B897C898D894F
:1007B0009E890E949D3220E030E040E251E40E9498
:1007C000F3314B015C0120E030E040E251E4C7012D
:1007D000B6010E94F331A50194010E946B316B01B7
:1007E0007C01A30192010E946A312B013C012AE0A5
:1007F00037ED43E25CE3C501B4010E946B319B011C
:10080000AC01C301B2010E948E33181644F4A50155
:100810009401C701B6010E946A316B017C012981F4
:100820003A814B815C81C701B6010E94C6330E94A8
:100830009333CF80D884E984FA84C60ED71EE81E8D
:10084000F91EAF89B88DCD92DD92ED92FC9213978F
:10085000002309F4D4C0F101208D318D428D538DD8
:1008600069817A818B819C810E94C6330E94933377
:100870006C157D058E059F050CF0C1C02B853C8550
:100880004D855E85AF89B88DA7C08091B50690E093
:1008900029893A892E5F3F4F02C0959587952A9501
:1008A000E2F780FF9FC0AD81BE812D913D914D91BA
:1008B0005C912B873C874D875E87AF85B8892D91EA
:1008C0003D914D915C9129833A834B835C83D101A7
:1008D0002D913D914D915C912F83388749875A879F
:1008E0006B857C858D859E8529813A814B815C81D4
:1008F000621B730B840B950B0E949D322F813885F0
:1009000049855A850E94F3312B013C0120E030E0FB
:1009100040E251E40E94C6330E9433346B017C01F3
:100920006B897C898D899E890E949D3220E030E010
:1009300040E251E40E94F3314B015C0120E030E0E1
:1009400040E251E4C701B6010E94F331A5019401D0
:100950000E946A316B017C01A30192010E946A31FD
:100960002B013C012AE037ED43E25CE3C501B40111
:100970000E946B319B01AC015058C301B2010E942F
:10098000EE3187FF08C0A5019401C701B6010E949E
:100990006B316B017C012F81388549855A85C701F0
:1009A000B6010E94C6330E94933329813A814B815C
:1009B0005C81260F371F481F591FEF89F88D208350
:1009C0003183428353830023D1F057FF18C02B8516
:1009D0003C854D855E85DF012D933D934D935C9362
:1009E00013970CC0ED81FE8180819181A281B3813A
:1009F000EF89F88D80839183A283B38311502F896F
:100A0000388D2C5F3F4F388F2F8B34E0230E311CF5
:100A10004D815E814C5F5F4F5E834D838F859889EA
:100A20000496988B8F87A989BA89119729F041E09C
:100A300050E05A8B498B70CE612F70E080E090E0DF
:100A40000E949B320E945D3420E030E84BE355E485
:100A50000E94C6336093BD077093BE078093BF07A3
:100A60009093C0078090950690909606A090970668
:100A7000B090980620E030E046E154E4C501B401AE
:100A80000E94EE3187FD28C0C0909906D0909A064A
:100A9000E0909B06F0909C0620E030E046E154E4B4
:100AA000C701B6010E94EE3187FD16C020E030E09C
:100AB00046E954E4C501B4010E94EE3187FD0EC041
:100AC00020E030E046E954E4C701B6010E94EE316F
:100AD00087FD04C01AE003C011E001C015E0809159
:100AE0008C069091DB03891708F4805F891B181727
:100AF00048F40E944C1B0E94A1238091B9068823D0
:100B000071F330C00E9446208091B60681112AC040
:100B10008091BF0681608093BF061092BB060E9441
:100B20008923892BF9F080E28093B6060E94E30EB8
:100B300068960FB6F894DEBF0FBECDBFDF91CF91A0
:100B40001F910F91FF90EF90DF90CF90BF90AF90EB
:100B50009F908F907F906F905F904F903F902F90DD
:100B60000C94401768960FB6F894DEBF0FBECDBF49
:100B7000DF91CF911F910F91FF90EF90DF90CF9079
:100B8000BF90AF909F908F907F906F905F904F90AD
:100B90003F902F9008954F925F926F927F92AF9205
:100BA000BF92CF92DF92EF92FF920F931F93CF935A
:100BB000DF93CDB7DEB729970FB6F894DEBF0FBE2F
:100BC000CDBF8C01FF24F394F986FC01808187342A
:100BD00009F4D6C064F4833409F468C324F484535C
:100BE0008430A0F063C5843409F409C25FC58D3434
:100BF00009F46CC224F4893409F4A0C257C58E34B8
:100C000009F48CC2803509F462C150C5AE014F5F52
:100C10005F4FBE01675F7F4FC8010E944924882350
:100C200009F4C7C2F8018081873309F465C02091B7
:100C30008D0630918E0640918F0650919006698105
:100C40007A818B819C810E94C6330E949333C0902D
:100C5000CA03D090CB03E090CC03F090CD03DC012D
:100C6000CB018C0D9D1DAE1DBF1D8093B1079093D0
:100C7000B207A093B307B093B407F801808186331D
:100C800021F589858F5F89874DEB57E0BE01675F4E
:100C90007F4FC8010E944924882309F48AC225ECA9
:100CA00030E240E85FE36091BD077091BE0780913C
:100CB000BF079091C0070E94C6336093BD07709331
:100CC000BE078093BF079093C0078985F801E80F9E
:100CD000F11D90819C32B1F58F5F898749EB57E018
:100CE000BE01675F7F4FC8010E94EC24882309F48E
:100CF00060C21092BC0726C02091910630919206E6
:100D0000409193065091940669817A818B819C81F0
:100D10000E94C6330E949333C090CE03D090CF037D
:100D2000E090D003F090D103DC01CB018C0D9D1D30
:100D3000AE1DBF1D8093B5079093B607A093B7076C
:100D4000B093B8078985F801E80FF11D80818B33D6
:100D500009F0ACC4F80180818553823058F41092B8
:100D6000C1078081853309F09AC49091BC0781E066
:100D7000892703C081E08093C1078093BC078FC49B
:100D8000F8018181863469F47DE8E72E76E0F72E5C
:100D9000EAECAE2EE3E0BE2EF1EBCF2EF7E0DF2E35
:100DA00029C0823509F082C4EFCFF70161917191BA
:100DB000819191917F0129813A814B815C810E94CF
:100DC000C6330E949333F501419051906190719028
:100DD0005F01DC01CB01840D951DA61DB71DF60139
:100DE00081939193A193B1936F01F5E9EF16F6E02A
:100DF000FF0679F089858F5F8987AE014F5F5F4F6E
:100E0000BE01675F7F4FC8010E9449248111CDCF89
:100E1000D0C18985F801E80FF11D80818B3309F07D
:100E200045C4F8018181863409F092C08091C107E0
:100E300080FD03C01092C10732C40E943924809102
:100E4000B90681113CC480E18093B6066091BA076F
:100E50007091BB0780E090E00E949B322AE037ED62
:100E600043EA5CE30E94C6330E94D7316B017C01E8
:100E700020E030E040E85FE30E94EE3187FD05C0EE
:100E8000C701B6010E946C3201C061E06093BE06EA
:100E90008091B9070E944A178091BE06882351F2BB
:100EA0000E944C1B0E94A1238091B906811107C4A6
:100EB000FFEF20E782E0F15020408040E1F700C0E2
:100EC00000008091BE0681508093BE06E5CFF801F8
:100ED0008181843409F040C05AECE52E53E0F52EB0
:100EE00061EBC62E67E0D62E89858F5F8987AE01BC
:100EF0004B5F5F4FBE01675F7F4FC8010E94EC24CC
:100F0000882309F456C1F70181919191A191B19182
:100F10007F014D815E816F817885840F951FA61FAB
:100F2000B71FF60181939193A193B1936F01F2EDF5
:100F3000EF16F3E0FF06C1F68985F801E80FF11D11
:100F400080818B3309F0B2C3F8018181843441F090
:100F500081E08093C107A3C3853509F0A7C3BCCF47
:100F60008091C10780FF66CF0E9439248091B90625
:100F70008111A5C380E18093B6066091BA07709194
:100F8000BB0780E090E00E949B322AE037ED43EA05
:100F90005CE30E94C6330E94D7316B017C0120E0E4
:100FA00030E040E85FE30E94EE3187FD05C0C701F5
:100FB000B6010E946C3201C061E06093BE06809170
:100FC000B9070E944A178091BE06882309F432CFE0
:100FD0000E944C1B0E94A1238091B90681116FC30E
:100FE000FFEF20E782E0F15020408040E1F700C0B1
:100FF00000008091BE0681508093BE06E4CFF801C8
:101000008181873509F052C382E08987AE014B5F49
:101010005F4FBE01675F7F4FC8010E94EC248823A9
:1010200009F4C7C08985F801E80FF11D80818B3371
:1010300009F03CC30E9439248091B90681113FC355
:1010400080E18093B6066D817E818F8198850E94B4
:101050009D322AE037ED43EA5CE30E94C6330E94EA
:10106000D7316B017C0120E030E040E85FE30E9473
:10107000EE3187FD05C0C701B6010E946C3201C088
:1010800061E06093BE068091B9070E944A17F09014
:10109000BE06FF20B9F00E944C1B0E94A123809144
:1010A000B90681110CC3FFEF20E782E0F150204028
:1010B0008040E1F700C000008091BE06815080931F
:1010C000BE06E5CF80E00E944A17FAC2F80181818E
:1010D000803309F0EBC282818B3309F0E7C20E94B2
:1010E00039248091B9068111EAC280E18093B60665
:1010F0008FEF8093B4008091B00080628093B00045
:10110000F092BD068091B606803109F0D8C20E94E7
:1011100030248091B9068823A9F3D1C2F8018181D6
:10112000893409F0C3C282818B3309F0BFC20E94A7
:101130003924F090B906F110C2C2B2C0F801818121
:101140008E3409F0B3C282818B3319F58091CA03C2
:101150009091CB03A091CC03B091CD038093B107C4
:101160009093B207A093B307B093B4078091CE03D6
:101170009091CF03A091D003B091D1038093B50794
:101180009093B607A093B707B093B807F092C10742
:1011900086C2F090B606F11089C282E089874DEBD5
:1011A00057E0BE01675F7F4FC8010E94492481114B
:1011B00003C042E0F42E84C225EC30E240E85FE355
:1011C0006091BD077091BE078091BF079091C007E5
:1011D0000E94C6336093BD077093BE078093BF071C
:1011E0009093C00789858F5F8987AE014B5F5F4F02
:1011F000BE01675F7F4FC8010E94EC248823C9F2BB
:101200008D818093BC06823318F482E38093BC0600
:1012100089858F5F898749EB57E0BE01675F7F4F04
:10122000C8010E94EC24882321F289858F5F898779
:101230004AEB57E0BE01675F7F4FC8010E94EC2474
:10124000882309F4B6CF81E08093C1074091C2079B
:101250005091C3076091C4077091C5074093B107CF
:101260005093B2076093B3077093B4074091C607D9
:101270005091C7076091C8077091C9074093B5079F
:101280005093B6076093B7077093B8079985F80134
:10129000E90FF11D90819B3309F008C28093BC07D0
:1012A00080E00E944A170E94CC010AC2F8018181A5
:1012B0008C3409F0FBC18091B30681FFD5C132E0C7
:1012C000F32EF986AE014B5F5F4FBE01675F7F4F24
:1012D000C8010E94EC24882309F4DAC04D815E81A4
:1012E0006F8178858091CA039091CB03A091CC0344
:1012F000B091CD036A017B01C80ED91EEA1EFB1E08
:10130000C701B6010E949D3220918D0630918E0654
:1013100040918F06509190060E94F33120E030E01A
:1013200040E05FEB0E94EE3187FF03C02AE0F22E1F
:10133000C7C189858F5F8987AE014B5F5F4FBE0153
:10134000675F7F4FC8010E94EC24882309F431CFE6
:101350004D815E816F8178858091CE039091CF031E
:10136000A091D003B091D1036A017B01C80ED91EB0
:10137000EA1EFB1EC701B6010E949D322091910614
:101380003091920640919306509194060E94F33159
:1013900020E030E040E05FEB0E94EE3187FDC6CFF9
:1013A00089858F5F8987AE014B5F5F4FBE01675FA5
:1013B0007F4FC8010E94EC24882309F4FACE4D81A6
:1013C0005E816F8178858091CA039091CB03A09153
:1013D000CC03B091CD036A017B01C80ED91EEA1E71
:1013E000FB1EC701B6010E949D3220918D063091EF
:1013F0008E0640918F06509190060E94F3316B014A
:101400007C0120E030E040E05FE36091A506709150
:10141000A6068091A7069091A8060E946B319B01B9
:10142000AC01C701B6010E948E3318160CF47ECFB2
:1014300089858F5F8987AE014B5F5F4FBE01675F14
:101440007F4FC8010E94EC24882309F4B2CE4D815D
:101450005E816F8178858091CE039091CF03A091BA
:10146000D003B091D1036A017B01C80ED91EEA1ED8
:10147000FB1EC701B6010E949D322091910630915A
:10148000920640919306509194060E94F331CBC08E
:10149000F986AE014F5F5F4FBE01675F7F4FC801A6
:1014A0000E944924882309F484CE6091CA03709174
:1014B000CB038091CC039091CD030E949D3220916B
:1014C0008D0630918E0640918F06509190060E94B5
:1014D000F33129813A814B815C810E946B3120E09C
:1014E00030E040E05FEB0E94EE3187FD1FCF898541
:1014F0008F5F8987AE014F5F5F4FBE01675F7F4F90
:10150000C8010E944924882309F453CE6091CE0378
:101510007091CF038091D0039091D1030E949D32AE
:101520002091910630919206409193065091940635
:101530000E94F33129813A814B815C810E946B3199
:1015400020E030E040E05FEB0E94EE3187FDEECE20
:1015500089858F5F8987AE014F5F5F4FBE01675FEF
:101560007F4FC8010E944924882309F422CE60914C
:10157000CA037091CB038091CC039091CD030E945C
:101580009D3220918D0630918E0640918F065091AC
:1015900090060E94F33129813A814B815C810E943F
:1015A0006B316B017C0120E030E040E05FE3609153
:1015B000A5067091A6068091A7069091A8060E94A4
:1015C0006B319B01AC01C701B6010E948E33181626
:1015D0000CF4ACCE89858F5F8987AE014F5F5F4F7A
:1015E000BE01675F7F4FC8010E944924882309F428
:1015F000E0CD6091CE037091CF038091D0039091A4
:10160000D1030E949D322091910630919206409123
:101610009306509194060E94F33129813A814B81BF
:101620005C810E946B316B017C0120E030E040E086
:101630005FE36091A9067091AA068091AB06909134
:10164000AC060E946B319B01AC01C701B6010E9440
:101650008E3318160CF46ACE8985F801E80FF11D57
:1016600080818B3319F52BC094E0F92E89858F5F2B
:101670008987AE014F5F5F4FBE01675F7F4FC80133
:101680000E944924882309F494CDFA94F110EECFF6
:10169000E3CF0E9430248091B906811110C090914F
:1016A000DB038091B007981304C0F3CF84E1F82ED8
:1016B00007C00E9446200E9499230E943024F12CEA
:1016C0008F2D29960FB6F894DEBF0FBECDBFDF91E8
:1016D000CF911F910F91FF90EF90DF90CF90BF902F
:1016E000AF907F906F905F904F900895FC01892B91
:1016F00061F080899189A289B389848F958FA68FA3
:10170000B78F11A210A281E0089580E0089500979C
:1017100069F16115710551F1FB01258524FF26C092
:1017200020917E0130917F01232B01F52AE1FB01FD
:10173000A0E8B1E001900D922A95E1F790937F0126
:1017400080937E01FB0186859785A089B18980936E
:101750009A0190939B01A0939C01B0939D011092DC
:101760009F0110929E018EE791E0089580E090E045
:1017700008950F931F93CF93DF9300D000D0CDB780
:10178000DEB7009709F45BC0423051056105710571
:1017900008F455C0FC01A081B18114968C91149776
:1017A0000681178120853185ED91FC918B3049F5BB
:1017B00092E0440F551F661F771F9A95D1F7CB0112
:1017C000BA01600F711F821F931F24E030E0AE0149
:1017D0004F5F5F4F0995882391F109811A812B8111
:1017E0003C81011511052105310549F1D901C801D7
:1017F000805F9F4FAF4FBF404097A105B105E0F418
:101800001EC0440F551F661F771FCB01BA01600F22
:10181000711F821F931F22E030E0AE014F5F5F4FC8
:101820000995882361F089819A818C0120E030E05C
:1018300001978F3E9F4F18F4B801C90104C060E0C2
:1018400070E080E090E00F900F900F900F90DF918C
:10185000CF911F910F9108952F923F924F925F92D7
:101860006F927F928F929F92AF92BF92CF92DF92B0
:10187000EF92FF920F931F93CF93DF93CDB7DEB715
:10188000AD970FB6F894DEBF0FBECDBF0097F9F04D
:1018900061157105E1F099A788A7DC01AD90BC90B6
:1018A000D50150962D903C905197DC015C964D905F
:1018B0005D906D907C905F9790968D919C919197A3
:1018C0008215930530F088A599A50E94760B80E0DB
:1018D000B4C09E012F5D3F4F3FA32EA325E0AEA1D4
:1018E000BFA11D922A95E9F72AE1DB011D922A95F5
:1018F000E9F77AA369A3411451046104710409F062
:101900005FC0D501ED91FC91119724812B3039F402
:101910005A964D905D906D907C905D9751C0F50109
:1019200042895389268937891A01221A330A48C005
:101930008DA1811175C08101081919096401E12C7B
:10194000F12C411451046104710409F044C0F50103
:1019500086899789A08DB18DBC01CD016C0D7D1D4F
:101960008E1D9F1D1CA21BA2D501ED91FC91028032
:10197000F381E02D9E012F5D3F4F690127EFE22E9D
:101980002DE0F22E20E230E0AE014F5F5F4F09956F
:10199000882309F49CCF8BA19CA1880E991E8214E8
:1019A000930430F2B301A201C5010E94B90B2B01CF
:1019B0003C0180E090E0411451046104710461F144
:1019C0004C01D301C2010297A109B1098AA79BA7C3
:1019D000ACA7BDA7ADCFA114B104D1F0F2E04F1672
:1019E000510461047104A0F0F501A089B1892AA510
:1019F0003BA54CA55DA50E941635228933894489F3
:101A00005589DC01CB01820F931FA41FB51FA4CF02
:101A100080E090E0DC01A0CF8DA1882309F453CFB2
:101A2000A8A5B9A55C964D925D926D927C925F9748
:101A300091969C928E9290978DA1AD960FB6F89448
:101A4000DEBF0FBECDBFDF91CF911F910F91FF90F1
:101A5000EF90DF90CF90BF90AF909F908F907F904E
:101A60006F905F904F903F902F900895F894F99960
:101A7000FECF92BD81BD81E08FBB80B58627482F08
:101A8000082E000C550B262F30E024233523232B62
:101A900039F06F3F19F060BD84E006C084E104C0F6
:101AA000882321F060BD84E28FBBF99A7894089571
:101AB0008F929F92AF92BF92CF92DF92EF92FF925E
:101AC0000F931F93CF937C014A016B01C40ED51E67
:101AD0008B01C0E05C01A61AB70AC8018A0D9B1DE4
:101AE0000C151D0599F0C11108C02C2FCC0F330B1C
:101AF000232F221F2227221F01C021E0F80161911C
:101B00008F01C22FC60F0E94360DE7CF6C2FC70181
:101B1000880D991DCF911F910F91FF90EF90DF904D
:101B2000CF90BF90AF909F908F900C94360DF99905
:101B3000FECF92BD81BD81E08FBB80B508958F92AD
:101B40009F92AF92BF92CF92DF92EF92FF920F934C
:101B50001F93CF934B017A016C01C40ED51E8C01EB
:101B6000C0E05B01A81AB90AC501800F911F0C15CE
:101B70001D0599F00E94970DC11108C02C2FCC0FA4
:101B8000330B232F221F2227221F01C021E0C22F47
:101B9000C80FF80181938F01E7CFC4018E0D9F1DFF
:101BA0000E94970D21E030E0C81711F020E030E0EE
:101BB000C901CF911F910F91FF90EF90DF90CF90CF
:101BC000BF90AF909F908F900895FC012381628118
:101BD000862F90E0A0E0B0E0DC0199278827B22BA7
:101BE0002081822B2181BC01CD01722B08950F939E
:101BF0001F93CF93DF93FC018901D901CD91DC9133
:101C0000119712968D919C911397809613969C93A1
:101C10008E9312978081853E09F48AC0882309F447
:101C200087C083858F3009F483C08AE1DE011D926D
:101C30008A95E9F74E8B5F8B688F798FAF019E0194
:101C400090E0DA018C918032A1F0D9018C93648507
:101C500063FF08C0DA016C9161546A3118F4805E48
:101C6000D9018C939F5F4F5F5F4F2F5F3F4F98303D
:101C700041F78881853011F485EE88838085803234
:101C800029F19E01290F311D8EE2D9018C939F010C
:101C9000285F3F4F54E0590F9F5FD9018C918032EC
:101CA000A9F0BE01690F711DDB018C93448544FFCF
:101CB00008C0D9014C9141544A3118F4805EDB01CF
:101CC0008C939F5F2F5F3F4F9513E7CFDE01A90FE6
:101CD000B11D1C9283858D87838D90E0982F882776
:101CE000228D822BA0E0B0E08E879F87A88BB98BD6
:101CF000458950E0542F44272489422B60E070E04E
:101D0000BA0155274427842B952BA62BB72B8E87FA
:101D10009F87A88BB98BCF014C960E94E50D6A8BEB
:101D20007B8B8C8B9D8B81E0F801848380E001C0EC
:101D300081E0DF91CF911F910F910895EFE6F0E0E0
:101D400080818D7F8083E1E8F0E08081887F816001
:101D500080831092F70608958EBD0DB407FEFDCF67
:101D60008DB58F778DBD08952FB7F8949091BF06EC
:101D7000809589238093BF062FBF08952FB7F894CD
:101D80009091BF06892B8093BF062FBF0895809343
:101D90007C0080917C00806680937C0080917A003A
:101DA000876880937A0085E08A95F1F7000080913A
:101DB0007A00806480937A0080917A0086FDFCCF5F
:101DC0008091790008952F923F924F925F926F9287
:101DD0007F928F929F92AF92BF92CF92DF92EF92BB
:101DE000FF920F931F93CF93DF93CDB7DEB7C55408
:101DF000D1090FB6F894DEBF0FBECDBF8091BB06F0
:101E000080FD94C720918C062EAB3BE2239FC0013E
:101E10001124AC0144525C4F22965FAF4EAF229723
:101E2000F091DB03FFABFF5FF98FF03111F418AED7
:101E300002C0298D28AF3BE248AD349FC001112478
:101E4000DC01A651BC4F2496BFAFAEAF2497909152
:101E5000120780911307981709F468C78091AE079D
:101E60009091AF07892B09F0F7C21091BB06512F53
:101E70005470F52E12FF05C022968EAD9FAD2297AD
:101E800002C00E9489239093AF078093AE07C09051
:101E9000AE07D090AF07C114D10409F447C7E09052
:101EA0008307012F0270EE2DE170E0FE03C0109257
:101EB0008307BBC0809182078F5F853009F0E82FD0
:101EC000E09382079DE09E9FF0011124EF5BF84FA5
:101ED000F0934007E0933F07D6011C968C911C9726
:101EE00084874D915D916D917C91DB01CA0123E066
:101EF000880F991FAA1FBB1F2A95D1F78083918352
:101F0000A283B383D60114964D915D916D917C911E
:101F10001797DB01CA0133E0880F991FAA1FBB1F67
:101F20003A95D1F784839583A683B783D601189613
:101F30004D915D916D917C911B97DB01CA0143E04E
:101F4000880F991FAA1FBB1F4A95D1F780879187D9
:101F5000A287B387F60160857185828593850E948B
:101F60009B32609388077093890780938A079093C8
:101F70008B07D6015A962D913D914D915C915D97BD
:101F80000E94F3319B01AC0160938C0770938D0725
:101F900080938E0790938F0760E070E080EA9FE364
:101FA0000E94F3316093900770939107809392079A
:101FB00090939307109284071092850710928607DA
:101FC00010928707011102C0E2FE1EC06091A107B6
:101FD0007091A2078091A3079091A407609399073D
:101FE00070939A0780939B0790939C079B01AC0189
:101FF0000E94C633F60166877787808B918B8E2D82
:102000008B7F8093830711C0D6011E966D917D91C1
:102010008D919C9151970E945D34609399077093C4
:102020009A0780939B0790939C07109295071092B4
:1020300096071092970710929807D60156962D9101
:102040003D914D915C91599729833A834B835C83F1
:1020500060E070E080E09FE30E94F3316D837E8357
:102060008F839887F601428C538C648C758C002387
:1020700009F44BC0F2E0F0939407D6011E96CD9080
:10208000DD90ED90FC905197A70196010E94C63318
:102090009B01AC01C301B2010E946A314B015C019A
:1020A00020E030E0A9010E94EE3187FF1DC02981A8
:1020B0003A814B815C81CA01B9010E946B31A30155
:1020C00092010E94C6339B01AC01C701B6010E9478
:1020D0006A310E945D346093A1077093A2078093D8
:1020E000A3079093A407B5C1809295079092960795
:1020F000A0929707B09298071092A1071092A2079A
:102100001092A3071092A407A4C1109294074092C2
:10211000A5075092A6076092A7077092A807FF2014
:1021200069F01092A1071092A2071092A3071092D3
:10213000A40719861A861B861C8623C0B8ADEEA993
:10214000BE1769F02496AEADBFAD24972D913D9199
:102150004D915C9129873A874B875C8704C019862B
:102160001A861B861C8669857A858B859C850E94CC
:102170005D346093A1077093A2078093A3079093A7
:10218000A407C6010E94F01F698B7A8B8B8B9C8BF6
:102190009B01AC010E94C6334B015C01D6011E9627
:1021A0002D913D914D915C9151972D873E874F87A1
:1021B000588B9B01AC016D857E858F8598890E9427
:1021C0008E3318160CF075C0A50194016D857E85BF
:1021D0008F8598890E946A319B01AC016D817E8157
:1021E0008F8198850E94C6339B01AC01C301B20167
:1021F0000E946A316093A5077093A6078093A70792
:102200009093A80720E030E0A9010E94EE31181653
:1022100044F1B2E0B093940729813A814B815C810B
:10222000CA01B9010E946B31A30192010E94C63319
:102230009B01AC01F60166857785808991890E94B2
:102240006A310E945D346093A1077093A207809366
:10225000A3079093A40780918307846080938307EA
:10226000F8C029853A854B855C85C501B4010E947B
:102270006A319B01AC016D817E818F8198850E94BE
:10228000C6336093A9077093AA078093AB07909316
:10229000AC0729893A894B895C8920939D07309343
:1022A0009E0740939F075093A00733E03093940715
:1022B000D0C029853A854B855C856D857E858F8567
:1022C00098890E946A319B01AC016D817E818F816A
:1022D00098850E94C6339B01AC01C301B2010E94E4
:1022E0006B3120E030E040E05FE30E94C6336B01D9
:1022F0007C0120E030E0A9010E948E3318160CF01A
:1023000090C0A3019201C701B6010E94EE3187FF80
:1023100084C029853A854B855C85C501B4010E943E
:102320006A319B01AC016D817E818F8198850E940D
:10233000C6336093A9077093AA078093AB07909365
:10234000AC07A70196010E94EE3187FF39C0898949
:102350009A89AB89BC8980939D0790939E07A0932F
:102360009F07B093A007A50194016D857E858F8599
:1023700098890E94EE31811104C091E090939407F6
:1023800068C02D853E854F855889C501B4010E94DE
:102390006A319B01AC016D817E818F8198850E949D
:1023A000C6339B01AC01C301B2010E946A31609344
:1023B000A5077093A6078093A7079093A80749C025
:1023C000C092A507D092A607E092A707F092A807AF
:1023D000C092A907D092AA07E092AB07F092AC078F
:1023E00029813A814B815C81CA01B9010E946B311C
:1023F000A70196010E94C63329853A854B855C85E5
:102400000E946B310E945D3460939D0770939E071C
:1024100080939F079093A0071CC0A2E0A09394070D
:1024200018C01092A5071092A6071092A707109245
:10243000A8078091A1079091A207A091A307B0914E
:10244000A40780939D0790939E07A0939F07B09346
:10245000A00718601093BB0680913E07E82FF0E0BC
:10246000FA87E98747E09F01429FF001439FF00D03
:102470001124EC5EF84F8091820784838091AE072F
:102480009091AF079E838D83DC015A96BC91BEA3C9
:10249000FC01F38DFFA3DC015C96BC91B8A7FC01A5
:1024A000F58DF9A7209190073091910740919207FF
:1024B000509193076EA17FA18B2F9F2F0E946A31AD
:1024C0006AAB7BAB8CAB9DAB20E030E0A9010E94F6
:1024D000EE3187FF04C01AAA1BAA1CAA1DAA50909D
:1024E000A5074090A6072091A7072D873091A80740
:1024F000398B40919D074A8F50919E075B8F809149
:102500009F078C8F9091A0079D8FA091A907AAA7E4
:10251000B091AA07BBA7E091AB07ECA7F091AC077D
:10252000FDA72091940729833090990720909A075E
:1025300060909B0770909C07309195073EA7409153
:1025400096074FA75091970758AB8091980789AB92
:102550009091A10799AFA091A207AAAFB091A3074C
:10256000BBAFE091A407ECAF0EA1FFA12696FFAF91
:10257000269718A529A525962FAF25978EE3C82E57
:1025800083ECD82E8EE2E82E89E3F82E1D8A1E8A6F
:102590001F8A188ECE8EDF8EE8A2F9A29981913023
:1025A00009F40BC1AD81BE8156962D913D914D919F
:1025B0005C915997913008F480C0933009F03EC186
:1025C000C701B6010E94C6334B015C0120E030E038
:1025D00040E05FE30E94C6339B01AC01632D722D86
:1025E000C3010E946A319B01AC01C701B6010E9480
:1025F000C6336AA37BA38CA39DA39B01AC01602F70
:1026000026967FAD2697812F25969FAD25970E9410
:102610006A31062F26967FAF2697182F25969FAFF3
:102620002597252D342D4D8559890E94EE3187FD42
:102630000BC020E030E0A9016AA17BA18CA19DA183
:102640000E94EE3118168CF1252D342D4D855989B7
:102650006EA17FA188A599A50E946A319B01AC015A
:102660000E946B316B017C012A8D3B8D4C8D5D8D01
:10267000632D722DC3010E946B319B01AC01C70118
:10268000B6010E94F3316B017C013A8C2B8C6C8C6F
:102690007D8C052D26964FAE26971D85B9892596EA
:1026A000BFAF2597E1E0E98357C1A5019401632DF0
:1026B000722DC3010E946A317CC0C701B6010E941D
:1026C000C6334B015C0120E030E040E05FE30E9454
:1026D000C6339B01AC01632D722DC3010E946B3187
:1026E0009B01AC01C701B6010E94C6339B01AC013E
:1026F000602F26967FAD2697812F25969FAD259733
:102700000E946A31062F26967FAF2697182F2596AE
:102710009FAF2597252D342D4D8559890E94EE3187
:1027200087FF40C0252D342D4D8559896EA17FA18D
:1027300088A599A50E946A319B01AC010E946B316A
:102740006B017C012A8D3B8D4C8D5D8D632D722D2F
:10275000C3010E946B319B01AC01C701B6010E940D
:10276000F3316B017C012AA53BA54CA55DA5652D28
:10277000742D8D8599890E94EE31811103C0B2E0DC
:10278000B98302C0E1E0E9833A8C2B8C6C8C7D8CA0
:10279000052D26964FAE26971D85F9892596FFAF04
:1027A0002597DAC0A5019401632D722DC3010E9403
:1027B0006B31362E272E3C01CFC0A70196016A8DC2
:1027C0007B8D8C8D9D8D0E94C6339B01AC01602F4B
:1027D00026967FAD2697812F25969FAD25970E943F
:1027E0006A314B015C012AA53BA54CA55DA50E9461
:1027F000EE3187FFA9C02AA53BA54CA55DA5602F9A
:1028000026967FAD2697812F25969FAD25970E940E
:102810006A312A8D3B8D4C8D5D8D0E94F3316B01A9
:102820007C010AA52BA526962FAF26971CA53DA5B2
:1028300025963FAF259742E049838EC0C701B60178
:102840000E94C6334B015C019B01AC01632D722DCC
:10285000C3010E948E3318160CF042C020E030E015
:1028600040E05FE3C501B4010E94C6339B01AC01A7
:10287000632D722DC3010E946A319B01AC01C70117
:10288000B6010E94C6339B01AC01602F26967FAD36
:102890002697812F25969FAD25970E946A316AA3BE
:1028A0007DAF8EAF9FAF2EA53FA548A959A90E9425
:1028B0008E331816ACF4A5019401632D722DC3015B
:1028C0000E946A31362E272E3C010AA1BDAD269604
:1028D000BFAF26971EADEFAD2596EFAF25973CC055
:1028E0002EA53FA548A959A9602F26967FAD26970A
:1028F000812F25969FAD25970E946A319B01AC01DF
:102900000E946B316B017C0129AD3AAD4BAD5CADE2
:10291000632D722DC3010E946B319B01AC01C70175
:10292000B6010E94F3316B017C0139AC2AAC6BAC6F
:102930007CAC0EA5FFA52696FFAF269718A929A95E
:1029400025962FAF259708C0082D26969FAE26976F
:102950001A2D2596BFAE2597A70196016D897E8910
:102960008F89988D0E946B316D8B7E8B8F8B988FAA
:102970002E8D3F8D48A159A10E94EE3187FF09C0DD
:102980002D893E894F89588D6E8D7F8D88A199A1A3
:102990003EC02AA93BA94CA95DA9602F26967FAD10
:1029A0002697812F25969FAD25970E948E33181666
:1029B000E4F0832D922DD3018093990790939A0789
:1029C000A0939B07B0939C07398130939407809123
:1029D000BB0683FF40C0AD81BE819A969C919093C7
:1029E000AD07877F8093BB0636C02EE333EC4EE203
:1029F00059E36E8D7F8D88A199A10E946B316E8FF6
:102A00007F8F88A399A32D893E894F89588D0E9475
:102A10006A316B017C012EA53FA548A959A9602FF9
:102A200026967FAD2697812F25969FAD25970E94EC
:102A30008E3318160CF4B2CD832D922DD3018093D2
:102A4000990790939A07A0939B07B0939C0749819D
:102A500040939407BCCF27E0E985FA852E9FC001FB
:102A60002F9F900D1124AC014C5E584F3A0180917C
:102A7000AD07DA0116968C9320918C0730918D0763
:102A800040918E0750918F07602F26967FAD269735
:102A9000812F25969FAD25970E94C6331B012C01DF
:102AA0000E94D7316B017C01609188077091890782
:102AB00080918A0790918B070E94D7314B015C016E
:102AC000A70196010E946A310E946C3269837A8361
:102AD0008B839C8329813A81F30131832083232BCB
:102AE00041F48091BB0681FF04C081608093BB06E6
:102AF0001DC1209184073091850740918607509130
:102B000087076D897E898F89988D0E946B316D83CF
:102B10007E838F839887A2019101C501B4010E9431
:102B20006A319B01AC016D817E818F8198850E9405
:102B3000F3314B015C0120EC31EE44E65EE40E948F
:102B4000C6330E94D7310E946C32603D57E0750752
:102B50008105910560F427E0A985BA852A9FF001D7
:102B60002B9FF00D1124EC5EF84F158254C0603A93
:102B70003FE073078105910568F4A7E049855A8510
:102B8000A49FF001A59FF00D1124EC5EF84FB1E079
:102B9000B5831FC06034EFE17E078105910568F4BD
:102BA00047E029853A85429FF001439FF00D1124AB
:102BB000EC5EF84F52E055830CC027E0A985BA853A
:102BC0002A9FF0012B9FF00D1124EC5EF84F33E0AB
:102BD0003583A7E049855A85A49FF001A59FF00D94
:102BE0001124EC5EF84F2581022E04C0969587953E
:102BF000779567950A94D2F749815A8102C0440FAC
:102C0000551F2A95E2F7518340836115710551E004
:102C10008507910568F427E0A985BA852A9FF00108
:102C20002B9FF00D1124EC5EF84F7383628304C078
:102C30004FEF5FEF538342838091130780933E07EA
:102C40008F5F863019F08093130702C0109213072C
:102C5000E091AE07F091AF07802F26969FAD2697A3
:102C6000A12F2596BFAD2597828F938FA48FB58F07
:102C7000C0928807D0928907E0928A07F0928B076A
:102C8000A2019101C701B6010E946A31A501940118
:102C90000E94C633609384077093850780938607EC
:102CA0009093870720919507309196074091970759
:102CB00050919807602F26967FAD2697812F2596F5
:102CC0009FAD25970E94EE318111C1C820E030E010
:102CD000A901602F26967FAD2697812F25969FAD5F
:102CE00025970E948E339091BB06181614F092FF20
:102CF00004C091609093BB0619C01092AF07109268
:102D0000AE075EA98FA9581709F4A1C8998D903113
:102D100009F4198E8091DA03AFA9A81303C0B98D05
:102D2000B093DA03E98DE093DB037AC8CB5BDF4F26
:102D30000FB6F894DEBF0FBECDBFDF91CF911F91CC
:102D40000F91FF90EF90DF90CF90BF90AF909F904A
:102D50008F907F906F905F904F903F902F9008954D
:102D6000CF93DF93C091AE07D091AF072097C9F002
:102D700080918307816080938307609199077091A8
:102D80009A0780919B0790919C079B01AC010E9440
:102D9000C6336E877F87888B998B1092AF0710920E
:102DA000AE07DF91CF9108951092F5061092F606C6
:102DB0008091AD06482F80FF03C080E28093F50626
:102DC0008091AE06282F80FF03C080E18093F60635
:102DD00041FF05C08091F50680688093F50621FFCC
:102DE00005C08091F60680648093F6060895CF931F
:102DF000DF930E949E0E8CE2E2E8F7E0DF011D9275
:102E00008A95E9F7C8EFD6E08AE1FE0111928A952A
:102E1000E9F71092AF071092AE07109212071092C6
:102E20003E0781E0809313071092F7060E94D416A4
:102E30008091F6068A878BB18F759091F506892B64
:102E40008BB98BB18F7A9091F606892B8BB9DF9174
:102E5000CF9108951F920F920FB60F9211248F9366
:102E60009F938BB19091F506907A8F75892B8BB9D2
:102E700015BC9F918F910F900FBE0F901F901895CA
:102E80008091F50680930107EFE6F0E08081826093
:102E9000808308958093B4009091B000811102C0A6
:102EA0009F7D01C090629093B0008093BD0608950D
:102EB0001F920F920FB60F9211242F933F934F93AF
:102EC0005F936F937F938F939F93AF93BF93EF9392
:102ED000FF938091F70681118BC18BB1909102070E
:102EE00090758F7A892B8BB98BB18F759091010773
:102EF000892B8BB98CEE86BD82E085BD81E0809305
:102F0000F70678948091100790911107892B09F0AA
:102F1000A2C08091120790913E07981709F48EC0C5
:102F2000E09112072E2F30E087E0E89FF001112496
:102F3000EC5EF84FF0931107E093100782819381C4
:102F400090938900809388008081918190930C07F1
:102F500080930B07E48180910D078E1721F1E09398
:102F60000D078DE0E89FF0011124EF5BF84FF0931F
:102F70000F07E0930E0780859185A285B385B695EE
:102F8000A795979587958093FC069093FD06A0934F
:102F9000FE06B093FF068093F8069093F906A0937F
:102FA000FA06B093FB06A0910E07B0910F0790911F
:102FB000F6061C968C911C9789278093020787E060
:102FC000829FF001839FF00D1124EC5EF84F258164
:102FD0004D915D916D917C911397022E04C0769571
:102FE0006795579547950A94D2F7409303075093F6
:102FF0000407609305077093060714968D919D91C1
:103000000D90BC91A02D04C0B695A7959795879576
:103010002A95D2F78093070790930807A093090792
:10302000B0930A078091B6068830A9F48091BD0656
:10303000813089F086810E944A170DC00E949E0E41
:103040008091BD06823018F080E00E944A1784E02B
:103050000E94BE0ECDC0109201074091030750910F
:10306000040760910507709106078091F80690911A
:10307000F906A091FA06B091FB06840F951FA61FD2
:10308000B71F8093F8069093F906A093FA06B093C1
:10309000FB06E0910E07F0910F0740855185628590
:1030A0007385481759076A077B0768F520E2209364
:1030B00001074085518562857385841B950BA60B9E
:1030C000B70B8093F8069093F906A093FA06B09395
:1030D000FB0624858091D2039091D303A091D40361
:1030E000B091D50324FF04C00197A109B10903C021
:1030F0000196A11DB11D8093D2039093D303A09399
:10310000D403B093D503409107075091080760910D
:10311000090770910A078091FC069091FD06A09125
:10312000FE06B091FF06840F951FA61FB71F809360
:10313000FC069093FD06A093FE06B093FF06408523
:10314000518562857385481759076A077B0778F5AB
:1031500020910107206820930107408551856285F1
:103160007385841B950BA60BB70B8093FC0690937D
:10317000FD06A093FE06B093FF0624858091D6033A
:103180009091D703A091D803B091D90326FF04C032
:103190000197A109B10903C00196A11DB11D80933A
:1031A000D6039093D703A093D803B093D90380910B
:1031B0000B0790910C07019790930C0780930B07D6
:1031C000892B69F410921107109210078091120751
:1031D0008F5F80931207863011F41092120790913E
:1031E000F506809101078927809301071092F70661
:1031F000FF91EF91BF91AF919F918F917F916F91CF
:103200005F914F913F912F910F900FBE0F901F90A4
:1032100018956FE180E090E00E94360D47E250E0A3
:103220006DE876E081E090E00C94580D48E050E0C5
:103230006AEC73E080E092E00C94580DEDE8F6E063
:1032400010A211A28AE097EDA3E2BCE382A393A3AC
:10325000A4A3B5A316A280E090E0A0E2B3E480832B
:103260009183A283B38384839583A683B78380E00D
:1032700090E9ACE1B6E480879187A287B387848721
:103280009587A687B78780E89BECA4E2BBE4808B98
:10329000918BA28BB38B848B958BA68BB78B80E0A5
:1032A00090E8A4E9B3E4808F918FA28FB38F80E080
:1032B00090E0A2EDB3E4848F958FA68FB78F0E9424
:1032C000091988E0EAECF3E0DF011D928A95E9F73D
:1032D0000C9416191F920F920FB60F9211242F9370
:1032E0003F934F935F936F937F938F939F93AF938E
:1032F000BF93EF93FF934091C600413231F04E37B8
:1033000041F0483141F480E101C088E00E94BE0EE6
:103310001CC082E0FBCF2091C8033091C903C901D2
:1033200001968132910511F480E090E06091C6032E
:103330007091C7038617970741F0F901EB55FC4FD1
:1033400040839093C9038093C803FF91EF91BF918D
:10335000AF919F918F917F916F915F914F913F912D
:103360002F910F900FBE0F901F9018951F920F92E4
:103370000FB60F9211248F939F93EF93FF93809139
:10338000F406E82FF0E0EF53F94F90819093C600D8
:103390008F5F833309F480E08093F4069091C00638
:1033A000891305C08091C1008F7D8093C100FF917A
:1033B000EF919F918F910F900FBE0F901F901895D6
:1033C000E091C00691E09E0F933309F490E02091C4
:1033D000F4069217E1F3F0E0EF53F94F80839093F6
:1033E000C0068091C10080628093C10008958FEF74
:1033F0008EBD0DB407FEFDCF8DB58F778DBD8EB51B
:1034000008951F93CF93DF9300D000D0CDB7DEB7E0
:10341000182F4C835B836A8379830E94F719812F6D
:1034200080640E94AC0E7981872F0E94AC0E6A8165
:10343000862F0E94AC0E5B81852F0E94AC0E4C81C2
:10344000842F0E94AC0E112321F0183021F487E85C
:1034500003C085E901C08FEF0E94AC0E1AE00E9404
:10346000F7198F3F11F41150D1F70F900F900F9073
:103470000F90DF91CF911F9108952F923F924F921D
:103480005F926F927F928F929F92AF92BF92CF92F4
:10349000DF92EF92FF920F931F93CF93DF9300D0B1
:1034A00000D0CDB7DEB74B015C017A016901212C58
:1034B00082E0382EC114D10409F46EC08401117069
:1034C00024013501401A510A61087108C101801BAD
:1034D000910B9C838B83C816D90610F4DC82CB82B7
:1034E0008091A1039091A203A091A303B091A403A2
:1034F000481659066A067B06D1F12A98B301A20143
:1035000081E10E94011A882319F02A9A80E045C0BF
:103510000E94F7198E3FE1F721EA31E029833A83CF
:103520000E94F71929813A81F90181939F01F3E003
:10353000213A3F0799F74092A1035092A20360926B
:10354000A3037092A403B8016F557E4F4B815C8139
:10355000C7010E9421358B819C81E80EF91E0E94D3
:10356000F7190E94F7192A9A0E94F7190CC0B8019E
:103570006F557E4F4B815C81C7010E942135EB81E5
:10358000FC81EE0EFF1E8B819C81C81AD90A880E21
:10359000991EA11CB11C8ECF81E00F900F900F904F
:1035A0000F90DF91CF911F910F91FF90EF90DF90DF
:1035B000CF90BF90AF909F908F907F906F905F90D3
:1035C0004F903F902F9008952F923F924F925F928D
:1035D0006F927F928F929F92AF92BF92CF92DF9223
:1035E000EF92FF920F931F93CF93DF932B013C0138
:1035F0005A01E90147011601452B11F480E024C06E
:103600002097E1F302171307C8F3EF28B9F3690114
:10361000E12CF12C9E01A501C301B2010E943D1ACB
:10362000882361F39101B301A201C501F401099559
:10363000882349F04C0C5D1C6E1C7F1C0C1B1D0B61
:103640000C171D0738F781E0DF91CF911F910F9183
:10365000FF90EF90DF90CF90BF90AF909F908F90B2
:103660007F906F905F904F903F902F900895CF93F1
:10367000C82F811105C08CE391E00E94C11F07C0D3
:1036800085E391E00E94C11F8C2F0E949B1F83E362
:1036900091E0CF910C94C11F1F93CF93DF9386E0ED
:1036A0000E94C70E8F3368F48091B6068F7DE9F4CF
:1036B0008091B5068B7F8093B5068091B5068160B9
:1036C00012C08F3B68F48091B6068F7D71F48091B3
:1036D000B5068E7F8093B5068091B506846003C0E1
:1036E0008091B5068A7F8093B50687E00E94C70E59
:1036F0008F3358F58091B606982F9F7D49F48091BD
:10370000B506877F8093B5068091B506826046C076
:10371000883019F0803109F043C08091B50684FDEE
:103720003FC08091B50680618093B5068091BC064C
:103730008333B0F18550823308F482E38093BC0672
:103740000E94FB220E94D01F2BC08F3B20F580914E
:10375000B606982F9F7D49F48091B5068D7F8093A2
:10376000B5068091B506886019C0883011F08031A7
:10377000B9F48091B50684FD13C08091B5068061CF
:103780008093B5068091BC06863950F48B5F8739EB
:10379000A8F286E9D3CF8091B506857E8093B506E1
:1037A0008091B5068111E0C085E00E94C70E182FF8
:1037B00085E00E94C70EC82FD0E0212F30E02C1BDF
:1037C0003D0B37FF03C03195219531092330310579
:1037D0000CF0CAC0853170F48091B406882309F4D6
:1037E000C3C08091BF0680618093BF068CE00E94B9
:1037F000371BB4C08A3398F58091B406882309F446
:10380000B3C08091B60681111BC02FEF86E791E00F
:10381000215080409040E1F700C0000085E00E9408
:10382000C70E90E08C1B9D0B97FF03C0919581956F
:10383000910903970CF098C08091B50680648CC004
:10384000883021F48091BF06886006C0803109F07D
:1038500085C08091BF0682608093BF067FC085359A
:1038600060F58091B406882309F47EC08091B60685
:10387000811174C02FEF86E791E021508040904085
:10388000E1F700C0000085E00E94C70E90E08C1BAD
:103890009D0B97FF03C091958195910903970CF0BB
:1038A00063C08091BD06811102C081E001C080E04B
:1038B0000E944A170E94CC0151C0893618F58091A8
:1038C000B406882309F450C08091B606811146C021
:1038D0002FEF86E791E0215080409040E1F700C053
:1038E000000085E00E94C70E90E08C1B9D0B97FFA7
:1038F00003C09195819591090397B4F58091B50620
:1039000080622AC0893768F58091B406882361F106
:103910008091B30681FF22C08091B6068230F0F418
:103920002FEF86E791E0215080409040E1F700C002
:10393000000085E00E94C70E90E08C1B9D0B9C014F
:1039400097FF04C022273327281B390B233031056A
:103950005CF48091B50680688093B5061092B40639
:1039600003C081E08093B406DF91CF911F91089549
:103970008F929F92AF92BF92CF92DF92EF92FF927F
:10398000CF93DF93EC015B01FB01C080D180E2802B
:10399000F38020E030E0A901C701B6010E94EE31BA
:1039A0008823B1F0A7019601688179818A819B8182
:1039B0000E94F3316B017C01E894F7F829E936E7BE
:1039C00046E95EE7C701B6010E948E33181644F43B
:1039D00089E9C82E86E7D82E86E9E82E8EE7F82EEC
:1039E000F50184809580A680B78020E030E0A901B1
:1039F000C501B4010E94EE318823B1F0A501940104
:103A00006C817D818E819F810E94F3314B015C012D
:103A1000E894B7F8A5019401C701B6010E94EE3100
:103A200087FD02C075016401C701B601DF91CF9126
:103A3000FF90EF90DF90CF90BF90AF909F908F90CE
:103A400008952F923F924F925F926F927F928F9242
:103A50009F92AF92BF92CF92DF92EF92FF920F931D
:103A60001F93CF93DF93C0918C06C11101C0C0E1B9
:103A7000C150D091DA03CD1709F41BC1EC2EF12C03
:103A80002BE2C29F8001112404521C4FF801A2882E
:103A9000B388C488D58866897789808D918D9B018C
:103AA000AC010E946B31F801228D338D448D558D10
:103AB0000E94C6334B018C019B01AC01B501C601CC
:103AC0000E94EE3187FD02C0540168018BE28E9D99
:103AD000F0018F9DF00D1124E452FC4FC501D60179
:103AE00086879787A08BB18BC11101C0C0E1C150FF
:103AF000CD1761F02BE22E9DC0012F9D900D11245A
:103B00009C0124523C4F7901DBE233C08091DB03FE
:103B1000D8135EC00E94B0165BC0AC2EB12CDA9DEB
:103B2000C001DB9D900D1124FC01E452FC4F6F019C
:103B3000C11101C0C0E1C1508091DB03C81302C0B4
:103B40000E94B016DA9D8001DB9D100D11240452F5
:103B50001C4FF80182889388A488B588A501940138
:103B600066857785808991890E94EE31811106C032
:103B700076018091DA03C813D0CF2AC0F801668994
:103B80007789808D918D9B01AC010E946B31F8018A
:103B9000228D338D448D558D0E94C633F7012685C5
:103BA0003785408951890E946B312B013C01A50169
:103BB00094010E94EE31F80187FF05C046865786C2
:103BC000608A718AD5CF86869786A08AB18AD0CF3F
:103BD000D091DA03FBE2DF9F8001112404521C4FD5
:103BE000C1E0CD0FC03109F4C0E020908C068BE21B
:103BF000382EC21509F45BC0CC2ED12C3C9CC001E0
:103C00003D9C900D11249C0124523C4F7901F801F8
:103C10004684578460887188F90186849784A088D7
:103C2000B188A5019401C301B2010E94EE3187FF62
:103C300024C0F80166897789808D918D9B01AC0144
:103C40000E946B31F801228D338D448D558D0E9479
:103C5000C6339B01AC01C301B2010E946B312B0141
:103C60003C01A50194010E94EE3187FF06C0F701D7
:103C700046865786608A718ADC2F3C9CF0013D9C09
:103C8000F00D1124E452FC4F22893389448955896F
:103C900066857785808991890E94EE31811101C006
:103CA000DC2FCF5FC03109F4C0E08701A2CFD093F1
:103CB000DA03DF91CF911F910F91FF90EF90DF908A
:103CC000CF90BF90AF909F908F907F906F905F90BC
:103CD0004F903F902F9008954F925F926F927F92F6
:103CE0008F929F92AF92BF92CF92DF92EF92FF920C
:103CF0000F931F93CF93DF9300D000D0CDB7DEB7E3
:103D00008C01FC0180809180A280B38020E030E0B3
:103D1000A901C501B4010E94EE31882371F0A5010B
:103D20009401C501B4010E94C63320E030E0A9012E
:103D30000E946B312B013C0103C0412C512C3201FC
:103D4000F801C480D580E680F78020E030E0A9014A
:103D5000C701B6010E94EE31882371F0A7019601D8
:103D6000C701B6010E94C6339B01AC01C301B20179
:103D70000E946B312B013C01C301B2010E945D34F2
:103D80002B013C019B01AC0160E070E080E89FE307
:103D90000E94F33169837A838B839C839B01AC01FE
:103DA000C501B4010E94C633F80160837183828328
:103DB000938329813A814B815C81C701B6010E94BE
:103DC000C633F8016483758386839783C301B20188
:103DD0000F900F900F900F90DF91CF911F910F9147
:103DE000FF90EF90DF90CF90BF90AF909F908F901B
:103DF0007F906F905F904F9008958F929F92AF92B7
:103E0000BF92CF92DF92EF92FF920F931F93CF93C7
:103E1000DF93CDB7DEB72D970FB6F894DEBF0FBE98
:103E2000CDBF6B017C01042F20E030E0A9010E948E
:103E3000EE3187FF07C08DE20E94E019F7FAF09497
:103E4000F7F8F094102F123060F020E030E048ECEA
:103E500052E4C701B6010E94C6336B017C011250C7
:103E6000F2CF00FF0AC020E030E040E251E4C70199
:103E7000B6010E94C6336B017C0120E030E040E0D7
:103E80005FE3C701B6010E946B310E94653210E00A
:103E90003AE0832E912CA12CB12C6115710581057E
:103EA000910591F0EE24E394F12CEC0EFD1EE10E51
:103EB000F11CA50194010E94DF34605DF70160836D
:103EC000B901CA011F5FE9CF80E3101748F4E1E0B0
:103ED000F0E0EC0FFD1FE10FF11D80831F5FF5CFB8
:103EE000101314C011E0100F80E3FE01E00FF11D6C
:103EF00081830CC0101303C08EE20E94E019FE0102
:103F0000E10FF11D80810E94E01911501111F2CFD3
:103F10002D960FB6F894DEBF0FBECDBFDF91CF91C7
:103F20001F910F91FF90EF90DF90CF90BF90AF90D7
:103F30009F908F900895CF93DF93843630F06AE09E
:103F40000E94BF34C0E3C90F03C0C0E08A3030F024
:103F50006AE00E94BF34D0E3D90F01C0D0E0805D99
:103F60000E94E019DD2319F08D2F0E94E019CC2367
:103F700029F08C2FDF91CF910C94E019DF91CF9134
:103F80000895CF93DF93FC018491EF01219688235C
:103F900021F00E94E019FE01F7CFDF91CF91089543
:103FA0000E94B0168091DB038093DA030C94211DEC
:103FB000E2ECF7E0A2EDB3E04D915D916D917C9163
:103FC0001397408351836283738314968D919D91DF
:103FD0000D90BC91A02D84839583A683B78308950B
:103FE000BF92CF92DF92EF92FF920F931F93CF93E6
:103FF000DF937C01FC0106A117A1D0A5C1A5858591
:1040000080FD28C06091BC0670E080E090E00E94D6
:104010009D322AE037ED43E25CE30E94C6339B0108
:10402000AC01B8018D2F9C2F0E94C6338B01D82F75
:10403000C92FF701B2A0C3A0D4A0F5A02B2D3C2D11
:104040004D2D5F2D0E948E33181624F40B2D1C2D40
:10405000DD2DCF2D20E030E040E85FE3B8018D2F6B
:104060009C2F0E948E33181624F000E010E0D0E858
:10407000CFE3B8018D2F9C2FDF91CF911F910F912E
:10408000FF90EF90DF90CF90BF9008952F923F92D6
:104090004F925F926F927F928F929F92AF92BF9258
:1040A000CF92DF92EF92FF920F931F93CF93DF9304
:1040B000CDB7DEB7A0970FB6F894DEBF0FBECDBF69
:1040C00000918C0610E08BE2809F9001819F300D63
:1040D0001124A90144525C4F1A01FA0111928A95E8
:1040E000E9F78091C107FA01858788E0E2ECF7E003
:1040F000DE01519601900D928A95E1F7FA018084D4
:104100009184A284B3848091B1079091B207A09169
:10411000B307B091B407898F9A8FAB8FBC8FC988D2
:10412000DA88EB88FC88BC01CD016C197D098E0909
:104130009F096B017C0197FF07C0CC24DD24760129
:10414000C61AD70AE80AF90A2BE2209FF001219F3C
:10415000F00D1124E452FC4FC082D182E282F3823E
:10416000C814D904EA04FB0410F4750164010E9428
:104170009D3220918D0630918E0640918F06509190
:1041800090060E94F33169877A878B879C8720E0AD
:1041900030E0A9010E94EE3187FF0BC08BE2809FC7
:1041A000F001819FF00D1124E452FC4F8485806161
:1041B00084878091B5079091B607A091B707B09119
:1041C000B8078D8F9E8FAF8FB8A38D889E88AF88DC
:1041D000B88CBC01CD01681979098A099B092B01AA
:1041E0003C0197FF07C0442455243201461A570A60
:1041F000680A790A2BE2209FF001219FF00D11241B
:10420000E452FC4F44825582668277824601570110
:10421000C414D504E604F70410F4530142010E94CB
:104220009D322091910630919206409193065091D3
:1042300094060E94F3316D877E878F87988B20E0EC
:1042400030E0A9010E94EE3187FF0BC08BE2809F16
:10425000F001819FF00D1124E452FC4F84858064AD
:1042600084872BE2209FC001219F900D11249C0187
:1042700024523C4F7901F90180869186A286B3864B
:1042800089288A288B2809F49AC1CE0109960E94B0
:104290006C1EF701628F738F848F958FBE01675FED
:1042A0007F4F8DE996E00E94B81CF701668B778BF3
:1042B000808F918FBE01675F7F4F85E996E00E94F6
:1042C000B81CF70162A373A384A395A3358530FFBF
:1042D00005C066A377A380A791A714C04091BD072E
:1042E0005091BE076091BF077091C007F70146A3C8
:1042F00057A360A771A79091BC07992319F09091DB
:10430000B90792A720918C069091DB03291709F435
:104310005EC031FD5CC04090CA075090CB076090F2
:10432000CC077090CD0789849A84AB84BC84A501A6
:104330009401C301B2010E94C6339B01AC0160E04D
:1043400070E0CB010E946A316B017C01A3019201F4
:10435000C501B4010E946A3169837A838B839C838F
:104360004090CE075090CF076090D0077090D10753
:104370008D849E84AF84B888A5019401C301B201E5
:104380000E94C6339B01AC01C701B6010E946A318D
:104390006B017C01A3019201C501B4010E946A3145
:1043A0006D837E838F8398872FEE3FEF4FE75FE328
:1043B000C701B6010E948E331816D4F48BE2809F99
:1043C000F001819FF00D1124E452FC4F0CC08BE2F0
:1043D000809FF001819FF00D1124E452FC4F16865E
:1043E0001786108A118A168E178E10A211A272C01B
:1043F0002FEE3FEF4FE75FEBC701B6010E94EE31B2
:1044000087FF11C08BE2809FF001819FF00D112486
:10441000E452FC4F89E996E7A6E9BEE7868F978FBD
:10442000A0A3B1A357C0CE0101960E946C1EBE018D
:104430006F5F7F4F8DE996E00E94B81C4B015C01D5
:10444000A701960160E070E080E89FE30E946A3176
:1044500020E030E040E05FE30E94C6330E945D341C
:104460006B017C012091AF063091B0064091B106FE
:104470005091B206C501B4010E94C633A70196014E
:104480000E94C6334B015C01A701960160E070E019
:1044900080E89FE30E946A319B01AC01C501B40131
:1044A0000E94F3316B017C0120E030E0A9010E9401
:1044B000EE3187FF03C0C12CD12C76018BE2809FA7
:1044C000F001819FF00D1124E452FC4FC68ED78E6F
:1044D000E0A2F1A22BE2209FC001219F900D1124A8
:1044E0009C0124523C4F7901F901858581FD69C009
:1044F000C1010E94F01F4B015C014090D207509017
:10450000D3076090D4077090D507A30192010E9451
:104510008E3318162CF4A3019201C301B20104C01A
:10452000A5019401C501B4010E94C633F701628B55
:10453000738B848B958B2BE2209FC001219F900D64
:1045400011248C0104521C4FF801C68CD78CE0A0BA
:10455000F1A0A701960162897389848995890E94D7
:104560008E3318162CF4F801C28AD38AE48AF58AAD
:104570008092D2079092D307A092D407B092D50729
:1045800088E0FE013996AAECB7E001900D928A9579
:10459000E1F788E0FE017996A2ECB7E001900D9278
:1045A0008A95E1F78091B00780938C068F5F803108
:1045B00009F480E08093B0070E94211D02C080E0D2
:1045C00001C081E0A0960FB6F894DEBF0FBECDBF4C
:1045D000DF91CF911F910F91FF90EF90DF90CF90DF
:1045E000BF90AF909F908F907F906F905F904F9013
:1045F0003F902F9008955F926F927F928F929F923B
:10460000AF92BF92CF92DF92EF92FF920F931F93E0
:10461000CF93DF93C091DB0350908C0689E9F82E8D
:1046200006E716E9DEE79BE2692EC51509F455C0D9
:10463000AC2EB12C6A9CC0016B9C900D11249C0186
:1046400024523C4F6901C9010E94F01F762E872E2B
:10465000982EE92E2F2D302F412F5D2F0E948E3363
:1046600018164CF42F2D302F412F5D2F6F2D702FEA
:10467000812F9D2F08C0272D382D492D5E2D672DA8
:10468000782D892D9E2D0E94C633F601628B738B87
:10469000848B958B6A9C80016B9C100D11240452B5
:1046A0001C4FF801A68CB78CC0A0D1A0A601950123
:1046B00062897389848995890E948E3318162CF437
:1046C000F801A28AB38AC48AD58ACF5FC03109F4BF
:1046D000C0E0F72C8401DE2DA8CF8F2D902FA12FC5
:1046E000BD2F8093D2079093D307A093D407B093A4
:1046F000D507DF91CF911F910F91FF90EF90DF9041
:10470000CF90BF90AF909F908F907F906F905F9071
:1047100008958091DB0390918C06981739F02BE275
:10472000829FC001112484529C4F089580E090E044
:1047300008950E948923892B19F082E00C94BE0E03
:104740000895CF93C091BF06CC2309F480C08C2F6D
:10475000887141F18091B606883059F482E08093E7
:10476000BB060E94B016C4FF1AC081E08093BA064F
:1047700016C0982F9F7E61F4C4FF11C01092B60638
:1047800081E08093B9061092BA061092BE0666C008
:10479000843029F4C4FF03C081E08093B90688E126
:1047A0000E94B40EC1FF1EC08091B6068F7EB9F480
:1047B000C1601092BB061092BA060E948923892B11
:1047C00041F088E08093B6060E94E30E0E944017F5
:1047D00006C08091BE06811102C01092B60682E02A
:1047E0000E94B40EC0FF07C00E944A020E94F2015C
:1047F00081E00E94B40EC2FF2AC08091BF06816092
:104800008093BF068091BB0681FF1AC00E94D01F13
:104810008091BB068D7F8093BB068091BA0688236A
:1048200041F01092B60681E08093B9061092BA0664
:1048300015C080E18093B60681E08093BA0604C07B
:104840001092B6060E94992384E00E94B40E8091D3
:10485000B6068C7219F0CF910C94E30ECF910895A7
:104860000E944C1B0E94A1238091BA068111F8CFAF
:1048700008950E948923892B39F00E943024809169
:10488000B9068823B1F304C08091B6068830A9F335
:1048900008956F927F928F929F92AF92BF92CF9224
:1048A000DF92EF92FF920F931F93CF93DF937C01E0
:1048B000FB016A018081D701A80FB11D9C91ED0118
:1048C0009D3219F02196612C05C0229611969C917B
:1048D00066246394912CA12C712C20E030E0A90176
:1048E0008E0160EDB62EB90E89E08B15A0F0A39471
:1048F00091107A94A5E0B0E00E941635DC01CB015E
:10490000880F991FAA1FBB1F9C01AD012B0D311DE4
:10491000411D511D07C0AEEFBA1208C0911006C06C
:10492000992493942196D8019C91DACFAA2009F476
:1049300043C08F01CA01B9010E949B324B015C0147
:1049400020E030E0A9010E94EE318823E1F0BFEFC2
:104950007B166CF42AE037ED43E25CE3C501B40159
:104960000E94C6334B015C0173947394F0CF7B12A9
:104970000AC02DEC3CEC4CEC5DE3C501B4010E9497
:10498000C6334B015C01662051F0B7FAB094B7F81A
:10499000B094F60180829182A282B38206C0D601D1
:1049A0008D929D92AD92BC921397CE19DF09C150A2
:1049B000F801C08381E001C080E0DF91CF911F91B9
:1049C0000F91FF90EF90DF90CF90BF90AF909F90AE
:1049D0008F907F906F9008956F927F929F92AF9289
:1049E000BF92CF92DF92EF92FF920F931F93CF93DC
:1049F000DF938C013B017A01DB018C91F801E80F18
:104A0000F11D80819F018D3221F02F5F3F4FA12C3E
:104A100005C02E5F3F4F8181AA24A394922EF901F5
:104A200020E030E0A9019E2F99196F0160EDB62EAC
:104A3000B80EB9E0BB15A0F0A5E0B0E00E941635B5
:104A4000DC01CB01880F991FAA1FBB1F9C01AD0180
:104A50002B0D311D411D511D3196E6018881E3CF9B
:104A6000DEEFBD16F1F09923E1F0AA2069F0882766
:104A70009927DC01821B930BA40BB50BE7018883FC
:104A80009983AA83BB8306C0D7012D933D934D9391
:104A90005C931397E01BF10BE150E301E88381E0A5
:104AA00001C080E0DF91CF911F910F91FF90EF90B7
:104AB000DF90CF90BF90AF909F907F906F900895C0
:104AC000CF93DF93CDB7DEB7C556D1090FB6F894B3
:104AD000DEBF0FBECDBF87B18F6087B9529A209AD3
:104AE0003C9A8FEF99EF0197F1F700C00000419ACF
:104AF000409A0E940601AFE1BEE41197F1F700C0B1
:104B000000000E940601EFEFF0E03197F1F700C0DE
:104B100000000E9406018FEF90E00197F1F700C0BE
:104B2000000040980E940601AFEFB0E01197F1F746
:104B300000C0000088E20E94710181E00E947101C2
:104B400086E00E9471018CE00E9471010E9429029E
:104B500087B18F7187B988B1806E88B98091C000A4
:104B600082608093C0001092C50080E18093C400F1
:104B70008091C10088698093C10080E090E00E942C
:104B8000970D8F3109F0B1C547E250E061E070E068
:104B90008DE896E00E949F0D892B09F4A6C58AB185
:104BA000806A8AB98AB180658AB9809181008F7ED6
:104BB0008093810080918100886080938100809142
:104BC00080008C7F80938000809180008F70809324
:104BD000800080916E00887F80936E0014BC15BCAD
:104BE00080916E00816080936E00539A83E0809381
:104BF000B00084E08093B10080E00E944A172198C1
:104C0000299A8FE78093B30080917000826080932F
:104C1000700018E0E2EDF3E0DF01212F1D922A95EC
:104C2000E9F7E4E0F1E0DF01212F1D922A95E9F791
:104C300048E050E060E072E08AEC93E00E949F0D53
:104C4000892B59F487E00E94371BEAECF3E0DF017F
:104C50001D921A95E9F70E941619789489E0E6EBFF
:104C6000F6E0DF011D928A95E9F781E1E1EBF7E0DB
:104C7000DF011D928A95E9F78091B30681FF03C099
:104C800081E08093B60684E68093BC068EE00E94A5
:104C9000371B8091C8039091C9039093C7038093F9
:104CA000C60384E1E2ECF7E0DF011D928A95E9F7A3
:104CB0001092DB0310928C0681E08093B007109273
:104CC000DA030E94F7160E94D81F212C312C00E035
:104CD00010E028961FAE1EAE289762961FAE629710
:104CE00023961FAE239729961FAE29978091B5066C
:104CF000882309F475C28091B50684FD71C2809144
:104D0000B50687FF7BC11092B506C090B60680E05D
:104D10000E944A170E94CC0184E68093BC06109240
:104D2000B907E2EDF3E02B96FFAFEEAF2B9722EC45
:104D300037E02D963FAF2EAF2D973DE8E32E36E0BE
:104D4000F32E41EB842E47E0942E54E0D52E62E002
:104D5000B62E0E94DC00882321F0C092B60683E1C3
:104D6000CAC41092C10749E956E766E97EE7409355
:104D7000BD075093BE076093BF077093C007809133
:104D8000C2079091C307A091C407B091C507809353
:104D9000B1079093B207A093B307B093B407809183
:104DA000C6079091C707A091C807B091C907809323
:104DB000B5079093B607A093B707B093B80761966D
:104DC000FFAEEEAE619720E030E040EA50E4D7015C
:104DD0006D917D918D919C910E94F3310E9493334E
:104DE000A62E80918C069091DB03891708F4805FD2
:104DF000891B8330F8F4F40180819181A281B38111
:104E00008A199109A109B10980839183A283B3838F
:104E10000E9446208091B606833060F41092BB0653
:104E20000E948923892B31F0D092B6060E94E30EAE
:104E30000E9440170E94DC008111A12C0E944C1B93
:104E40000E94A1238091B9068111A12C9091B606F0
:104E5000943039F2882329F01092B906C092B60630
:104E6000B7C189EC90E0019739F0AFE9BFE0119745
:104E7000F1F700C00000F7CFB092C10720E030E0AA
:104E800046E154E42093BD073093BE074093BF072B
:104E90005093C00720E030E040E251E4D7016D912B
:104EA0007D918D919C910E94C6330E949333F401B1
:104EB0004080518062807380DC01CB01840D951DA0
:104EC000A61DB71D80839183A283B3830E944620D1
:104ED000D092BB06D092B6060E944A020E94F2010E
:104EE0000E94E30E0E9440179091BF06892F8470A4
:104EF00092FD06C00E94E30E0E94DC008111F4CFF7
:104F0000A3968FAFA3970E94F7160E94D81FA3966F
:104F10008FADA397882351F081E08093B6068091EE
:104F2000BF068B7F8093BF0682E1E5C32D96AEADB1
:104F3000BFAD2D974D905D906D907D902D96BFAF3C
:104F4000AEAF2D97B4E0EB0EF11C20E030E040E373
:104F500051E46196EEADFFAD619760817181828110
:104F600093810E94F3310E949333460E571E681EB0
:104F7000791ED4014D925D926D927D924D010E94F9
:104F80004620D092BB06D092B6060E94E30E0E9445
:104F900040170E94E30E8091BF0682FFFACF0E9465
:104FA000F7168091BF068B7F8093BF062B96EEADE0
:104FB000FFAD2B9711921192119211922B96FFAF88
:104FC000EEAF2B970E94D81FB092B60689EC90E006
:104FD000019739F0AFE9BFE01197F1F700C0000089
:104FE000F7CF2B96EEADFFAD2B97EA5DF34009F0BE
:104FF000B0CE1092BB061092B606EAC08091B506FC
:1050000086FF7CC0239A259A229A24982C9A2A9A61
:1050100083E58CBD8DB58E7F8DBD10920C012AE08D
:10502000F22E0E94F719FA94F110FBCF2A98E12C86
:1050300092E0F92E40E050E0BA0180E00E94011AAF
:10504000813029F091E0E91AF108A1F72EC040E083
:1050500050E0BA0187E30E94011A40E050E0BA0133
:1050600089E20E94011A82FD05C080910C018160D5
:1050700080930C01E12C80E8F82E80910C01837064
:1050800040E050E0BA0141F087E30E94011A40E09D
:1050900050E0BA0189E201C081E00E94011A80FF5C
:1050A00006C0A1E0EA1AF10841F72A9AF4C340E0E9
:1050B00052E060E070E080E10E94011A2A9A8111BA
:1050C000EAC38CB58C7F8CBD8DB581608DBD2FEF13
:1050D0003FEFA9012093A1033093A2034093A303C0
:1050E0005093A40320E032E041EA51E060E070E038
:1050F000CB010E943D1A811176C3CDC38091B506C4
:1051000085FF3AC01092B506E4E2FE2E8091B40607
:1051100081110CC0FA94FF2049F08FE39CE90197BC
:10512000F1F700C000000E944C1BF0CF8091B40644
:1051300081111AC08091B30681FD0AC088E0E2EDBA
:10514000F3E0DF011D928A95E9F70E94D81F40C065
:1051500088E0E2EDF3E0AAECB3E001900D928A95CD
:10516000E1F70E94161934C082E08093B80680E00F
:1051700091E00E94CB052CC081E00E944D0374E2B7
:10518000F72E8091B5068823D9F0FA94FF20C1F05C
:10519000EFE3FCE93197F1F700C000000E944C1BDF
:1051A0000E94A1238091B906882359F391C20E94DD
:1051B00030248091B90681118BC282E00E944D0398
:1051C0008091B5068111F3CF8091B906811180C21B
:1051D0008091C8039091C9039093C7038093C6033D
:1051E000BB24B3944BE3A42E58E0952E62E0862EA8
:1051F0008091C6039091C7032091C8033091C903E1
:105200002817390731F48091B906882309F454C26C
:105210005FC2FC01EB55FC4F208101968132910564
:1052200011F480E090E09093C7038093C6032F3F72
:1052300051F32B3309F025C28091B906811148C280
:105240008091B606803181F423962FAD2397E22F0B
:10525000F0E0E05AFE4FA08229963FAD29973170C9
:10526000632E49F08BE0FBC10E9430248091B90687
:10527000882351F32DC2909160018091B60694323B
:1052800009F0F6C1823008F0E7C12296BFAE22973E
:1052900080916101893431F0823509F4DEC08432B5
:1052A00009F0EFC0909162019B3309F0D2C18432C2
:1052B00009F0B7C08BE70E94E0198091AD060E940B
:1052C0009B1F8CE20E94E0198091AE060E949B1FFA
:1052D0008CE20E94E01960918D0670918E0680919B
:1052E0008F069091900643E00E94FD1E8CE20E9482
:1052F000E0196091910670919206809193069091C9
:10530000940643E00E94FD1E8CE20E94E01920E01A
:1053100030E040E752E460919506709196068091E6
:105320009706909198060E94F33140E00E94FD1E7E
:105330008CE20E94E01920E030E040E752E4609106
:10534000990670919A0680919B0690919C060E9406
:10535000F33140E00E94FD1E8CE20E94E01920E043
:1053600030E041E655E460919D0670919E06809183
:105370009F069091A0060E94F33140E00E94FD1E1E
:105380008CE20E94E01920E030E041E655E46091B3
:10539000A1067091A2068091A3069091A4060E9496
:1053A000F33140E00E94FD1E8CE20E94E019609102
:1053B000A5067091A6068091A7069091A80641E0E7
:1053C0000E94FD1E8CE20E94E0196091A906709176
:1053D000AA068091AB069091AC0641E00E94FD1EAA
:1053E0008CE20E94E0198091B30681700E949B1F9D
:1053F0008CE20E94E0196091AF067091B006809136
:10540000B1069091B20643E00E94FD1E8CE20E941C
:10541000E0198091B306869581700E949B1F8DE7ED
:1054200015C01092B8068BE50E94E01982E890E062
:105430000E94C11F8CE20E94E019898283E30E94CE
:10544000E0198981805D0E94E0198DE50E94E019D4
:1054500083E391E00E94C11F01C180916201833505
:1054600009F0F7C080916301843509F0F2C08091A2
:1054700064018B3309F0EDC00E941E190E94D416FE
:10548000EDC0AE014F5F5F4FBE016F5B7F4F80E6A7
:1054900091E00E944924811103C032E0632EDEC0F6
:1054A00022968FAD22978F5F22968FAF2297AE0103
:1054B000405C5F4FBE016F5B7F4F80E691E00E94D2
:1054C000EC24882351F32296EFAD2297F0E0E05AC6
:1054D000FE4F80818B3309F0BCC0C980DA80EB803D
:1054E000FC8021967FAC219720E030E0A901C70124
:1054F000B6010E94EE3187FF04C0F7FAF094F7F886
:10550000F094C701B6010E949D340E946C32872D31
:1055100090E08D30910508F09CC0FC01EC5CFF4FE1
:105520000C9401356093AD0602C06093AE060E94F4
:10553000D4168CC0C0928D06D0928E06E0928F0653
:10554000F092900683C0C0929106D0929206E092AB
:105550009306F09294067AC020E030E040E752E4EF
:10556000C701B6010E94C6336093950670939606F4
:10557000809397069093980669C020E030E040E75A
:1055800052E4C701B6010E94C63360939906709336
:105590009A0680939B0690939C0658C020E030E0CA
:1055A00041E655E4C701B6010E94C63360939D06EB
:1055B00070939E0680939F069093A00647C020E0BC
:1055C00030E041E655E4C701B6010E94C63360935E
:1055D000A1067093A2068093A3069093A40636C0FA
:1055E000C092A506D092A606E092A706F092A80661
:1055F0002DC0C092A906D092AA06E092AB06F09206
:10560000AC0624C0C092AF06D092B006E092B106BC
:10561000F092B2061BC08091B306662311F0816040
:1056200007C08E7F05C08091B306662321F082609B
:105630008093B3060BC08D7F8093B306AAECB3E0D2
:10564000E92D1D92EA95E9F70E9416190E940919A1
:1056500005C023E0622E02C098E0692E862D0E94CC
:10566000371B23961FAE239729961FAE2997C0CDCF
:10567000857211F089E0F3CF80E691E00E94CB05BE
:10568000EECF233271F32996FFAD2997F111B0CDFA
:1056900023963FAD23973D3150F4E32FF0E0E05ADD
:1056A000FE4F20833F5F23963FAF2397A1CD41E07C
:1056B00029964FAF29979CCD8091B606803109F489
:1056C00015CB0E9430248091B906882309F40ECBB3
:1056D00080E00E944A170E94CC011092B9061092F5
:1056E000B50681E08093BF06D4CA87E00E94371BCD
:1056F0000E941E1954CA90E00E948001EE24E39497
:1057000085E00E94C70EF82E85E00E94C70E2F2D5F
:1057100030E0281B310937FF03C03195219531094D
:10572000233031055CF48A3338F48091B406882341
:1057300029F01092B40654C0E092B4068FE39CE9BD
:105740000197F1F700C00000DBCF211531054105BD
:10575000510509F06EC110921B0110921A0185E6E5
:1057600090E00E94800100E010E02114310409F073
:1057700099C028962EAD3FAD28972115310519F017
:10578000D90114961C926296BFAD6297B11124C0E4
:10579000EE24E39485E00E94C70EF82E85E00E9477
:1057A000C70E2F2D30E0281B310937FF03C031957C
:1057B00021953109233031050CF081C08A3308F07E
:1057C0007CC09091B406992309F479C0853110F416
:1057D0001092B5061092B4068091B506811186CA62
:1057E0000E942902F5CC1092B50681E08093B8069C
:1057F00020E130E0AE014F5F5F4F6EEB71E080E083
:1058000090E00E943D1A811105C028961FAE1EAE81
:1058100028973AC08D818823C1F39091110191118D
:10582000F4CFEDE0F1E09DE0DF011D929A95E9F7FC
:105830002DE33AE130930E0120930D0124EE3AE17D
:105840003093100120930F0180931101CE0109962E
:105850000E94E50D6093120170931301809314016F
:1058600090931501CE010D960E94E50D60931601EF
:10587000709317018093180190931901EDE0F1E006
:105880002896FFAFEEAF289728964EAD5FAD2897CC
:10589000452BB1F514C584E690E00E9480012114E7
:1058A000310419F0D1011D921C920115110509F462
:1058B00060CFF801118210825CCFE092B406EFE372
:1058C000FCE93197F1F700C0000064CFEDE0F1E0B2
:1058D0008DE0DF011D928A95E9F78DE39AE19093BF
:1058E0000E0180930D0184EE9AE190931001809354
:1058F0000F018FEF809311012896FFAFEEAF28972D
:1059000080911A0190911B01892B09F028CF82E226
:10591000EAE1F1E0DF011D928A95E9F72896EEAD04
:10592000FFAD2897F0931B01E0931A0185809680C4
:10593000A780B084A501940189E0220F331F441F82
:10594000551F8A95D1F72F962CAF3DAF4EAF5FAF65
:105950002F97CA01B901655F7F4F8F4F9F4F01900D
:10596000F081E02D25E230E0AE014F5F5F4F0995F9
:10597000882309F4F0CE7A800981DD80FC805B8188
:1059800060965FAF60974E80C884EF806A84198507
:105990008D8590E0982F88272C85BC01622B2B9653
:1059A0007FAF6EAF2B97CE0146960E94E50D4B015F
:1059B0005C01CE014A960E94E50D9B01AC01CE012F
:1059C0008296A3962FAFA397A4963FAFA497A596D0
:1059D0004FAFA597A6965FAFA6970E94E50DA2963A
:1059E0006CAF7DAF8EAF9FAFA297A3962FADA3975D
:1059F000A4963FADA497A5964FADA597A6965FAD8B
:105A0000A69781149104A104B10449F4812E912C2C
:105A100096288114910409F49ECEA12CB12C2B96CA
:105A20008EAD9FAD2B97009709F48FCE9C0140E07F
:105A300050E010E017296E2D70E0DB01BC296E9656
:105A4000BFAFAEAF6E978F2D90E0FC01FD296C9635
:105A5000FFAFEEAF6C97512C612C712CC301B201DA
:105A60000E94AF3466966CAF7DAF8EAF9FAF6697E6
:105A700075016401CE1ADF0AE108F108C61AD70AD7
:105A8000E80AF90A9801215031096E968EAD9FAD52
:105A90006E97A5E0880F991FAA95E1F7820F931FD3
:105AA000B8010E94CB34A7019601261B370B410990
:105AB0005109CA01B90160963FAD6097C32ED12C40
:105AC000E12CF12CA70196010E94DF3469017A01D3
:105AD00045EFC4164FE0D406E104F10408F43BCED0
