:100000000C94A0000C94BD000C94BD000C94BD0099
:100010000C94BD000C94BD000C94BD000C94E90040
:100020000C94BD000C94BD000C94BD000C9466179C
:100030000C94BD000C94BD000C94BD000C94BD004C
:100040000C9438170C94BD000C9478190C94C419B6
:100050000C94BD000C94BD000C94BD000C94BD002C
:100060000C94BD000C94BD00882B8B2B902B992BEE
:10007000A22BB32BC42BD52BE62BEF2BF82B012C6B
:10008000092C312E31732E32303137303731370071
:100090007E00200020007E0020007E007E002000E8
:1000A00020007E00414C524D00484F4D45004D41CF
:1000B0004E4C0050415553002052554E0049444C7F
:1000C00045002052554E004F52474E0046494C4580
:1000D00000554152540053414645004C4F4646009E
:1000E000592020202020302E303030200058202071
:1000F000202020302E30303020006572726F723A2E
:10010000004E6F20552D6469736B2066696C6573B2
:100110002100556E6B6E6F776E20534420636172C1
:10012000642100496E7365727420534420636172C8
:100130006421000A006572726F723A006F6B0000F2
:1001400011241FBECFEFD8E0DEBFCDBF11E0A0E08D
:10015000B1E0EEE3F7E702C005900D92A430B107DD
:10016000D9F727E0A4E0B1E001C01D92A53BB2079A
:10017000E1F70E940D260C949D3B0C9400005A98C8
:10018000289A87B1807F87B9449A85E08A95F1F7EC
:10019000000096B1449885E08A95F1F70000449AF2
:1001A00085E08A95F1F7000026B12F70892F82959E
:1001B000807F4498822B089593B192708091A60617
:1001C00080FD02C082E0982781E0911101C080E0AB
:1001D00008951F920F920FB60F9211248F939F9341
:1001E0008091BB0191E0980F9093BB01853638F068
:1001F0008091B20681608093B2061092BB019F91FC
:100200008F910F900FBE0F901F901895449A85E024
:100210008A95F1F70000449808951F93CF93DF93D8
:100220001F92CDB7DEB7662311F05A9A01C05A98D3
:10023000289897B19F6097B998B1192F107F982F80
:1002400092959F70912B98B989830E9406018981AC
:100250008F70812B88B90E9406011F6018B90F901A
:10026000DF91CF911F910895CF93C82F0E94BF00B7
:1002700087FDFCCF85E18A95F1F7000061E08C2FC6
:10028000CF910C940D010F931F93CF93DF93082F01
:10029000EC011C2F101B8991882341F09FE9980FD6
:1002A0009A3108F480520E943401F3CF1C3028F4B4
:1002B00080E20E9434011F5FF9CFDF91CF911F913F
:1002C0000F910895CF93DF93FC018491EF01219664
:1002D000882321F00E943401FE01F7CFDF91CF91F6
:1002E0000895CF93C82F0E94BF0087FDFCCF85E102
:1002F0008A95F1F7000060E08C2FCF910C940D01EE
:100300001F93CF93DF93C82F81E00E94710180E893
:100310000E947101C53639F0C63661F0C43669F401
:1003200083E291E002C082E191E0DF91CF911F91E1
:100330000C94620181E091E0F8CF8AEF90E00E9496
:100340006201C43640F08C2F6AE00E945D3AD0E32F
:10035000D90FC82F03C0D0E0CA3040F08C2F6AE01C
:100360000E945D3A10E3190FC82F01C010E080E32E
:100370008C0F0E943401112319F0812F0E94340147
:10038000DD2331F08D2FDF91CF911F910C9434013B
:10039000DF91CF911F9108958CEC0E9471018091A3
:1003A000A906883011F0803189F48091AB06811163
:1003B00003C081ED90E013C0813019F48CEC90E023
:1003C0000EC0823071F487EC90E009C08091B006D5
:1003D000811103C08BED90E002C086ED90E00C949B
:1003E000620108958091A9069091AA06891781F16A
:1003F0008093AA068CE80E9471018091A90684303E
:1004000009F138F4882371F0813001F584EA90E035
:100410001BC0803151F0803291F08830B9F482EC09
:1004200090E012C08DEB90E00FC08091B106882360
:1004300019F088EB90E008C083EB90E005C08EEAED
:1004400090E002C089EA90E00E9462010C94CC0125
:100450000895E4E0F1E01082118212821382148286
:1004600015821682178280E80E9471018DEE90E05D
:100470000E94620180EC0E94710180EE90E00E9477
:10048000620182E08093AA060E94F20181E08093DB
:10049000B20608952F923F924F925F926F927F9291
:1004A0008F929F92AF92BF92CF92DF92EF92FF9284
:1004B0000F931F93CF93DF93CDB7DEB760970FB63F
:1004C000F894DEBF0FBECDBF30EF232E33E0332EC6
:1004D00088EE93E09C878B87E0E8F6E0FA87E9876F
:1004E00044E0E42E41E0F42E10E05AE0452E512C79
:1004F000612C712C60E2C62EF10181919191A19144
:10050000B1911F01EB85FC8581909190A190B190F4
:10051000FC87EB87E985FA852191319141915191D1
:10052000FA87E987BC01CD01681979098A099B0915
:100530002D873E874F87588B0E943B382D853E85FF
:100540004F8558890E9491374B015C01F70120814A
:100550003181428153810E948C37811108C0F4E0BF
:10056000EF0EF11C113009F47FC011E0C5CFF70187
:1005700080829182A282B38220E030E0A901C5018D
:10058000B4010E948C3787FF07C0B7FAB094B7F860
:10059000B094DD24D39401C0D12C20E030E04AE7B0
:1005A00054E4C501B4010E94643920E030E040E029
:1005B0005FE30E9409370E94033800E0611571056E
:1005C0008105910591F0AA24A394B12CAC0EBD1E17
:1005D000A00EB11CA30192010E947D3A605DF5015D
:1005E0006083B901CA010F5FE9CF033050F4E1E045
:1005F000F0E0EC0FFD1FE00FF11D80E380830F5F43
:10060000F4CF033019F490E39C8304E0DD2049F03B
:10061000E1E0F0E0EC0FFD1FE00FF11D8DE28083C3
:100620000F5F083040F4E1E0F0E0EC0FFD1FE00F59
:10063000F11DC082F5CF111102C082E801C082EC29
:100640000E947101033039F4111102C088E801C021
:1006500088EC0E947101FE01E00FF11D80810E9473
:100660003401015079F77BCF60960FB6F894DEBF66
:100670000FBECDBFDF91CF911F910F91FF90EF90F3
:10068000DF90CF90BF90AF909F908F907F906F90B2
:100690005F904F903F902F9008952F923F924F92EE
:1006A0005F926F927F928F929F92AF92BF92CF9202
:1006B000DF92EF92FF920F931F93CF93DF93CDB70B
:1006C000DEB768970FB6F894DEBF0FBECDBF94E6D5
:1006D0009093AF061092960710929E070091A6067F
:1006E000027026E837E0388F2F8B90E8292E96E0AD
:1006F000392E41EA57E05E834D83A8EEB3E0B88B14
:10070000AF871A8A198A12E0282F30E040E050E0C3
:100710002B8B3C8B4D8B5E8B8091A80690E00988DB
:1007200002C0959587950A94E2F780FFAEC0AD812F
:10073000BE818D919D910D90BC91A02D8B879C8742
:10074000AD87BE87AF85B8892D913D914D915C9164
:100750002F83388749875A87D1012D913D914D913B
:100760005C9129833A834B835C836B857C858D8583
:100770009E852F81388549855A85621B730B840BB2
:10078000950B0E943B3829813A814B815C810E9404
:1007900091372B013C0120E030E040E251E40E941F
:1007A00064390E94D1396B017C016B897C898D8908
:1007B0009E890E943B3820E030E040E251E40E94F4
:1007C00091374B015C0120E030E040E251E4C70189
:1007D000B6010E949137A50194010E9409376B016F
:1007E0007C01A30192010E9408372B013C012AE001
:1007F00037ED43E25CE3C501B4010E9409379B0178
:10080000AC01C301B2010E942C39181644F4A501B1
:100810009401C701B6010E9408376B017C01298150
:100820003A814B815C81C701B6010E9464390E9404
:100830003139CF80D884E984FA84C60ED71EE81EE9
:10084000F91EAF89B88DCD92DD92ED92FC9213978F
:10085000002309F4D4C0F101208D318D428D538DD8
:1008600069817A818B819C810E9464390E9431392F
:100870006C157D058E059F050CF0C1C02B853C8550
:100880004D855E85AF89B88DA7C08091A80690E0A0
:1008900029893A892E5F3F4F02C0959587952A9501
:1008A000E2F780FF9FC0AD81BE812D913D914D91BA
:1008B0005C912B873C874D875E87AF85B8892D91EA
:1008C0003D914D915C9129833A834B835C83D101A7
:1008D0002D913D914D915C912F83388749875A879F
:1008E0006B857C858D859E8529813A814B815C81D4
:1008F000621B730B840B950B0E943B382F8138854C
:1009000049855A850E9491372B013C0120E030E057
:1009100040E251E40E9464390E94D1396B017C01AC
:100920006B897C898D899E890E943B3820E030E06C
:1009300040E251E40E9491374B015C0120E030E03D
:1009400040E251E4C701B6010E949137A50194012C
:100950000E9408376B017C01A30192010E940837B5
:100960002B013C012AE037ED43E25CE3C501B40111
:100970000E9409379B01AC015058C301B2010E948B
:100980008C3787FF08C0A5019401C701B6010E94FA
:1009900009376B017C012F81388549855A85C7014C
:1009A000B6010E9464390E94313929813A814B8114
:1009B0005C81260F371F481F591FEF89F88D208350
:1009C0003183428353830023D1F057FF18C02B8516
:1009D0003C854D855E85DF012D933D934D935C9362
:1009E00013970CC0ED81FE8180819181A281B3813A
:1009F000EF89F88D80839183A283B38311502F896F
:100A0000388D2C5F3F4F388F2F8B34E0230E311CF5
:100A10004D815E814C5F5F4F5E834D838F859889EA
:100A20000496988B8F87A989BA89119729F041E09C
:100A300050E05A8B498B70CE612F70E080E090E0DF
:100A40000E9439380E94FB3920E030E84BE355E43E
:100A50000E94643960939A0770939B0780939C0768
:100A600090939D078090880690908906A0908A06B2
:100A7000B0908B0620E030E046E154E4C501B401BB
:100A80000E948C3787FD28C0C0908C06D0908D06C0
:100A9000E0908E06F0908F0620E030E046E154E4CE
:100AA000C701B6010E948C3787FD16C020E030E0F8
:100AB00046E954E4C501B4010E948C3787FD0EC09D
:100AC00020E030E046E954E4C701B6010E948C37CB
:100AD00087FD04C01AE003C011E001C015E0809159
:100AE0007F069091F903891708F4815F891B181715
:100AF00048F40E94F91B0E944E248091AC06882382
:100B000071F330C00E94F3208091A90681112AC0A0
:100B10008091B20681608093B2061092AE060E9468
:100B20003624892BF9F080E28093A9060E94F10E09
:100B300068960FB6F894DEBF0FBECDBFDF91CF91A0
:100B40001F910F91FF90EF90DF90CF90BF90AF90EB
:100B50009F908F907F906F905F904F903F902F90DD
:100B60000C944E1768960FB6F894DEBF0FBECDBF3B
:100B7000DF91CF911F910F91FF90EF90DF90CF9079
:100B8000BF90AF909F908F907F906F905F904F90AD
:100B90003F902F9008954F925F926F927F928F9225
:100BA0009F92AF92BF92CF92DF92EF92FF920F93FC
:100BB0001F93CF93DF93CDB7DEB72D970FB6F89481
:100BC000DEBF0FBECDBF8C01FF24F394F986FC017C
:100BD0008081873409F4DAC064F4833409F468C38B
:100BE00024F484538430A0F0EAC4843409F40DC2A0
:100BF000E6C48D3409F470C224F4893409F4A9C21E
:100C0000DEC48E3409F490C2803509F466C1D7C4BD
:100C1000AE014F5F5F4FBE01675F7F4FC8010E940B
:100C2000F624882309F4CCC2F8018081873309F4C3
:100C300069C02091800630918106409182065091D2
:100C4000830669817A818B819C810E9464390E942C
:100C50003139C090E803D090E903E090EA03F090C6
:100C6000EB03DC01CB018C0D9D1DAE1DBF1D8093E0
:100C7000860790938707A0938807B0938907F801A8
:100C80008081863321F589858F5F89874AE957E01E
:100C9000BE01675F7F4FC8010E94F624882309F4D4
:100CA0008FC225EC30E240E85FE360919A077091D3
:100CB0009B0780919C0790919D070E9464396093E7
:100CC0009A0770939B0780939C0790939D07898553
:100CD000F801E80FF11D90819C32D1F58F5F898773
:100CE00046E957E0BE01675F7F4FC8010E94992522
:100CF000882309F465C2F8018081853349F5109293
:100D0000990726C020918406309185064091860679
:100D10005091870669817A818B819C810E94643918
:100D20000E943139C090EC03D090ED03E090EE03C7
:100D3000F090EF03DC01CB018C0D9D1DAE1DBF1D9E
:100D400080938A0790938B07A0938C07B0938D07AD
:100D50008985F801E80FF11D80818B3309F02FC4DC
:100D6000F80180818553823058F410929E0780816B
:100D7000853309F01DC49091990781E0892703C04C
:100D800081E080939E078093990712C4F8018181C6
:100D9000863469F470E8E72E76E0F72EE8EEAE2EA2
:100DA000E3E0BE2EF6E8CF2EF7E0DF2E29C0823535
:100DB00009F005C4EFCFF701619171918191919193
:100DC0007F0129813A814B815C810E9464390E94B4
:100DD0003139F50141905190619071905F01DC01D2
:100DE000CB01840D951DA61DB71DF601819391932E
:100DF000A193B1936F01F8E8EF16F6E0FF0679F0E2
:100E000089858F5F8987AE014F5F5F4FBE01675F46
:100E10007F4FC8010E94F6248111CDCFD1C18985B1
:100E2000F801E80FF11D80818B3309F0C8C3F80188
:100E30008181863409F092C080919E0780FD03C0B5
:100E400010929E07B5C30E94E6248091AC068111E2
:100E5000BEC380E18093A9066091970770919807BF
:100E600080E090E00E9439382AE037ED43EA5CE305
:100E70000E9464390E9475376B017C0120E030E0EC
:100E800040E85FE30E948C3787FD05C0C701B601CB
:100E90000E940A3801C061E06093B1068091960714
:100EA0000E9458178091B106882351F20E94F91BC5
:100EB0000E944E248091AC06811189C3FFEF20E788
:100EC00082E0F15020408040E1F700C000008091B6
:100ED000B10681508093B106E5CFF8018181843459
:100EE00009F040C058EEE52E53E0F52E66E8C62E18
:100EF00067E0D62E89858F5F8987AE014B5F5F4F94
:100F0000BE01675F7F4FC8010E949925882309F4BD
:100F100057C1F70181919191A191B1917F014D81CB
:100F20005E816F817885840F951FA61FB71FF6011C
:100F300081939193A193B1936F01F0EFEF16F3E0DA
:100F4000FF06C1F68985F801E80FF11D80818B331A
:100F500009F035C3F8018181843441F081E0809348
:100F60009E0726C3853509F02AC3BCCF80919E0712
:100F700080FF66CF0E94E6248091AC06811127C3D2
:100F800080E18093A906609197077091980780E0AF
:100F900090E00E9439382AE037ED43EA5CE30E9492
:100FA00064390E9475376B017C0120E030E040E835
:100FB0005FE30E948C3787FD05C0C701B6010E9420
:100FC0000A3801C061E06093B106809196070E94E3
:100FD00058178091B106882309F432CF0E94F91B7B
:100FE0000E944E248091AC068111F1C2FFEF20E7F0
:100FF00082E0F15020408040E1F700C00000809185
:10100000B10681508093B106E4CFF8018181873524
:1010100009F0D5C282E08987AE014B5F5F4FBE0108
:10102000675F7F4FC8010E949925882309F4C8C0D3
:101030008985F801E80FF11D80818B3309F0BFC26B
:101040000E94E6248091AC068111C1C280E18093A8
:10105000A9066D817E818F8198850E943B382AE0A8
:1010600037ED43EA5CE30E9464390E9475376B01F7
:101070007C0120E030E040E85FE30E948C3787FD90
:1010800005C0C701B6010E940A3801C061E0609343
:10109000B106809196070E9458171091B10611234E
:1010A000B9F00E94F91B0E944E248091AC06811178
:1010B0008EC2FFEF20E782E0F15020408040E1F750
:1010C00000C000008091B10681508093B106E5CF49
:1010D00080E00E9458177CC2F8018181803309F0BA
:1010E0006EC282818B3309F06AC20E94E62480912D
:1010F000AC0681116CC280E18093A9068FEF8093CA
:10110000B4008091B00080628093B000F092B0068D
:101110008091A906803109F05AC20E94DD24809195
:10112000AC068823A9F353C2F8018181893409F000
:1011300046C282818B3309F042C20E94E62410919C
:10114000AC06111144C280E00E9458170E94CC01E5
:101150003FC2F80181818E3409F031C2F0929E07BE
:1011600082818B3309F58091E8039091E903A09186
:10117000EA03B091EB038093860790938707A093CF
:101180008807B09389078091EC039091ED03A091BB
:10119000EE03B091EF0380938A0790938B07A0939F
:1011A0008C07B0938D0704C282E089874AE957E033
:1011B000BE01675F7F4FC8010E94F624811102C003
:1011C00012E006C225EC30E240E85FE360919A0746
:1011D00070919B0780919C0790919D070E946439B4
:1011E00060939A0770939B0780939C0790939D0749
:1011F00089858F5F8987AE014B5F5F4FBE01675F57
:101200007F4FC8010E9499258823D1F28D818233B6
:1012100008F482E38093AF0689858F5F898746E96A
:1012200057E0BE01675F7F4FC8010E949925882360
:1012300039F289858F5F898747E957E0BE01675F8B
:101240007F4FC8010E949925882309F4B9CF898569
:10125000F801E80FF11D80818B3309F0B0C1809156
:10126000A1079091A207A091A307B091A407809332
:10127000860790938707A0938807B093890780918A
:10128000A5079091A607A091A707B091A807809302
:101290008A0790938B07A0938C07B0938D0781E00A
:1012A0008093990780E00E9458170E94CC018FC15B
:1012B000F80181818C3409F082C18091A60681FFFA
:1012C0005CC182E08987AE014B5F5F4FBE01675F03
:1012D0007F4FC8010E949925882309F4BFC04D8122
:1012E0005E816F8178858091E8039091E903A091F8
:1012F000EA03B091EB036A017B01C80ED91EEA1E16
:10130000FB1EC701B6010E943B3820918006309138
:10131000810640918206509183060E94913720E019
:1013200030E040E05FEB0E948C3787FF02C01AE09C
:101330004FC189858F5F8987AE014B5F5F4FBE01CB
:10134000675F7F4FC8010E949925882309F438CF31
:101350004D815E816F8178858091EC039091ED03E2
:10136000A091EE03B091EF036A017B01C80ED91E74
:10137000EA1EFB1EC701B6010E943B38209184067D
:101380003091850640918606509187060E949137DC
:1013900020E030E040E05FEB0E948C3787FDC7CF54
:1013A00038EEC32E33E0D32E40E8E42E46E0F42E90
:1013B00089858F5F8987AE014B5F5F4FBE01675F95
:1013C0007F4FC8010E949925882309F4F9CEF601C0
:1013D00081909190A190B1906F01F701219131918D
:1013E000419151917F018D819E81AF81B885BC0172
:1013F000CD01680D791D8A1D9B1D2A873B874C876F
:101400005D870E943B382A853B854C855D850E941F
:1014100091374B015C0120E030E040E05FE3F701F1
:1014200064897589868997890E9409379B01AC0177
:10143000C501B4010E942C3918160CF478CFF8E8D5
:10144000EF16F6E0FF0609F0B3CF8985F801E80F43
:10145000F11D80818B3309F0B2C0B9C0F98698EED6
:10146000A92E93E0B92E20E8E22E26E0F22E4701C5
:10147000650189858F5F8987AE014F5F5F4FBE0130
:10148000675F7F4FC8010E94F624882309F498CE35
:10149000F60161917191819191916F01F401219116
:1014A0003191419151914F012A873B874C875D874C
:1014B0000E943B382A853B854C855D850E9491378B
:1014C00029813A814B815C810E94093720E030E01C
:1014D00040E05FEB0E948C3787FD29CFF0EFCF16FD
:1014E000F3E0DF0631F689858F5F8987AE014F5FB4
:1014F0005F4FBE01675F7F4FC8010E94F6248823BB
:1015000009F45ECEF50161917191819191915F0134
:10151000F70121913191419151917F012A873B87B8
:101520004C875D870E943B382A853B854C855D85CD
:101530000E94913729813A814B815C810E94093751
:101540002B013C0120E030E040E05FE3F7016489DB
:101550007589868997890E9409379B01AC01C3016F
:10156000B2010E942C3918160CF4E1CEF8E8EF16FF
:10157000F6E0FF0609F469CFB6CF84E0F82E89853E
:101580008F5F8987AE014F5F5F4FBE01675F7F4FFF
:10159000C8010E94F624882309F412CEFA94F110AF
:1015A000EECF53CF0E94DD248091AC0681110FC095
:1015B0009091F90380918507981303C0F3CF14E14C
:1015C00007C00E94F3200E9446240E94DD2410E000
:1015D000812F2D960FB6F894DEBF0FBECDBFDF91E1
:1015E000CF911F910F91FF90EF90DF90CF90BF9020
:1015F000AF909F908F907F906F905F904F900895E5
:10160000FC01892B61F080899189A289B38980A32B
:1016100091A3A2A3B3A315A214A281E0089580E030
:101620000895009769F16115710551F1FB01258558
:1016300024FF26C02091950130919601232B01F5BE
:101640002EE1FB01A7E9B1E001900D922A95E1F7A7
:101650009093960180939501FB0186859785A089DB
:10166000B1898093B5019093B601A093B701B0936F
:10167000B8011092BA011092B90185E991E008957C
:1016800080E090E008956F927F928F929F92AF9248
:10169000BF92CF92DF92EF92FF920F931F93CF935F
:1016A000DF9300D000D0CDB7DEB74C01892B09F411
:1016B00077C0423051056105710508F471C0CB0156
:1016C000BA01D401ED91FC912481608071802B30AE
:1016D00089F524E030E040E050E00E94093BF4014D
:1016E000A284B384C484D584E684F78400891189F4
:1016F0000E94523BF4E0EF2EF12C8E010F5F1F4F42
:10170000F3010995882309F44BC009811A812B81C3
:101710003C81011511052105310509F441C0D901AC
:10172000C801805F9F4FAF4FBF404097A105B105F3
:10173000A0F536C022E030E040E050E00E94093BD6
:10174000D4011A96AC901A971B96BC901B971C96C6
:10175000CC901C971D96DC901D971E96EC901E97C2
:101760001F96FC901F9750960C91509751961C9184
:101770000E94523BE2E0EE2EF12C8E010F5F1F4FD4
:10178000F3010995882361F089819A818C0120E019
:1017900030E001978F3E9F4F18F4B801C90104C093
:1017A00060E070E080E090E00F900F900F900F905D
:1017B000DF91CF911F910F91FF90EF90DF90CF902D
:1017C000BF90AF909F908F907F906F9008952F92D1
:1017D0003F924F925F926F927F928F929F92AF92C1
:1017E000BF92CF92DF92EF92FF920F931F93CF930E
:1017F000DF93CDB7DEB7E9970FB6F894DEBF0FBE23
:10180000CDBF009719F16115710501F199AB88AB56
:10181000DC012D903C90D10158960D90BC91A02DEB
:10182000BBABAAABDC0190964D905D906D907C9027
:10183000939794968D919C9195972AA93BA982178D
:10184000930730F088A999A90E94000B80E005C198
:10185000AE014F5D5F4F25E0DA011D922A95E9F751
:101860002EE1DB011D922A95E9F77AA369A34114C1
:1018700051046104710409F090C0D101ED91FC9113
:10188000119724812B3039F49A964D905D906D908C
:101890007C909D9782C0F101428D538D22A133A18E
:1018A000BA01621B730B7BAB6AAB77C08DA1811150
:1018B000C5C08AA99BA9AEA5BFA58A1B9B0B9DABE2
:1018C0008CAB9D0140E050E060E070E0CB01AEA346
:1018D0003FA348A759A76AA77BA78CA79DA7411438
:1018E00051046104710409F065C040E050E060E01B
:1018F00070E080E090E0D1019296AC909297939640
:10190000BC9093979496CC9094979596DC909597ED
:101910009696EC9096979796FC90979798960C9140
:10192000989799961C910E94523B1CA21BA2D10130
:10193000ED91FC910280F381E02DDE0191964D0145
:10194000A7E0AA2EAEE0BA2ECCA8DDA8B0E2EB2E1E
:10195000F12C8E010F5F1F4F0995882309F476CF74
:101960008BA19CA1EEA5FFA5E80FF91FFFA7EEA78D
:101970002AA93BA9E217F30708F498CFB301A20103
:10198000C1010E94430B2B013C0180E090E0411417
:1019900051046104710409F44DC09FA78EA7B301DF
:1019A000A20142505109610971094EAB5FAB68AFAA
:1019B00079AF7CCF2114310461F1B2E04B165104B0
:1019C0006104710430F1F101208D318D40E050E06F
:1019D0006EA97FA988AD99AD0E94093BD1015A96A5
:1019E000AC905A975B96BC905B975C96CC905C975A
:1019F0005D96DC905D975E96EC905E975F96FC90AE
:101A00005F9790960C91909791961C910E94523BF3
:101A100008C020E030E040E050E060E070E080E0AE
:101A200090E0AEA0BFA0C8A4D9A4EAA4FBA40CA5D2
:101A30001DA579CF8DA1882309F404CFA8A9B9A940
:101A400090964D925D926D927C929397EEA5FFA534
:101A50009596FC93EE9394978DA1E9960FB6F89422
:101A6000DEBF0FBECDBFDF91CF911F910F91FF90D1
:101A7000EF90DF90CF90BF90AF909F908F907F902E
:101A80006F905F904F903F902F900895F894F99940
:101A9000FECF92BD81BD81E08FBB80B58627482FE8
:101AA000082E000C550B262F30E024233523232B42
:101AB00039F06F3F19F060BD84E006C084E104C0D6
:101AC000882321F060BD84E28FBBF99A7894089551
:101AD0008F929F92AF92BF92CF92DF92EF92FF923E
:101AE0000F931F93CF937C014A016B01C40ED51E47
:101AF0008B01C0E05C01A61AB70AC8018A0D9B1DC4
:101B00000C151D0599F0C11108C02C2FCC0F330BFB
:101B1000232F221F2227221F01C021E0F8016191FB
:101B20008F01C22FC60F0E94460DE7CF6C2FC70151
:101B3000880D991DCF911F910F91FF90EF90DF902D
:101B4000CF90BF90AF909F908F900C94460DF999D5
:101B5000FECF92BD81BD81E08FBB80B508958F928D
:101B60009F92AF92BF92CF92DF92EF92FF920F932C
:101B70001F93CF934B017A016C01C40ED51E8C01CB
:101B8000C0E05B01A81AB90AC501800F911F0C15AE
:101B90001D0599F00E94A70DC11108C02C2FCC0F74
:101BA000330B232F221F2227221F01C021E0C22F27
:101BB000C80FF80181938F01E7CFC4018E0D9F1DDF
:101BC0000E94A70D21E030E0C81711F020E030E0BE
:101BD000C901CF911F910F91FF90EF90DF90CF90AF
:101BE000BF90AF909F908F900895FC0123816281F8
:101BF000862F90E0A0E0B0E0DC0199278827B22B87
:101C00002081822B2181BC01CD01722B0895EF929E
:101C1000FF920F931F93CF93DF93FC01D701CD91D8
:101C2000DC91119712968D919C9113978096139643
:101C30009C938E9312978081853E09F48DC08823F2
:101C400009F48AC083858F3009F486C08EE1DE01F5
:101C50001D928A95E9F70E8B1F8B288F398F4A8F3B
:101C60005B8F6C8F7D8F9F01BE0190E0D9018C91BD
:101C70008032A1F0DB018C93448543FF08C0D90179
:101C80004C9141544A3118F4805EDB018C939F5F84
:101C90002F5F3F4F6F5F7F4F983041F788818530CE
:101CA00011F485EE88838085803221F1DE01A90F51
:101CB000B11D8EE28C93BF01685F7F4F34E0390F16
:101CC0009F5FDB018C918032A9F0AE01490F511D5D
:101CD000DA018C93248524FF08C0DB012C91215468
:101CE0002A3118F4805EDA018C939F5F6F5F7F4F1B
:101CF0009313E7CFDE01A90FB11D1C9283858D8759
:101D0000838D90E0982F8827228D822BA0E0B0E071
:101D10008E879F87A88BB98B458950E0542F442725
:101D20002489422B60E070E0BA0155274427842BB8
:101D3000952BA62BB72B8E879F87A88BB98BCF01AE
:101D40004C960E94F50D6A8B7B8B8C8B9D8B81E072
:101D5000F701848380E001C081E0DF91CF911F9182
:101D60000F91FF90EF900895EFE6F0E080818D7F76
:101D70008083E1E8F0E08081887F81608083109239
:101D8000CC0608958EBD0DB407FEFDCF8DB58F77BF
:101D90008DBD08952FB7F8949091B2068095892350
:101DA0008093B2062FBF08952FB7F8949091B20692
:101DB000892B8093B2062FBF089587708066809329
:101DC0007C0085E08A95F1F7000080917A008064BC
:101DD00080937A0080917A0086FDFCCF8091790013
:101DE00008952F923F924F925F926F927F928F92BF
:101DF0009F92AF92BF92CF92DF92EF92FF920F939A
:101E00001F93CF93DF93CDB7DEB7C554D1090FB67B
:101E1000F894DEBF0FBECDBF8091AE0680FD94C7A3
:101E200020917F062EAB3BE2239FC0011124AC0121
:101E300046505C4F22965FAF4EAF2297F091F90368
:101E4000FFABFF5FF98FFF3011F418AE02C0298D90
:101E500028AF3BE248AD349FC0011124DC01A85FEC
:101E6000BB4F2496BFAFAEAF24979091E706809109
:101E7000E806981709F468C7809183079091840752
:101E8000892B09F0F7C21091AE06512F5470F52E30
:101E900012FF05C022968EAD9FAD229702C00E9410
:101EA00036249093840780938307C0908307D09053
:101EB0008407C114D10409F447C7E0905807012FE3
:101EC0000270EE2DE170E0FE03C010925807BBC017
:101ED000809157078F5F853009F0E82FE09357070F
:101EE0009DE09E9FF0011124EA5EF84FF0931507E4
:101EF000E0931407D6011C968C911C9784874D9112
:101F00005D916D917C91DB01CA0123E0880F991FDF
:101F1000AA1FBB1F2A95D1F780839183A283B38325
:101F2000D60114964D915D916D917C911797DB01CF
:101F3000CA0133E0880F991FAA1FBB1F3A95D1F73A
:101F400084839583A683B783D60118964D915D91BE
:101F50006D917C911B97DB01CA0143E0880F991FAB
:101F6000AA1FBB1F4A95D1F780879187A287B387A5
:101F7000F60160857185828593850E94393860936A
:101F80005D0770935E0780935F0790936007D601AB
:101F90005A962D913D914D915C915D970E9491379C
:101FA0009B01AC01609361077093620780936307A4
:101FB0009093640760E070E080EA9FE30E949137AD
:101FC000609365077093660780936707909368072F
:101FD0001092590710925A0710925B0710925C07F3
:101FE000011102C0E2FE1EC0609176077091770772
:101FF000809178079091790760936E0770936F07CF
:1020000080937007909371079B01AC010E94643923
:10201000F60166877787808B918B8E2D8B7F8093DF
:10202000580711C0D6011E966D917D918D919C919E
:1020300051970E94FB3960936E0770936F078093EE
:1020400070079093710710926A0710926B071092B5
:102050006C0710926D07D60156962D913D914D91CA
:102060005C91599729833A834B835C8360E070E0ED
:1020700080E09FE30E9491376D837E838F839887F2
:10208000F601428C538C648C758C002309F44BC090
:10209000F2E0F0936907D6011E96CD90DD90ED90A9
:1020A000FC905197A70196010E9464399B01AC01F5
:1020B000C301B2010E9408374B015C0120E030E00F
:1020C000A9010E948C3787FF1DC029813A814B816D
:1020D0005C81CA01B9010E940937A30192010E94E3
:1020E00064399B01AC01C701B6010E9408370E9408
:1020F000FB39609376077093770780937807909306
:102100007907B5C180926A0790926B07A0926C071D
:10211000B0926D07109276071092770710927807A9
:1021200010927907A4C11092690740927A075092E1
:102130007B0760927C0770927D07FF2069F0109208
:102140007607109277071092780710927907198610
:102150001A861B861C8623C0B8ADEEA9BE1769F08F
:102160002496AEADBFAD24972D913D914D915C91DC
:1021700029873A874B875C8704C019861A861B8695
:102180001C8669857A858B859C850E94FB396093C6
:102190007607709377078093780790937907C60145
:1021A0000E949D20698B7A8B8B8B9C8B9B01AC0151
:1021B0000E9464394B015C01D6011E962D913D9120
:1021C0004D915C9151972D873E874F87588B9B018E
:1021D000AC016D857E858F8598890E942C391816F3
:1021E0000CF075C0A50194016D857E858F85988959
:1021F0000E9408379B01AC016D817E818F8198859B
:102200000E9464399B01AC01C301B2010E940837EE
:1022100060937A0770937B0780937C0790937D0788
:1022200020E030E0A9010E948C37181644F1B2E09A
:10223000B093690729813A814B815C81CA01B90158
:102240000E940937A30192010E9464399B01AC01ED
:10225000F60166857785808991890E9408370E94FA
:10226000FB39609376077093770780937807909394
:10227000790780915807846080935807F8C02985B2
:102280003A854B855C85C501B4010E9408379B01E6
:10229000AC016D817E818F8198850E946439609345
:1022A0007E0770937F078093800790938107298929
:1022B0003A894B895C892093720730937307409366
:1022C00074075093750733E030936907D0C02985B0
:1022D0003A854B855C856D857E858F8598890E94C2
:1022E00008379B01AC016D817E818F8198850E94AA
:1022F00064399B01AC01C301B2010E94093720E09F
:1023000030E040E05FE30E9464396B017C0120E033
:1023100030E0A9010E942C3918160CF090C0A301DE
:102320009201C701B6010E948C3787FF84C02985BE
:102330003A854B855C85C501B4010E9408379B0135
:10234000AC016D817E818F8198850E946439609394
:102350007E0770937F078093800790938107A70182
:1023600096010E948C3787FF39C089899A89AB8989
:10237000BC898093720790937307A0937407B093FE
:102380007507A50194016D857E858F8598890E94CA
:102390008C37811104C091E09093690768C02D8546
:1023A0003E854F855889C501B4010E9408379B01BD
:1023B000AC016D817E818F8198850E9464399B017B
:1023C000AC01C301B2010E94083760937A07709391
:1023D0007B0780937C0790937D0749C0C0927A0762
:1023E000D0927B07E0927C07F0927D07C0927E0737
:1023F000D0927F07E0928007F092810729813A818D
:102400004B815C81CA01B9010E940937A70196017D
:102410000E94643929853A854B855C850E9409377D
:102420000E94FB396093720770937307809374075F
:10243000909375071CC0A2E0A093690718C0109282
:102440007A0710927B0710927C0710927D0780918B
:10245000760790917707A0917807B09179078093DC
:10246000720790937307A0937407B0937507186071
:102470001093AE0680911307E82FF0E0FA87E98702
:1024800047E09F01429FF001439FF00D1124E75167
:10249000F94F809157078483809183079091840737
:1024A0009E838D83DC015A96BC91BEA3FC01F38D03
:1024B000FFA3DC015C96BC91B8A7FC01F58DF9A7E0
:1024C0002091650730916607409167075091680732
:1024D0006EA17FA18B2F9F2F0E9408376AAB7BAB29
:1024E0008CAB9DAB20E030E0A9010E948C3787FFC8
:1024F00004C01AAA1BAA1CAA1DAA50907A074090D1
:102500007B0720917C072D8730917D07398B409187
:1025100072074A8F509173075B8F809174078C8F7D
:10252000909175079D8FA0917E07AAA7B0917F0714
:10253000BBA7E0918007ECA7F0918107FDA7209150
:102540006907298330906E0720906F0760907007AD
:102550007090710730916A073EA740916B074FA7B3
:1025600050916C0758AB80916D0789AB90917607BD
:1025700099AFA0917707AAAFB0917807BBAFE09170
:102580007907ECAF0EA1FFA12696FFAF269718A5FD
:1025900029A525962FAF25978EE3C82E83ECD82E3C
:1025A0008EE2E82E89E3F82E1D8A1E8A1F8A188E75
:1025B000CE8EDF8EE8A2F9A29981913009F40BC189
:1025C000AD81BE8156962D913D914D915C9159976B
:1025D000913008F480C0933009F03EC1C701B601C4
:1025E0000E9464394B015C0120E030E040E05FE391
:1025F0000E9464399B01AC01632D722DC3010E94BE
:1026000008379B01AC01C701B6010E9464396AA377
:102610007BA38CA39DA39B01AC01602F26967FAD6D
:102620002697812F25969FAD25970E940837062F64
:1026300026967FAF2697182F25969FAF2597252D95
:10264000342D4D8559890E948C3787FD0BC020E0C1
:1026500030E0A9016AA17BA18CA19DA10E948C37C9
:1026600018168CF1252D342D4D8559896EA17FA129
:1026700088A599A50E9408379B01AC010E940937E3
:102680006B017C012A8D3B8D4C8D5D8D632D722DF0
:10269000C3010E9409379B01AC01C701B6010E942A
:1026A00091376B017C013A8C2B8C6C8C7D8C052DC9
:1026B00026964FAE26971D85B9892596BFAF2597DB
:1026C000E1E0E98357C1A5019401632D722DC30197
:1026D0000E9408377CC0C701B6010E9464394B01D3
:1026E0005C0120E030E040E05FE30E9464399B0140
:1026F000AC01632D722DC3010E9409379B01AC010F
:10270000C701B6010E9464399B01AC01602F269677
:102710007FAD2697812F25969FAD25970E9408377C
:10272000062F26967FAF2697182F25969FAF2597C1
:10273000252D342D4D8559890E948C3787FF40C047
:10274000252D342D4D8559896EA17FA188A599A588
:102750000E9408379B01AC010E9409376B017C0184
:102760002A8D3B8D4C8D5D8D632D722DC3010E9492
:1027700009379B01AC01C701B6010E9491376B017B
:102780007C012AA53BA54CA55DA5652D742D8D85E5
:1027900099890E948C37811103C0B2E0B98302C0CD
:1027A000E1E0E9833A8C2B8C6C8C7D8C052D269690
:1027B0004FAE26971D85F9892596FFAF2597DAC07C
:1027C000A5019401632D722DC3010E940937362E95
:1027D000272E3C01CFC0A70196016A8D7B8D8C8D81
:1027E0009D8D0E9464399B01AC01602F26967FADC0
:1027F0002697812F25969FAD25970E9408374B017C
:102800005C012AA53BA54CA55DA50E948C3787FFDE
:10281000A9C02AA53BA54CA55DA5602F26967FAD36
:102820002697812F25969FAD25970E9408372A8DE0
:102830003B8D4C8D5D8D0E9491376B017C010AA50B
:102840002BA526962FAF26971CA53DA525963FAF15
:10285000259742E049838EC0C701B6010E946439C2
:102860004B015C019B01AC01632D722DC3010E94E1
:102870002C3918160CF042C020E030E040E05FE355
:10288000C501B4010E9464399B01AC01632D722D16
:10289000C3010E9408379B01AC01C701B6010E9429
:1028A00064399B01AC01602F26967FAD2697812F5E
:1028B00025969FAD25970E9408376AA37DAF8EAFFE
:1028C0009FAF2EA53FA548A959A90E942C391816DB
:1028D000ACF4A5019401632D722DC3010E94083749
:1028E000362E272E3C010AA1BDAD2696BFAF2697F6
:1028F0001EADEFAD2596EFAF25973CC02EA53FA5A9
:1029000048A959A9602F26967FAD2697812F259635
:102910009FAD25970E9408379B01AC010E940937A3
:102920006B017C0129AD3AAD4BAD5CAD632D722DD1
:10293000C3010E9409379B01AC01C701B6010E9487
:1029400091376B017C0139AC2AAC6BAC7CAC0EA529
:10295000FFA52696FFAF269718A929A925962FAF80
:10296000259708C0082D26969FAE26971A2D2596E6
:10297000BFAE2597A70196016D897E898F89988DB5
:102980000E9409376D8B7E8B8F8B988F2E8D3F8D9C
:1029900048A159A10E948C3787FF09C02D893E8923
:1029A0004F89588D6E8D7F8D88A199A13EC02AA92F
:1029B0003BA94CA95DA9602F26967FAD2697812F54
:1029C00025969FAD25970E942C391816E4F0832D8B
:1029D000922DD30180936E0790936F07A093700799
:1029E000B09371073981309369078091AE0683FFF8
:1029F00040C0AD81BE819A969C9190938207877F5B
:102A00008093AE0636C02EE333EC4EE259E36E8D72
:102A10007F8D88A199A10E9409376E8F7F8F88A32F
:102A200099A32D893E894F89588D0E9408376B01E3
:102A30007C012EA53FA548A959A9602F26967FADF8
:102A40002697812F25969FAD25970E942C39181621
:102A50000CF4B2CD832D922DD30180936E07909309
:102A60006F07A0937007B09371074981409369077E
:102A7000BCCF27E0E985FA852E9FC0012F9F900DDE
:102A80001124AC014751594F3A0180918207DA0174
:102A900016968C93209161073091620740916307ED
:102AA00050916407602F26967FAD2697812F25963B
:102AB0009FAD25970E9464391B012C010E94753738
:102AC0006B017C0160915D0770915E0780915F07EB
:102AD000909160070E9475374B015C01A701960138
:102AE0000E9408370E940A3869837A838B839C830B
:102AF00029813A81F30131832083232B41F4809192
:102B0000AE0681FF04C081608093AE061DC1209196
:102B1000590730915A0740915B0750915C076D89C6
:102B20007E898F89988D0E9409376D837E838F837C
:102B30009887A2019101C501B4010E9408379B0149
:102B4000AC016D817E818F8198850E9491374B0108
:102B50005C0120EC31EE44E65EE40E9464390E94A0
:102B600075370E940A38603D57E075078105910569
:102B700060F427E0A985BA852A9FF0012B9FF00D0C
:102B80001124E751F94F158254C0603A3FE07307B2
:102B90008105910568F4A7E049855A85A49FF00155
:102BA000A59FF00D1124E751F94FB1E0B5831FC087
:102BB0006034EFE17E078105910568F447E02985DF
:102BC0003A85429FF001439FF00D1124E751F94FE0
:102BD00052E055830CC027E0A985BA852A9FF001F1
:102BE0002B9FF00D1124E751F94F33E03583A7E017
:102BF00049855A85A49FF001A59FF00D1124E75146
:102C0000F94F2581022E04C0969587957795679593
:102C10000A94D2F749815A8102C0440F551F2A9560
:102C2000E2F7518340836115710551E085079105F5
:102C300068F427E0A985BA852A9FF0012B9FF00D43
:102C40001124E751F94F7383628304C04FEF5FEFA4
:102C5000538342838091E806809313078F5F863009
:102C600019F08093E80602C01092E806E09183070D
:102C7000F0918407802F26969FAD2697A12F259649
:102C8000BFAD2597828F938FA48FB58FC0925D07BC
:102C9000D0925E07E0925F07F0926007A201910177
:102CA000C701B6010E940837A50194010E9464394A
:102CB0006093590770935A0780935B0790935C0762
:102CC00020916A0730916B0740916C0750916D0716
:102CD000602F26967FAD2697812F25969FAD25974D
:102CE0000E948C378111C1C820E030E0A901602F1B
:102CF00026967FAD2697812F25969FAD25970E941A
:102D00002C399091AE06181614F092FF04C0916011
:102D10009093AE0619C010928407109283075EA9A3
:102D20008FA9581709F4A1C8998D9F3009F4198EFD
:102D30008091F803AFA9A81303C0B98DB093F8032D
:102D4000E98DE093F9037AC8CB5BDF4F0FB6F894B7
:102D5000DEBF0FBECDBFDF91CF911F910F91FF90CE
:102D6000EF90DF90CF90BF90AF909F908F907F902B
:102D70006F905F904F903F902F900895CF93DF9387
:102D8000C0918307D09184072097C9F0809158079C
:102D900081608093580760916E0770916F078091F2
:102DA0007007909171079B01AC010E9464396E8796
:102DB0007F87888B998B1092840710928307DF910D
:102DC000CF9108951092CA061092CB068091A0066A
:102DD000482F80FF03C080E28093CA068091A1063D
:102DE000282F80FF03C080E18093CB0641FF05C000
:102DF0008091CA0680688093CA0621FF05C0809131
:102E0000CB0680648093CB060895CF93DF930E9416
:102E1000B40E8CE2E7E5F7E0DF011D928A95E9F751
:102E2000CDECD6E08AE1FE0111928A95E9F7109285
:102E30008407109283071092E7061092130781E02F
:102E40008093E8061092CC060E94E2168091CB0691
:102E50008A878BB18F759091CA06892B8BB98BB1FC
:102E60008F7A9091CB06892B8BB9DF91CF91089502
:102E70001F920F920FB60F9211248F939F938BB1D5
:102E80009091CA06907A8F75892B8BB915BC9F914A
:102E90008F910F900FBE0F901F9018958091CA06CA
:102EA0008093D606EFE6F0E080818260808308950B
:102EB0008093B4009091B000811102C09F7D01C049
:102EC00090629093B0008093B00608951F920F9285
:102ED0000FB60F9211242F933F934F935F936F93ED
:102EE0007F938F939F93AF93BF93EF93FF938091C3
:102EF000CC0681118BC18BB19091D70690758F7ADA
:102F0000892B8BB98BB18F759091D606892B8BB994
:102F10008CEE86BD82E085BD81E08093CC067894FE
:102F20008091E5069091E606892B09F0A2C0809178
:102F3000E70690911307981709F48EC0E091E70611
:102F40002E2F30E087E0E89FF0011124E751F94F80
:102F5000F093E606E093E5068281938190938900E1
:102F600080938800808191819093E1068093E006B0
:102F7000E4818091E2068E1721F1E093E2068DE074
:102F8000E89FF0011124EA5EF84FF093E406E09325
:102F9000E30680859185A285B385B695A79597951B
:102FA00087958093D1069093D206A093D306B093D1
:102FB000D4068093CD069093CE06A093CF06B0930F
:102FC000D006A091E306B091E4069091CB061C9642
:102FD0008C911C9789278093D70687E0829FF00108
:102FE000839FF00D1124E751F94F25814D915D919B
:102FF0006D917C911397022E04C076956795579535
:1030000047950A94D2F74093D8065093D906609317
:10301000DA067093DB0614968D919D910D90BC910C
:10302000A02D04C0B695A795979587952A95D2F7B8
:103030008093DC069093DD06A093DE06B093DF0656
:103040008091A9068830A9F48091B006813089F07A
:1030500086810E9458170DC00E94B40E8091B00660
:10306000823018F080E00E94581784E00E94D40E4D
:10307000CDC01092D6064091D8065091D9066091E5
:10308000DA067091DB068091CD069091CE06A09174
:10309000CF06B091D006840F951FA61FB71F80934F
:1030A000CD069093CE06A093CF06B093D006E091C4
:1030B000E306F091E40640855185628573854817E3
:1030C00059076A077B0768F520E22093D6064085FA
:1030D000518562857385841B950BA60BB70B809376
:1030E000CD069093CE06A093CF06B093D00624854C
:1030F0008091F0039091F103A091F203B091F3035A
:1031000024FF04C00197A109B10903C00196A11DC4
:10311000B11D8093F0039093F103A093F203B09359
:10312000F3034091DC065091DD066091DE0670915C
:10313000DF068091D1069091D206A091D306B0917E
:10314000D406840F951FA61FB71F8093D1069093B6
:10315000D206A093D306B093D406408551856285EC
:103160007385481759076A077B0778F52091D606BB
:1031700020682093D6064085518562857385841B1F
:10318000950BA60BB70B8093D1069093D206A09314
:10319000D306B093D40624858091F4039091F5036F
:1031A000A091F603B091F70326FF04C00197A1098F
:1031B000B10903C00196A11DB11D8093F403909342
:1031C000F503A093F603B093F7038091E006909186
:1031D000E10601979093E1068093E006892B69F45C
:1031E0001092E6061092E5068091E7068F5F8093C5
:1031F000E706863011F41092E7069091CA06809196
:10320000D60689278093D6061092CC06FF91EF91BF
:10321000BF91AF919F918F917F916F915F914F91EE
:103220003F912F910F900FBE0F901F9018956FE157
:1032300080E090E00E94460D47E250E060E876E0D2
:1032400081E090E00C94680D48E050E068EE73E097
:1032500080E092E00C94680DE0E8F6E010A211A284
:103260008AE097EDA3E2BCE382A393A3A4A3B5A352
:1032700016A280E090E0A0E2B3E480839183A28371
:10328000B38384839583A683B78380E090E9ACE120
:10329000B6E480879187A287B38784879587A687BE
:1032A000B78780E89BECA4E2BBE4808B918BA28B78
:1032B000B38B848B958BA68BB78B80E090E8A4E9C9
:1032C000B3E4808F918FA28FB38F80E090E0A2ED66
:1032D000B3E4848F958FA68FB78F0E94171988E06B
:1032E000E8EEF3E0DF011D928A95E9F70C942419CA
:1032F0001F920F920FB60F9211242F933F934F936B
:103300005F936F937F938F939F93AF93BF93EF934D
:10331000FF934091C600413231F04E3741F04831C1
:1033200041F480E101C088E00E94D40E1CC082E01C
:10333000FBCF2091E6033091E703C90101968F315D
:10334000910511F480E090E06091E4037091E50351
:103350008617970741F0F901EB53FC4F4083909398
:10336000E7038093E603FF91EF91BF91AF919F91A7
:103370008F917F916F915F914F913F912F910F901E
:103380000FBE0F901F9018951F920F920FB60F92BD
:1033900011248F939F93EF93FF938091C906E82F99
:1033A000F0E0EC54F94F90819093C6008F5F853127
:1033B00009F480E08093C9069091B306891305C093
:1033C0008091C1008F7D8093C100FF91EF919F910B
:1033D0008F910F900FBE0F901F901895E091B3063C
:1033E00091E09E0F953109F490E02091C906921763
:1033F000E1F3F0E0EC54F94F80839093B3068091B1
:10340000C10080628093C10008958FEF8EBD0DB41E
:1034100007FEFDCF8DB58F778DBD8EB508951F93B7
:10342000CF93DF9300D000D0CDB7DEB7182F4C83F9
:103430005B836A8379830E94051A812F80640E94CE
:10344000C20E7981872F0E94C20E6A81862F0E9448
:10345000C20E5B81852F0E94C20E4C81842F0E9478
:10346000C20E112321F0183021F487E803C085E94A
:1034700001C08FEF0E94C20E1AE00E94051A8F3F12
:1034800011F41150D1F70F900F900F900F90DF9122
:10349000CF911F9108952F923F924F925F926F921A
:1034A0007F928F929F92AF92BF92CF92DF92EF92D4
:1034B000FF920F931F93CF93DF93CDB7DEB7609743
:1034C0000FB6F894DEBF0FBECDBF29833A834B837E
:1034D0005C836D837E838F8398871A870987FC8638
:1034E000EB862B853C85232B09F4C6C029813A81C4
:1034F00031703E872D87190129813A814B815C818A
:103500006D817E818F8198855101C12CD12CE12C58
:10351000F12C00E010E00E94673B39014A011B01D9
:103520002C0180E092E0ED85FE858E1B9F0B988B31
:103530008F872B853C852817390710F4388B2F8708
:10354000A090BD03B090BE03C090BF03D090C00355
:10355000E090C103F090C2030091C3031091C40333
:103560009301A401B101C2010E94703B09F450C053
:103570002A988091BC0382FF08C0842D09E00E9434
:10358000363BBA01422F532F02C0A301B40181E19F
:103590000E940F1A882319F02A9A80E06EC00E94B8
:1035A000051A8E3FE1F70CEB11E00E94051AF801B5
:1035B00081938F01F3E00C3B1F07B9F76092BD03C5
:1035C0007092BE038092BF039092C0032092C10309
:1035D0003092C2034092C3035092C4036D857E852E
:1035E00064547E4F4F85588989859A850E94943B03
:1035F00029853A858F859889280F391F3A87298729
:103600000E94051A0E94051A2A9A0E94051A12C0E1
:103610006D857E8564547E4F4F85588989859A854E
:103620000E94943BE985FA852F853889E20FF31FC4
:10363000FA87E9878B859C85EF85F8898E1B9F0B20
:103640009C878B879F0140E050E060E070E080E065
:1036500090E0A980BA80CB80DC80ED80FE800F8175
:1036600018850E94523B29833A834B835C836D8388
:103670007E838F83988735CF81E060960FB6F8946C
:10368000DEBF0FBECDBFDF91CF911F910F91FF9095
:10369000EF90DF90CF90BF90AF909F908F907F90F2
:1036A0006F905F904F903F902F9008952F923F9290
:1036B0004F925F926F927F928F929F92AF92BF9242
:1036C000CF92DF92EF92FF920F931F93CF93DF93EE
:1036D000CDB7DEB762970FB6F894DEBF0FBECDBF91
:1036E00029014B835C836D837E831C0118870F83C4
:1036F0003701DA82C982BA86A986012B11F480E0EB
:103700004AC0E114F104D9F329813A812E153F050D
:10371000B0F349855A85452B91F39701EB863C8799
:1037200073010F81188592014B815C816D817E81CF
:10373000C1010E944B1A882311F3740182012B816D
:103740003C814D815E81B1018F819885E985FA8543
:1037500009958823F9F092014B815C816D817E810E
:10376000C101AB84BC84C12CD12CE12CF12C00E034
:1037700010E00E94523B29014B835C836D837E8362
:103780001C0129813A81261937093A832983261594
:10379000370530F681E062960FB6F894DEBF0FBEB3
:1037A000CDBFDF91CF911F910F91FF90EF90DF90F0
:1037B000CF90BF90AF909F908F907F906F905F90D1
:1037C0004F903F902F900895CF93C82F811105C03F
:1037D0008CE391E00E946E2007C085E391E00E9497
:1037E0006E208C2F0E94482083E391E0CF910C94AF
:1037F0006E201F93CF93DF9386E00E94DD0E8F3300
:1038000068F48091A9068F7DE9F48091A8068B7FEA
:103810008093A8068091A806816012C08F3B68F44F
:103820008091A9068F7D71F48091A8068E7F809388
:10383000A8068091A806846003C08091A8068A7FAC
:103840008093A80687E00E94DD0E8F3358F58091A3
:10385000A906982F9F7D49F48091A806877F8093C1
:10386000A8068091A806826046C0883019F0803191
:1038700009F043C08091A80684FD3FC08091A8064E
:1038800080618093A8068091AF068333B0F18550A4
:10389000823308F482E38093AF060E94A8230E943B
:1038A0007D202BC08F3B20F58091A906982F9F7D0E
:1038B00049F48091A8068D7F8093A8068091A80680
:1038C000886019C0883011F08031B9F48091A80661
:1038D00084FD13C08091A80680618093A806809122
:1038E000AF06863950F48B5F8739A8F286E9D3CFCB
:1038F0008091A806857E8093A8068091A8068111F4
:10390000E0C085E00E94DD0E182F85E00E94DD0EEC
:10391000C82FD0E0212F30E02C1B3D0B37FF03C018
:10392000319521953109233031050CF0CAC085311C
:1039300070F48091A706882309F4C3C08091B20671
:1039400080618093B2068CE00E94E41BB4C08A338D
:1039500098F58091A706882309F4B3C08091A90641
:1039600081111BC02FEF86E791E0215080409040ED
:10397000E1F700C0000085E00E94DD0E90E08C1BA6
:103980009D0B97FF03C091958195910903970CF0CA
:1039900098C08091A80680648CC0883021F4809102
:1039A000B206886006C0803109F085C08091B206F9
:1039B00082608093B2067FC0853560F58091A7064E
:1039C000882309F47EC08091A906811174C02FEF6D
:1039D00086E791E0215080409040E1F700C0000070
:1039E00085E00E94DD0E90E08C1B9D0B97FF03C0CD
:1039F00091958195910903970CF063C08091B00671
:103A0000811102C081E001C080E00E9458170E942D
:103A1000CC0151C0893618F58091A706882309F496
:103A200050C08091A906811146C02FEF86E791E032
:103A3000215080409040E1F700C0000085E00E94E6
:103A4000DD0E90E08C1B9D0B97FF03C09195819537
:103A500091090397B4F58091A80680622AC089373E
:103A600068F58091A706882361F18091A60681FF01
:103A700022C08091A9068230F0F42FEF86E791E012
:103A8000215080409040E1F700C0000085E00E9496
:103A9000DD0E90E08C1B9D0B9C0197FF04C022273C
:103AA0003327281B390B233031055CF48091A8069D
:103AB00080688093A8061092A70603C081E08093D7
:103AC000A706DF91CF911F9108958F929F92AF9299
:103AD000BF92CF92DF92EF92FF92CF93DF93EC01F0
:103AE0005B01FB01C080D180E280F38020E030E008
:103AF000A901C701B6010E948C378823B1F0A70144
:103B00009601688179818A819B810E9491376B013E
:103B10007C01E894F7F829E936E746E95EE7C70152
:103B2000B6010E942C39181644F489E9C82E86E79C
:103B3000D82E86E9E82E8EE7F82EF5018480958050
:103B4000A680B78020E030E0A901C501B4010E9441
:103B50008C378823B1F0A50194016C817D818E8121
:103B60009F810E9491374B015C01E894B7F8A50151
:103B70009401C701B6010E948C3787FD02C0750110
:103B80006401C701B601DF91CF91FF90EF90DF9004
:103B9000CF90BF90AF909F908F9008952F923F92BB
:103BA0004F925F926F927F928F929F92AF92BF924D
:103BB000CF92DF92EF92FF920F931F93CF93DF93F9
:103BC000C0917F06C11101C0CFE0C150D091F80370
:103BD000CD1709F41BC1EC2EF12C2BE2C29F800102
:103BE000112406501C4FF801A288B388C488D588D8
:103BF00066897789808D918D9B01AC010E94093780
:103C0000F801228D338D448D558D0E9464394B010E
:103C10008C019B01AC01B501C6010E948C3787FD68
:103C200002C0540168018BE28E9DF0018F9DF00D62
:103C30001124E650FC4FC501D60186879787A08BDB
:103C4000B18BC11101C0CFE0C150CD1761F02BE2A3
:103C50002E9DC0012F9D900D11249C0126503C4F9C
:103C60007901DBE233C08091F903D8135EC00E9472
:103C7000BE165BC0AC2EB12CDA9DC001DB9D900D51
:103C80001124FC01E650FC4F6F01C11101C0CFE0CF
:103C9000C1508091F903C81302C00E94BE16DA9D7C
:103CA0008001DB9D100D112406501C4FF801828805
:103CB0009388A488B588A501940166857785808955
:103CC00091890E948C37811106C076018091F8039A
:103CD000C813D0CF2AC0F80166897789808D918D6D
:103CE0009B01AC010E940937F801228D338D448D70
:103CF000558D0E946439F7012685378540895189A1
:103D00000E9409372B013C01A50194010E948C37C8
:103D1000F80187FF05C046865786608A718AD5CF2D
:103D200086869786A08AB18AD0CFD091F803FBE22D
:103D3000DF9F8001112406501C4FC1E0CD0FCF3012
:103D400009F4C0E020907F068BE2382EC21509F4FA
:103D50005BC0CC2ED12C3C9CC0013D9C900D11240D
:103D60009C0126503C4F7901F801468457846088B5
:103D70007188F90186849784A088B188A50194018F
:103D8000C301B2010E948C3787FF24C0F801668905
:103D90007789808D918D9B01AC010E940937F801D4
:103DA000228D338D448D558D0E9464399B01AC0169
:103DB000C301B2010E9409372B013C01A501940106
:103DC0000E948C3787FF06C0F70146865786608AB7
:103DD000718ADC2F3C9CF0013D9CF00D1124E650D3
:103DE000FC4F228933894489558966857785808986
:103DF00091890E948C37811101C0DC2FCF5FCF30B9
:103E000009F4C0E08701A2CFD093F803DF91CF91EE
:103E10001F910F91FF90EF90DF90CF90BF90AF90E8
:103E20009F908F907F906F905F904F903F902F90DA
:103E300008954F925F926F927F928F929F92AF926E
:103E4000BF92CF92DF92EF92FF920F931F93CF9387
:103E5000DF9300D000D0CDB7DEB78C01FC018080AD
:103E60009180A280B38020E030E0A901C501B401B7
:103E70000E948C37882371F0A5019401C501B4011B
:103E80000E94643920E030E0A9010E9409372B012B
:103E90003C0103C0412C512C3201F801C480D58073
:103EA000E680F78020E030E0A901C701B6010E945A
:103EB0008C37882371F0A7019601C701B6010E94D3
:103EC00064399B01AC01C301B2010E9409372B0187
:103ED0003C01C301B2010E94FB392B013C019B0153
:103EE000AC0160E070E080E89FE30E949137698355
:103EF0007A838B839C839B01AC01C501B4010E9432
:103F00006439F801608371838283938329813A81C4
:103F10004B815C81C701B6010E946439F80164835A
:103F2000758386839783C301B2010F900F900F9022
:103F30000F90DF91CF911F910F91FF90EF90DF9045
:103F4000CF90BF90AF909F908F907F906F905F9039
:103F50004F9008958F929F92AF92BF92CF92DF922F
:103F6000EF92FF920F931F93CF93DF93CDB7DEB7FE
:103F70002D970FB6F894DEBF0FBECDBF6B017C014D
:103F8000042F20E030E0A9010E948C3787FF07C092
:103F90008DE20E94EE19F7FAF094F7F8F094102FE2
:103FA000123060F020E030E048EC52E4C701B60186
:103FB0000E9464396B017C011250F2CF00FF0AC0ED
:103FC00020E030E040E251E4C701B6010E946439CC
:103FD0006B017C0120E030E040E05FE3C701B60107
:103FE0000E9409370E94033810E03AE0832E912C9A
:103FF000A12CB12C611571058105910591F0EE247C
:10400000E394F12CEC0EFD1EE10EF11CA5019401D0
:104010000E947D3A605DF7016083B901CA011F5FAC
:10402000E9CF80E3101748F4E1E0F0E0EC0FFD1F6A
:10403000E10FF11D80831F5FF5CF101314C011E055
:10404000100F80E3FE01E00FF11D81830CC01013FF
:1040500003C08EE20E94EE19FE01E10FF11D808186
:104060000E94EE1911501111F2CF2D960FB6F8944F
:10407000DEBF0FBECDBFDF91CF911F910F91FF909B
:10408000EF90DF90CF90BF90AF909F908F9008956A
:10409000CF93DF93843630F06AE00E945D3AC0E34C
:1040A000C90F03C0C0E08A3030F06AE00E945D3A78
:1040B000D0E3D90F01C0D0E0805D0E94EE19DD236E
:1040C00019F08D2F0E94EE19CC2329F08C2FDF914F
:1040D000CF910C94EE19DF91CF910895CF93DF9398
:1040E000FC018491EF012196882321F00E94EE19B2
:1040F000FE01F7CFDF91CF9108950E94BE16809107
:10410000F9038093F8030C94CE1DE1EAF7E0A0EFE9
:10411000B3E04D915D916D917C91139740835183F4
:104120006283738314968D919D910D90BC91A02D07
:1041300084839583A683B7830895BF92CF92DF923D
:10414000EF92FF920F931F93CF93DF937C01FC01BB
:1041500006A117A1D0A5C1A5858580FD28C06091C5
:10416000AF0670E080E090E00E943B382AE037ED37
:1041700043E25CE30E9464399B01AC01B8018D2FDE
:104180009C2F0E9464398B01D82FC92FF701B2A050
:10419000C3A0D4A0F5A02B2D3C2D4D2D5F2D0E944A
:1041A0002C39181624F40B2D1C2DDD2DCF2D20E0DD
:1041B00030E040E85FE3B8018D2F9C2F0E942C393E
:1041C000181624F000E010E0D0E8CFE3B8018D2FFE
:1041D0009C2FDF91CF911F910F91FF90EF90DF9077
:1041E000CF90BF9008952F923F924F925F926F921F
:1041F0007F928F929F92AF92BF92CF92DF92EF9277
:10420000FF920F931F93CF93DF93CDB7DEB7A097A5
:104210000FB6F894DEBF0FBECDBF00917F0610E051
:104220008BE2809F9001819F300D1124A90146509F
:104230005C4F1A01FA0111928A95E9F780919E0765
:10424000FA01858788E0E1EAF7E0DE015196019006
:104250000D928A95E1F7FA0180849184A284B38457
:104260008091860790918707A0918807B091890770
:10427000898F9A8FAB8FBC8FC988DA88EB88FC88CE
:10428000BC01CD016C197D098E099F096B017C0170
:1042900097FF07C0CC24DD247601C61AD70AE80AA6
:1042A000F90A2BE2209FF001219FF00D1124E65026
:1042B000FC4FC082D182E282F382C814D904EA049E
:1042C000FB0410F4750164010E943B3820918006C4
:1042D0003091810640918206509183060E94913769
:1042E00069877A878B879C8720E030E0A9010E944C
:1042F0008C3787FF0BC08BE2809FF001819FF00D10
:104300001124E650FC4F84858061848780918A0760
:1043100090918B07A0918C07B0918D078D8F9E8F08
:10432000AF8FB8A38D889E88AF88B88CBC01CD01B3
:10433000681979098A099B092B013C0197FF07C07D
:10434000442455243201461A570A680A790A2BE296
:10435000209FF001219FF00D1124E650FC4F448274
:1043600055826682778246015701C414D504E6045B
:10437000F70410F4530142010E943B382091840657
:104380003091850640918606509187060E949137AC
:104390006D877E878F87988B20E030E0A9010E948F
:1043A0008C3787FF0BC08BE2809FF001819FF00D5F
:1043B0001124E650FC4F8485806484872BE2209F83
:1043C000C001219F900D11249C0126503C4F790182
:1043D000F90180869186A286B38689288A288B284F
:1043E00009F49AC1CE0109960E94191FF701628F44
:1043F000738F848F958FBE01675F7F4F80E996E052
:104400000E94651DF701668B778B808F918FBE01AF
:10441000675F7F4F88E896E00E94651DF70162A301
:1044200073A384A395A3358530FF05C066A377A346
:1044300080A791A714C040919A0750919B07609163
:104440009C0770919D07F70146A357A360A771A72A
:1044500090919907992319F09091960792A720912E
:104460007F069091F903291709F45EC031FD5CC005
:104470004090A9075090AA076090AB077090AC07D6
:1044800089849A84AB84BC84A5019401C301B201E0
:104490000E9464399B01AC0160E070E0CB010E9496
:1044A00008376B017C01A3019201C501B4010E9490
:1044B000083769837A838B839C834090AD07509043
:1044C000AE076090AF077090B0078D849E84AF8474
:1044D000B888A5019401C301B2010E9464399B010F
:1044E000AC01C701B6010E9408376B017C01A30132
:1044F0009201C501B4010E9408376D837E838F83CA
:1045000098872FEE3FEF4FE75FE3C701B6010E94A8
:104510002C391816D4F48BE2809FF001819FF00DA6
:104520001124E650FC4F0CC08BE2809FF001819F6C
:10453000F00D1124E650FC4F16861786108A118A5A
:10454000168E178E10A211A272C02FEE3FEF4FE70A
:104550005FEBC701B6010E948C3787FF11C08BE269
:10456000809FF001819FF00D1124E650FC4F89E9F6
:1045700096E7A6E9BEE7868F978FA0A3B1A357C0A1
:10458000CE0101960E94191FBE016F5F7F4F80E927
:1045900096E00E94651D4B015C01A701960160E059
:1045A00070E080E89FE30E94083720E030E040E0C0
:1045B0005FE30E9464390E94FB396B017C0120910A
:1045C000A2063091A3064091A4065091A506C5010C
:1045D000B4010E946439A70196010E9464394B011D
:1045E0005C01A701960160E070E080E89FE30E9413
:1045F00008379B01AC01C501B4010E9491376B01E2
:104600007C0120E030E0A9010E948C3787FF03C0C5
:10461000C12CD12C76018BE2809FF001819FF00D9F
:104620001124E650FC4FC68ED78EE0A2F1A22BE2F9
:10463000209FC001219F900D11249C0126503C4FCA
:104640007901F901858581FD69C0C1010E949D2024
:104650004B015C014090B1075090B2076090B307E6
:104660007090B407A30192010E942C3918162CF403
:10467000A3019201C301B20104C0A5019401C501C7
:10468000B4010E946439F701628B738B848B958B24
:104690002BE2209FC001219F900D11248C01065018
:1046A0001C4FF801C68CD78CE0A0F1A0A7019601A1
:1046B00062897389848995890E942C3918162CF493
:1046C000F801C28AD38AE48AF58A8092B10790926F
:1046D000B207A092B307B092B40788E0FE01399602
:1046E000A9EAB7E001900D928A95E1F788E0FE0112
:1046F0007996A1EAB7E001900D928A95E1F7809151
:10470000850780937F068F5F8F3009F480E0809368
:1047100085070E94CE1D02C080E001C081E0A09606
:104720000FB6F894DEBF0FBECDBFDF91CF911F91C2
:104730000F91FF90EF90DF90CF90BF90AF909F9040
:104740008F907F906F905F904F903F902F90089543
:104750005F926F927F928F929F92AF92BF92CF9211
:10476000DF92EF92FF920F931F93CF93DF93C0914D
:10477000F90350907F0689E9F82E06E716E9DEE78F
:104780009BE2692EC51509F455C0AC2EB12C6A9C6C
:10479000C0016B9C900D11249C0126503C4F690177
:1047A000C9010E949D20762E872E982EE92E2F2D4E
:1047B000302F412F5D2F0E942C3918164CF42F2DCD
:1047C000302F412F5D2F6F2D702F812F9D2F08C00F
:1047D000272D382D492D5E2D672D782D892D9E2D65
:1047E0000E946439F601628B738B848B958B6A9C73
:1047F00080016B9C100D112406501C4FF801A68CF3
:10480000B78CC0A0D1A0A601950162897389848963
:1048100095890E942C3918162CF4F801A28AB38AC3
:10482000C48AD58ACF5FCF3009F4C0E0F72C840169
:10483000DE2DA8CF8F2D902FA12FBD2F8093B107F4
:104840009093B207A093B307B093B407DF91CF91D1
:104850001F910F91FF90EF90DF90CF90BF90AF909E
:104860009F908F907F906F905F9008958091F90353
:1048700090917F06981739F02BE2829FC001112496
:1048800086509C4F089580E090E008950E94362461
:10489000892B19F082E00C94D40E0895CF93C09127
:1048A000B206CC2309F480C08C2F887141F180912D
:1048B000A906883059F482E08093AE060E94BE16A5
:1048C000C4FF1AC081E08093AD0616C0982F9F7E6A
:1048D00061F4C4FF11C01092A90681E08093AC0678
:1048E0001092AD061092B10666C0843029F4C4FF60
:1048F00003C081E08093AC0688E10E94CA0EC1FF2C
:104900001EC08091A9068F7EB9F4C1601092AE06D8
:104910001092AD060E943624892B41F088E08093E6
:10492000A9060E94F10E0E944E1706C08091B106A2
:10493000811102C01092A90682E00E94CA0EC0FF37
:1049400007C00E944A020E94F20181E00E94CA0E42
:10495000C2FF2AC08091B20681608093B206809126
:10496000AE0681FF1AC00E947D208091AE068D7F29
:104970008093AE068091AD06882341F01092A9067F
:1049800081E08093AC061092AD0615C080E1809363
:10499000A90681E08093AD0604C01092A9060E948A
:1049A000462484E00E94CA0E8091A9068C7219F0F8
:1049B000CF910C94F10ECF9108950E94F91B0E94A3
:1049C0004E248091AD068111F8CF08950E943624BF
:1049D000892B39F00E94DD248091AC068823B1F345
:1049E00004C08091A9068830A9F308956F927F9240
:1049F0008F929F92AF92BF92CF92DF92EF92FF92EF
:104A00000F931F93CF93DF937C01FB016A01808199
:104A1000D701A80FB11D9C91ED019D3219F021968F
:104A2000612C05C0229611969C9166246394912C6A
:104A3000A12C712C20E030E0A9018E0160EDB62E92
:104A4000B90E89E08B15A0F0A39491107A94A5E09B
:104A5000B0E00E94A53ADC01CB01880F991FAA1F84
:104A6000BB1F9C01AD012B0D311D411D511D07C008
:104A7000AEEFBA1208C0911006C099249394219603
:104A8000D8019C91DACFAA2009F443C08F01CA0152
:104A9000B9010E9439384B015C0120E030E0A901E6
:104AA0000E948C378823E1F0BFEF7B166CF42AE07C
:104AB00037ED43E25CE3C501B4010E9464394B0168
:104AC0005C0173947394F0CF7B120AC02DEC3CEC24
:104AD0004CEC5DE3C501B4010E9464394B015C01FB
:104AE000662051F0B7FAB094B7F8B094F60180821E
:104AF0009182A282B38206C0D6018D929D92AD9220
:104B0000BC921397CE19DF09C150F801C08381E030
:104B100001C080E0DF91CF911F910F91FF90EF9046
:104B2000DF90CF90BF90AF909F908F907F906F90CD
:104B300008956F927F929F92AF92BF92CF92DF9231
:104B4000EF92FF920F931F93CF93DF938C013B0162
:104B50007A01DB018C91F801E80FF11D80819F0142
:104B60008D3221F02F5F3F4FA12C05C02E5F3F4FAC
:104B70008181AA24A394922EF90120E030E0A901BA
:104B80009E2F99196F0160EDB62EB80EB9E0BB15D6
:104B9000A0F0A5E0B0E00E94A53ADC01CB01880FAF
:104BA000991FAA1FBB1F9C01AD012B0D311D411D7B
:104BB000511D3196E6018881E3CFDEEFBD16F1F09D
:104BC0009923E1F0AA2069F088279927DC01821B4C
:104BD000930BA40BB50BE70188839983AA83BB834E
:104BE00006C0D7012D933D934D935C931397E01B23
:104BF000F10BE150E301E88381E001C080E0DF9147
:104C0000CF911F910F91FF90EF90DF90CF90BF90C9
:104C1000AF909F907F906F900895CF93DF93CDB723
:104C2000DEB7CF57D1090FB6F894DEBF0FBECDBFA8
:104C300087B18F6087B9529A209A3C9A8FEF99EF8B
:104C40000197F1F700C00000419A409A0E940601C6
:104C5000AFE1BEE41197F1F700C000000E94060129
:104C6000EFEFF0E03197F1F700C000000E9406017D
:104C70008FEF90E00197F1F700C0000040980E948C
:104C80000601AFEFB0E01197F1F700C0000088E235
:104C90000E94710181E00E94710186E00E94710111
:104CA0008CE00E9471010E94290280917A0087683D
:104CB00080937A008091C00082608093C00010923F
:104CC000C50080E18093C4008091C1008869809311
:104CD000C10080E090E00E94A70D8F3109F0F8C577
:104CE00047E250E061E070E080E896E00E94AF0D9E
:104CF000892B09F4EDC58AB1806A8AB98AB18065C9
:104D00008AB9809181008F7E80938100809181009B
:104D1000886080938100809180008C7F80938000E8
:104D2000809180008F708093800080916E00887FDA
:104D300080936E0014BC15BC80916E0081608093DE
:104D40006E00539A83E08093B00084E08093B100BA
:104D500080E00E9458172198299A8FE78093B3002A
:104D60008091700082608093700018E0E0EFF3E0C3
:104D7000DF01412E1D924A94E9F7E4E0F1E0DF0102
:104D8000412E1D924A94E9F748E050E060E072E05D
:104D900088EE93E00E94AF0D892B59F487E00E94C2
:104DA000E41BE8EEF3E0DF011D921A95E9F70E949B
:104DB0002419789489E0E9EAF6E0DF011D928A95EA
:104DC000E9F78BE1E6E8F7E0DF011D928A95E9F764
:104DD0008091A60681FF03C081E08093A90684E646
:104DE0008093AF068EE00E94E41B8091E6039091D1
:104DF000E7039093E5038093E40384E1E1EAF7E0BD
:104E0000DF011D928A95E9F71092F90310927F064F
:104E100081E0809385071092F8030E9405170E9495
:104E20008520212C312CC12CD12CA1961FAE1EAE79
:104E3000A19768961FAE689727961FAE279767962B
:104E40001FAE67978091A806882309F4BFC280919E
:104E5000A80684FDBBC28091A80687FF7FC110927F
:104E6000A806A090A90680E00E9458170E94CC01D5
:104E700084E68093AF061092960700EF13E06096E9
:104E80001FAF0EAF609701EA17E0A3961FAF0EAFFA
:104E9000A397F0E8EF2EF6E0FF2E06E817E0A4E077
:104EA000BA2EB2E09B2E0E94DC00882321F0A09253
:104EB000A90683E113C510929E0729E936E746E962
:104EC0005EE720939A0730939B0740939C0750938B
:104ED0009D078091A1079091A207A091A307B0918F
:104EE000A4078093860790938707A0938807B093C1
:104EF00089078091A5079091A607A091A707B09177
:104F0000A80780938A0790938B07A0938C07B09390
:104F10008D07AB96FFAEEEAEAB9720E030E040EAF7
:104F200050E4D7016D917D918D919C910E949137B4
:104F30000E943139862E80917F069091F90389175E
:104F400008F4815F891B8330F8F4F8018081918136
:104F5000A281B38188199109A109B1098083918344
:104F6000A283B3830E94F3208091A906833060F46A
:104F70001092AE060E943624892B31F0B092A90619
:104F80000E94F10E0E944E170E94DC008111812CBC
:104F90000E94F91B0E944E248091AC068111812C45
:104FA0009091A906943039F2882329F01092AC062A
:104FB000A092A90603C289EC90E0019739F0AFE90D
:104FC000BFE01197F1F700C00000F7CF90929E0765
:104FD000412C512CE6E16E2EE4E47E2E40929A079D
:104FE00050929B0760929C0770929D0720E030E0F2
:104FF00040E251E4D7016D917D918D919C910E9489
:1050000064390E943139F801408051806280738098
:10501000DC01CB01840D951DA61DB71D80839183F6
:10502000A283B3830E94F320B092AE06B092A90689
:105030000E944A020E94F2010E94F10E0E944E1745
:105040009091B206892F847092FD06C00E94F10EE5
:105050000E94DC008111F4CFC158DF4F8883CF5705
:10506000D0400E9405170E948520C158DF4F8881DB
:10507000CF57D040882351F081E08093A9068091DA
:10508000B2068B7F8093B20682E128C4A396AEADB0
:10509000BFADA3974D905D906D907D90A396BFAFEF
:1050A000AEAFA397B4E0EB0EF11C20E030E040E39C
:1050B00051E4AB96EEADFFADAB976081718182811B
:1050C00093810E9491370E943139460E571E681E07
:1050D000791ED8014D925D926D927D928D010E9454
:1050E000F320B092AE06B092A9060E94F10E0E9483
:1050F0004E170E94F10E8091B20682FFFACF0E94F5
:1051000005178091B2068B7F8093B2066096EEAD54
:10511000FFAD609711921192119211926096FFAFBC
:10512000EEAF60970E9485209092A90689EC90E0EE
:10513000019739F0AFE9BFE01197F1F700C0000027
:10514000F7CF6096EEADFFAD6097E85FF34009F0F2
:10515000AACE1092AE061092A90630C18091A80680
:1051600086FFC6C0239A259A229A24982C9A2A9AB6
:1051700083E58CBD8DB58E7F8DBD1092BC031AE08A
:105180000E94051A1150E1F72A9800E012E040E071
:1051900050E0BA0180E00E940F1A813021F00150E6
:1051A0001109A9F761C04AEA51E060E070E088E0C7
:1051B0000E940F1A82FD11C00E94051A0E94051A52
:1051C0000E94051A80FF01C40E94051A8A3A09F05C
:1051D000FCC38091BC03826011C040E050E0BA0182
:1051E00087E30E940F1A40E050E0BA0189E20E9472
:1051F0000F1A82FD05C08091BC0381608093BC03BF
:1052000000E010E88091BC03982F9370A9F081FF13
:1052100006C0812C912CA12C70E4B72E03C0812CE8
:10522000912C540140E050E0BA0187E30E940F1A2C
:10523000B501A40189E204C040E050E0BA0181E078
:105240000E940F1A80FF04C001501109D9F60CC04A
:105250008091BC0381FF19C040E050E0BA018AE3AD
:105260000E940F1A882311F02A9AAFC30E94051AD0
:1052700086FF05C08091BC0384608093BC030E94BC
:10528000051A0E94051A0E94051A40E052E060E0EB
:1052900070E080E10E940F1A2A9A811196C38CB5A2
:1052A0008C7F8CBD8DB581608DBD8FEF8093BD03EC
:1052B0008093BE038093BF038093C0038093C10398
:1052C0008093C2038093C3038093C403E12C62E004
:1052D000F62E0CEB11E020E030E040E050E060E022
:1052E00070E080E090E00E944B1A811189C36DC389
:1052F0008091A80685FF38C01092A80614E280911C
:10530000A70681110BC0115049F0AFE3BCE911971A
:10531000F1F700C000000E94F91BF1CF8091A706B1
:1053200081111AC08091A60681FD0AC088E0E0EFD5
:10533000F3E0DF011D928A95E9F70E9485203EC0C7
:1053400088E0E0EFF3E0A8EEB3E001900D928A95DB
:10535000E1F70E94241932C082E08093AB0680E01E
:1053600091E00E94CB052AC081E00E944D0314E227
:105370008091A8068823D1F01150C1F0EFE3FCE939
:105380003197F1F700C000000E94F91B0E944E24E3
:105390008091AC06882361F38EC20E94DD24809147
:1053A000AC06811188C282E00E944D038091A8065C
:1053B0008111F3CF8091AC0681117DC28091E6030B
:1053C0009091E7039093E5038093E403FF24F39423
:1053D0001BE3E12E08E0702E88EE482E83E0582E65
:1053E0008091E4039091E5032091E6033091E70377
:1053F0002817390731F48091AC06882309F44FC28D
:105400005AC2FC01EB53FC4F208101968F3191056C
:1054100011F480E090E09093E5038093E4032F3F44
:1054200051F32B3309F020C28091AC06811143C2A5
:105430008091A906803179F427966FAC2797E62DE5
:10544000F0E0E958FE4FE08267961FAD6797117054
:1054500049F08BE0F7C10E94DD248091AC068823DF
:1054600059F329C2909177018091A906943209F0ED
:10547000F2C1823008F0E4C12696FFAE26978091F3
:105480007801893431F0823509F4DEC0843209F0C4
:10549000EFC0909179019B3309F0D0C1843209F0BB
:1054A000B7C08BE70E94EE198091A0060E944820A9
:1054B0008CE20E94EE198091A1060E9448208CE2A5
:1054C0000E94EE196091800670918106809182069B
:1054D0009091830643E00E94AA1F8CE20E94EE197D
:1054E000609184067091850680918606909187066A
:1054F00043E00E94AA1F8CE20E94EE1920E030E0F7
:1055000040E752E4609188067091890680918A068E
:1055100090918B060E94913740E00E94AA1F8CE276
:105520000E94EE1920E030E040E752E460918C06E2
:1055300070918D0680918E0690918F060E94913712
:1055400040E00E94AA1F8CE20E94EE1920E030E0A9
:1055500041E655E460919006709191068091920623
:10556000909193060E94913740E00E94AA1F8CE21E
:105570000E94EE1920E030E041E655E46091940687
:105580007091950680919606909197060E949137AA
:1055900040E00E94AA1F8CE20E94EE1960919806DA
:1055A0007091990680919A0690919B0641E00E9425
:1055B000AA1F8CE20E94EE1960919C0670919D06D4
:1055C00080919E0690919F0641E00E94AA1F8CE266
:1055D0000E94EE198091A60681700E9448208CE2FC
:1055E0000E94EE196091A2067091A3068091A40614
:1055F0009091A50643E00E94AA1F8CE20E94EE193A
:105600008091A606869581700E9448208DE715C07E
:105610001092AB068BE50E94EE1982E890E00E94A2
:105620006E208CE20E94EE19198283E30E94EE192B
:105630008981805D0E94EE198DE50E94EE1983E359
:1056400091E00E946E20FDC080917901833509F0C0
:10565000F5C080917A01843509F0F0C080917B011A
:105660008B3309F0EBC00E942C190E94E216E9C0AE
:10567000AE014F5F5F4FBE016B5B7F4F87E791E0ED
:105680000E94F624811102C012E0DBC026968FAD85
:1056900026978F5F26968FAF2697AE014C5B5F4FA4
:1056A000BE016B5B7F4F87E791E00E9499258823BD
:1056B00059F32696EFAD2697F0E0E958FE4F80812A
:1056C0008B3309F0BBC089809A80AB80BC80259663
:1056D0006FAC259720E030E0A901C501B4010E941C
:1056E0008C3787FF04C0B7FAB094B7F8B094C501FF
:1056F000B4010E943B3A0E940A38862D90E08D301A
:10570000910508F09BC0FC01EC5CFF4F0C949F3AA4
:105710006093A00602C06093A1060E94E2168BC0AF
:105720008092800690928106A0928206B0928306B3
:1057300082C08092840690928506A0928606B092DE
:10574000870679C020E030E040E752E4C501B401AB
:105750000E946439609388067093890680938A0654
:1057600090938B0668C020E030E040E752E4C5012A
:10577000B4010E94643960938C0670938D06809307
:105780008E0690938F0657C020E030E041E655E446
:10579000C501B4010E94643960939006709391062C
:1057A000809392069093930646C020E030E041E655
:1057B00055E4C501B4010E94643960939406709366
:1057C0009506809396069093970635C0809298062A
:1057D00090929906A0929A06B0929B062CC0809255
:1057E0009C0690929D06A0929E06B0929F0623C0B2
:1057F0008092A2069092A306A092A406B092A5065B
:105800001AC08091A606662311F0816007C08E7FC2
:1058100005C08091A606662321F082608093A606CB
:105820000AC08D7F8093A606D201E72D1D92EA95CE
:10583000E9F70E9424190E94171903C013E001C060
:1058400018E0812F0E94E41B27961FAE27976796CA
:105850001FAE6797C5CD857211F089E0F3CF87E75A
:1058600091E00E94CB05EECF233271F367966FACC7
:1058700067976110B5CD27960FAD27970D3150F47E
:10588000E02FF0E0E958FE4F20830F5F27960FAF1F
:105890002797A6CD11E067961FAF6797A1CD80919E
:1058A000A906803109F4CECA0E94DD248091AC069D
:1058B000882309F4C7CA80E00E9458170E94CC01CF
:1058C0001092AC061092A80681E08093B2068DCAB1
:1058D00087E00E94E41B0E942C190DCA90E00E94F0
:1058E000800101E085E00E94DD0E182F85E00E9416
:1058F000DD0E212F30E0281B310937FF03C0319521
:1059000021953109233031055CF48A3338F48091D4
:10591000A706882329F01092A70654C00093A70673
:105920008FE39CE90197F1F700C00000DBCFA5965B
:105930008CAD9DADAEADBFADA597892B8A2B8B2BC2
:1059400009F075C110921A011092190185E690E0D4
:105950000E948001C12CD12C21143104E9F5A196BB
:105960004EAC5FACA1974114510419F0D2011496CA
:105970001C9268964FAC6897411020C001E085E00A
:105980000E94DD0E182F85E00E94DD0E212F30E0F1
:10599000281B310937FF03C0319521953109233088
:1059A00031053CF58A3318F59091A706992309F142
:1059B000853110F41092A8061092A7068091A806CF
:1059C000811140CA0E942902F9CC84E690E00E942D
:1059D00080012114310419F0D1011D921C92C114CF
:1059E000D10409F4BCCFF60111821082B8CF009324
:1059F000A7068FE39CE90197F1F700C00000BFCF35
:105A00001092A80681E08093AB06B0E1EB2EF12C5A
:105A10008E010F5F1F4F2EEB31E040E050E060E061
:105A200070E080E090E00E944B1A811105C0A196C1
:105A30001FAE1EAEA1973AC08D818823C1F390910D
:105A400010019111F4CFECE0F1E09DE0DF011D9237
:105A50009A95E9F72BE43AE130930D0120930C017C
:105A600026E53BE130930F0120930E018093100156
:105A7000CE0109960E94F50D6093110170931201F9
:105A80008093130190931401CE010D960E94F50DA1
:105A9000609315017093160180931701909318017C
:105AA000ECE0F1E0A196FFAFEEAFA197A1964EAC6E
:105AB0005FACA1974528E1F40C94F836ECE0F1E0F6
:105AC0008DE0DF011D928A95E9F78BE49AE19093CE
:105AD0000D0180930C0186E59BE190930F0180936B
