:100000000C94A0000C94BD000C94BD000C94BD0099
:100010000C94BD000C94BD000C94BD000C94DC004D
:100020000C94BD000C94BD000C94BD000C943118D0
:100030000C94BD000C94BD000C94BD000C94BD004C
:100040000C94C0160C94BD000C94431A0C948F1A97
:100050000C94BD000C94BD000C94BD000C94BD002C
:100060000C94BD000C94BD003F2A422A472A502A16
:10007000592A6A2A7B2A8C2A9D2AA62AAF2AB82ABC
:10008000C22A312E31732E323031373037313700BA
:100090007E00200020007E0020007E007E002000E8
:1000A00020007E00414C524D00484F4D45004D41CF
:1000B0004E4C0050415553002052554E0049444C7F
:1000C00045002052554E004F52474E0046494C4580
:1000D00000554152540053414645004C4F4646009E
:1000E000592020202020302E303030200058202071
:1000F000202020302E30303020006572726F723A2E
:10010000004E6F20552D6469736B2066696C6573B2
:100110002100556E6B6E6F776E20534420636172C1
:10012000642100496E7365727420534420636172C8
:100130006421000A006572726F723A006F6B0000F2
:1001400011241FBECFEFD8E0DEBFCDBF11E0A0E08D
:10015000B1E0E8E7F4E702C005900D92A430B107E2
:10016000D9F727E0A4E0B1E001C01D92A53BB2079A
:10017000E1F70E9407260C943A3A0C9400005A9832
:10018000289A87B1807F87B9449A85E08A95F1F7EC
:10019000000096B1449885E08A95F1F70000449AF2
:1001A00085E08A95F1F7000026B12F70892F82959E
:1001B000807F4498822B08951F920F920FB60F9262
:1001C00011248F939F938091BB0191E0980F90939E
:1001D000BB01853638F0809100078160809300076D
:1001E0001092BB019F918F910F900FBE0F901F90A7
:1001F0001895449A85E08A95F1F70000449808958F
:100200001F93CF93DF931F92CDB7DEB7662311F014
:100210005A9A01C05A98289897B19F6097B998B197
:10022000192F107F982F92959F70912B98B98983E1
:100230000E94F90089818F70812B88B90E94F90092
:100240001F6018B90F90DF91CF911F910895CF9340
:10025000C82F0E94BF0087FDFCCF85E18A95F1F78A
:10026000000061E08C2FCF910C9400010F931F933D
:10027000CF93DF93082FEC011C2F101B899188234B
:1002800041F09FE9980F9A3108F480520E942701AB
:10029000F3CF1C3028F480E20E9427011F5FF9CFC2
:1002A000DF91CF911F910F910895CF93DF93FC01C0
:1002B0008491EF012196882321F00E942701FE01FD
:1002C000F7CFDF91CF910895CF93C82F0E94BF0041
:1002D00087FDFCCF85E18A95F1F7000060E08C2F67
:1002E000CF910C9400011F93CF93DF93C82F81E02F
:1002F0000E94640180E80E946401C53639F0C63668
:1003000061F0C43669F483E291E002C082E191E0D9
:10031000DF91CF911F910C94550181E091E0F8CFCE
:100320008AEF90E00E945501C43640F08C2F6AE0BD
:100330000E94DB38D0E3D90FC82F03C0D0E0CA3009
:1003400040F08C2F6AE00E94DB3810E3190FC82FB1
:1003500001C010E080E38C0F0E942701112319F0E7
:10036000812F0E942701DD2331F08D2FDF91CF9166
:100370001F910C942701DF91CF911F9108958CEC70
:100380000E9464018091F706883011F0803189F471
:100390008091F906811103C081ED90E013C0813096
:1003A00019F48CEC90E00EC0823071F487EC90E090
:1003B00009C08091FE06811103C08BED90E002C060
:1003C00086ED90E00C94550108958091F706909188
:1003D000F806891781F18093F8068CE80E94640181
:1003E0008091F706843009F138F4882371F0813068
:1003F00001F584EA90E01BC0803151F0803291F029
:100400008830B9F482EC90E012C08DEB90E00FC020
:100410008091FF06882319F088EB90E008C083EBF9
:1004200090E005C08EEA90E002C089EA90E00E9468
:1004300055010C94BF010895E4E0F1E010821182AF
:1004400012821382148215821682178280E80E941B
:1004500064018DEE90E00E94550180EC0E946401E1
:1004600080EE90E00E94550182E08093F8060E94A1
:10047000E50181E08093000708952F923F924F920B
:100480005F926F927F928F929F92AF92BF92CF9224
:10049000DF92EF92FF920F931F93CF93DF93CDB72D
:1004A000DEB72A970FB6F894DEBF0FBECDBF84E04B
:1004B00091E09A87898710E032E0832E912CA12C5D
:1004C000B12C4AE0442E512C612C712C50E3352E76
:1004D0008091F0039091F103A091F203B091F303A6
:1004E000C090F403D090F503E090F603F090F7038A
:1004F000BC01CD01111123C06C0D7D1D8E1D9F1DF2
:10050000A50194010E941D398091E8039091E903AF
:10051000A091EA03B091EB0369017A01C81AD90AE4
:10052000EA0AFB0AC701B6010E94B93620911304FA
:1005300030911404409115045091160422C06C1996
:100540007D098E099F09A50194010E941D398091A2
:10055000EC039091ED03A091EE03B091EF036901DC
:100560007A01C81AD90AEA0AFB0AC701B6010E9431
:10057000B936209117043091180440911904509114
:100580001A040E940F366B017C01E985FA852081EF
:100590003181428153810E940A3681110AC08985C6
:1005A0009A8504969A878987113009F481C011E0F1
:1005B0008FCFE985FA85C082D182E282F38220E082
:1005C00030E0A901C701B6010E940A3687FF07C0C3
:1005D000F7FAF094F7F8F0942224239401C0212C28
:1005E00020E030E04AE754E4C701B6010E94E23758
:1005F00020E030E040E05FE30E9487350E948136D2
:1006000000E0611571058105910591F0CC24C3943A
:10061000D12CCC0EDD1EC00ED11CA30192010E9474
:10062000FB38605DF6016083B901CA010F5FE9CF55
:10063000033048F4E1E0F0E0EC0FFD1FE00FF11DA6
:1006400030820F5FF5CF033011F43C8204E02220AA
:1006500051F0E1E0F0E0EC0FFD1FE00FF11D9DE235
:10066000C92EC0820F5F083050F4E1E0F0E0EC0FDB
:10067000FD1FE00FF11D80E2D82ED082F3CF1111C3
:1006800002C082E801C082EC0E946401033039F4A8
:10069000111102C088E801C088EC0E946401FE01CB
:1006A000E00FF11D80810E942701015079F777CF7B
:1006B0002A960FB6F894DEBF0FBECDBFDF91CF9163
:1006C0001F910F91FF90EF90DF90CF90BF90AF9070
:1006D0009F908F907F906F905F904F903F902F9062
:1006E00008952F923F924F925F926F927F928F92D6
:1006F0009F92AF92BF92CF92DF92EF92FF920F93B1
:100700001F93CF93DF93CDB7DEB768970FB6F894FA
:10071000DEBF0FBECDBF94E69093FD061092960704
:1007200010929E0700913904027026E837E0388F56
:100730002F8B93E1292E94E0392E41EA57E05E8316
:100740004D83A8EEB3E0B88BAF871A8A198A12E0FE
:10075000282F30E040E050E02B8B3C8B4D8B5E8BA4
:100760008091F60690E0098802C0959587950A94D5
:10077000E2F780FFACC0AD81BE818D919D910D905F
:10078000BC91A02D8B879C87AD87BE87AF85B8892C
:100790002D913D914D915C912F83388749875A87E0
:1007A000F10180809180A280B3806B857C858D85EE
:1007B0009E85621B730B840B950B0E94B936A501B5
:1007C00094010E940F362B013C0120E030E040E212
:1007D00051E40E94E2370E944F386B017C016B8923
:1007E0007C898D899E890E94B93620E030E040E204
:1007F00051E40E940F3669837A838B839C8320E0C7
:1008000030E040E251E4C701B6010E940F36298171
:100810003A814B815C810E9487356B017C01A30189
:1008200092010E9486352B013C01A50194016DECDB
:100830007CEC8CE49FE30E940F3629813A814B8146
:100840005C810E9487359B01AC01C301B2010E940B
:10085000AA37181654F429813A814B815C81C7016B
:10086000B6010E9486356B017C01A5019401C70188
:10087000B6010E94E2370E94AF37CF80D884E98466
:10088000FA84C60ED71EE81EF91EAF89B88DCD9228
:10089000DD92ED92FC921397002309F4D8C0F10188
:1008A000208D318D428D538DC501B4010E94E237F8
:1008B0000E94AF376C157D058E059F050CF0C7C0F3
:1008C0002B853C854D855E85AF89B88DADC0809107
:1008D000F60690E029893A892E5F3F4F02C0959530
:1008E00087952A95E2F780FFA5C0AD81BE812D9145
:1008F0003D914D915C912B873C874D875E87AF85FD
:10090000B8892D913D914D915C912F83388749870E
:100910005A87D1012D913D914D915C9129833A8364
:100920004B835C836B857C858D859E852F81388587
:1009300049855A85621B730B840B950B0E94B9364F
:1009400029813A814B815C810E940F362B013C0149
:1009500020E030E040E251E40E94E2370E944F384C
:100960006B017C016B897C898D899E890E94B936D7
:1009700020E030E040E251E40E940F364B015C0180
:1009800020E030E040E251E4C701B6010E940F369A
:10099000A50194010E9486356B017C01A30192019F
:1009A0000E9486352B013C0129813A814B815C8173
:1009B0006DEC7CEC8CE49FE30E940F36A501940162
:1009C0000E9487359B01AC015058C301B2010E94BF
:1009D0000A3687FF08C0A5019401C701B6010E942D
:1009E00087356B017C0129813A814B815C81C7018C
:1009F000B6010E94E2370E94AF372F8138854985C2
:100A00005A85260F371F481F591FEF89F88D2083FD
:100A10003183428353830023D1F057FF18C02B85C5
:100A20003C854D855E85DF012D933D934D935C9311
:100A300013970CC0ED81FE8180819181A281B381E9
:100A4000EF89F88D80839183A283B38311502F891E
:100A5000388D2C5F3F4F388F2F8B34E0230E311CA5
:100A60004D815E814C5F5F4F5E834D838F8598899A
:100A70000496988B8F87A989BA89119729F041E04C
:100A800050E05A8B498B6CCE612F70E080E090E093
:100A90000E94B7360E94793820E030E84BE355E4F5
:100AA0000E94E23760939A0770939B0780939C079C
:100AB00090939D0780901B0490901C04A0901D04AF
:100AC000B0901E0420E030E046E154E4C501B401DA
:100AD0000E940A3687FD28C0C0901F04D0902004D1
:100AE000E0902104F090220420E030E046E154E45C
:100AF000C701B6010E940A3687FD16C020E030E02B
:100B000046E954E4C501B4010E940A3687FD0EC0CF
:100B100020E030E046E954E4C701B6010E940A36FD
:100B200087FD04C01AE003C011E001C015E0809108
:100B3000C30690913D04891708F4815F891B18173B
:100B400048F40E94F2160E9441248091FA068823FC
:100B500071F31FC00E948C208091F706811119C08B
:100B6000809100078160809300071092FC060E942C
:100B70002924892B71F080E28093F7060E94AC0E45
:100B800080913B048093010480916F008260809388
:100B90006F0068960FB6F894DEBF0FBECDBFDF9131
:100BA000CF911F910F91FF90EF90DF90CF90BF906A
:100BB000AF909F908F907F906F905F904F903F90FD
:100BC0002F9008954F925F926F927F928F929F9293
:100BD000AF92BF92CF92DF92EF92FF920F931F934B
:100BE000CF93DF93CDB7DEB72D970FB6F894DEBF66
:100BF0000FBECDBF8C01FF24F394F986FC018081E8
:100C0000873409F4DAC064F4833409F468C324F443
:100C100084538430A0F0EAC4843409F40DC2E6C4DD
:100C20008D3409F470C224F4893409F4A9C2DEC4F5
:100C30008E3409F490C2803509F466C1D7C4AE0180
:100C40004F5F5F4FBE01675F7F4FC8010E94F02476
:100C5000882309F4CCC2F8018081873309F469C084
:100C600020911304309114044091150450911604FE
:100C700069817A818B819C810E94E2370E94AF3723
:100C8000C090E803D090E903E090EA03F090EB0312
:100C9000DC01CB018C0D9D1DAE1DBF1D8093860711
:100CA00090938707A0938807B0938907F801808104
:100CB000863321F589858F5F89874AE957E0BE0130
:100CC000675F7F4FC8010E94F024882309F48FC218
:100CD00025EC30E240E85FE360919A0770919B0752
:100CE00080919C0790919D070E94E23760939A073C
:100CF00070939B0780939C0790939D078985F801CB
:100D0000E80FF11D90819C32D1F58F5F898746E90C
:100D100057E0BE01675F7F4FC8010E94932588237B
:100D200009F465C2F8018081853349F5109299076D
:100D300026C0209117043091180440911904509155
:100D40001A0469817A818B819C810E94E2370E941A
:100D5000AF37C090EC03D090ED03E090EE03F0903D
:100D6000EF03DC01CB018C0D9D1DAE1DBF1D8093DB
:100D70008A0790938B07A0938C07B0938D07898582
:100D8000F801E80FF11D80818B3309F02FC4F801C1
:100D900080818553823058F410929E07808185337C
:100DA00009F01DC49091990781E0892703C081E073
:100DB00080939E078093990712C4F801818186343D
:100DC00069F473E1E72E74E0F72EE8EEAE2EE3E06F
:100DD000BE2EF6E8CF2EF7E0DF2E29C0823509F0CF
:100DE00005C4EFCFF70161917191819191917F01DC
:100DF00029813A814B815C810E94E2370E94AF37A2
:100E0000F50141905190619071905F01DC01CB013F
:100E1000840D951DA61DB71DF60181939193A19395
:100E2000B1936F01FBE1EF16F4E0FF0679F08985DD
:100E30008F5F8987AE014F5F5F4FBE01675F7F4F56
:100E4000C8010E94F0248111CDCFD1C18985F8015C
:100E5000E80FF11D80818B3309F0C8C3F80181814F
:100E6000863409F092C080919E0780FD03C01092E5
:100E70009E07B5C30E94E0248091FA068111BEC38B
:100E800080E18093F706609197077091980780E062
:100E900090E00E94B7362AE037ED43EA5CE30E9417
:100EA000E2370E94F3356B017C0120E030E040E83E
:100EB0005FE30E940A3687FD05C0C701B6010E94A4
:100EC000883601C061E06093FF06809196070E941A
:100ED000E4168091FF06882351F20E94F2160E94C8
:100EE00041248091FA06811189C3FFEF20E782E057
:100EF000F15020408040E1F700C000008091FF06E3
:100F000081508093FF06E5CFF8018181843409F098
:100F100040C058EEE52E53E0F52E66E8C62E67E099
:100F2000D62E89858F5F8987AE014B5F5F4FBE01EB
:100F3000675F7F4FC8010E949325882309F457C13A
:100F4000F70181919191A191B1917F014D815E81D4
:100F50006F817885840F951FA61FB71FF6018193B7
:100F60009193A193B1936F01F0EFEF16F3E0FF06B9
:100F7000C1F68985F801E80FF11D80818B3309F0F6
:100F800035C3F8018181843441F081E080939E076C
:100F900026C3853509F02AC3BCCF80919E0780FF08
:100FA00066CF0E94E0248091FA06811127C380E178
:100FB0008093F706609197077091980780E090E022
:100FC0000E94B7362AE037ED43EA5CE30E94E2373D
:100FD0000E94F3356B017C0120E030E040E85FE3E4
:100FE0000E940A3687FD05C0C701B6010E948836F7
:100FF00001C061E06093FF06809196070E94E416AD
:101000008091FF06882309F432CF0E94F2160E94D5
:1010100041248091FA068111F1C2FFEF20E782E0BE
:10102000F15020408040E1F700C000008091FF06B1
:1010300081508093FF06E4CFF8018181873509F064
:10104000D5C282E08987AE014B5F5F4FBE01675F0B
:101050007F4FC8010E949325882309F4C8C0898561
:10106000F801E80FF11D80818B3309F0BFC20E94A7
:10107000E0248091FA068111C1C280E18093F706D5
:101080006D817E818F8198850E94B9362AE037ED87
:1010900043EA5CE30E94E2370E94F3356B017C0176
:1010A00020E030E040E85FE30E940A3687FD05C09B
:1010B000C701B6010E94883601C061E06093FF0657
:1010C000809196070E94E4161091FF061123B9F053
:1010D0000E94F2160E9441248091FA0681118EC26C
:1010E000FFEF20E782E0F15020408040E1F700C0B0
:1010F00000008091FF0681508093FF06E5CF80E0DD
:101100000E94E4167CC2F8018181803309F06EC22E
:1011100082818B3309F06AC20E94E0248091FA0632
:1011200081116CC280E18093F7068FEF8093B40049
:101130008091B00080628093B000F092FE068091B2
:10114000F706803109F05AC20E94D7248091FA062E
:101150008823A9F353C2F8018181893409F046C27A
:1011600082818B3309F042C20E94E0241091FA067A
:10117000111144C280E00E94E4160E94BF013FC2E8
:10118000F80181818E3409F031C2F0929E0782818C
:101190008B3309F58091E8039091E903A091EA036C
:1011A000B091EB038093860790938707A0938807FD
:1011B000B09389078091EC039091ED03A091EE0329
:1011C000B091EF0380938A0790938B07A0938C07CD
:1011D000B0938D0704C282E089874AE957E0BE01D7
:1011E000675F7F4FC8010E94F024811102C012E0A6
:1011F00006C225EC30E240E85FE360919A07709107
:101200009B0780919C0790919D070E94E237609315
:101210009A0770939B0780939C0790939D078985FD
:101220008F5F8987AE014B5F5F4FBE01675F7F4F66
:10123000C8010E9493258823D1F28D81823308F45E
:1012400082E38093FD0689858F5F898746E957E0B1
:10125000BE01675F7F4FC8010E949325882339F242
:1012600089858F5F898747E957E0BE01675F7F4FB8
:10127000C8010E949325882309F4B9CF8985F80114
:10128000E80FF11D80818B3309F0B0C18091A10777
:101290009091A207A091A307B091A407809386071D
:1012A00090938707A0938807B09389078091A5073B
:1012B0009091A607A091A707B091A80780938A07ED
:1012C00090938B07A0938C07B0938D0781E0809358
:1012D000990780E00E94E4160E94BF018FC1F801C7
:1012E00081818C3409F082C18091390481FF5CC115
:1012F00082E08987AE014B5F5F4FBE01675F7F4F22
:10130000C8010E949325882309F4BFC04D815E81E6
:101310006F8178858091E8039091E903A091EA03B9
:10132000B091EB036A017B01C80ED91EEA1EFB1EB9
:10133000C701B6010E94B9362091130430911404FC
:1013400040911504509116040E940F3620E030E0C1
:1013500040E05FEB0E940A3687FF02C01AE04FC1EF
:1013600089858F5F8987AE014B5F5F4FBE01675FE5
:101370007F4FC8010E949325882309F438CF4D81FF
:101380005E816F8178858091EC039091ED03A0914F
:10139000EE03B091EF036A017B01C80ED91EEA1E6D
:1013A000FB1EC701B6010E94B93620911704309187
:1013B00018044091190450911A040E940F3620E03D
:1013C00030E040E05FEB0E940A3687FDC7CF38EE81
:1013D000C32E33E0D32E43E1E42E44E0F42E89857E
:1013E0008F5F8987AE014B5F5F4FBE01675F7F4FA5
:1013F000C8010E949325882309F4F9CEF601819053
:101400009190A190B1906F01F7012191319141919B
:1014100051917F018D819E81AF81B885BC01CD0145
:10142000680D791D8A1D9B1D2A873B874C875D8728
:101430000E94B9362A853B854C855D850E940F3612
:101440004B015C0120E030E040E05FE3F70164899C
:101450007589868997890E9487359B01AC01C501F2
:10146000B4010E94AA3718160CF478CFFBE1EF16EE
:10147000F4E0FF0609F0B3CF8985F801E80FF11D0C
:1014800080818B3309F0B2C0B9C0F98698EEA92EDD
:1014900093E0B92E23E1E22E24E0F22E470165010C
:1014A00089858F5F8987AE014F5F5F4FBE01675FA0
:1014B0007F4FC8010E94F024882309F498CEF601DA
:1014C00061917191819191916F01F401219131911B
:1014D000419151914F012A873B874C875D870E943C
:1014E000B9362A853B854C855D850E940F3629815A
:1014F0003A814B815C810E94873520E030E040E0FA
:101500005FEB0E940A3687FD29CFF0EFCF16F3E09C
:10151000DF0631F689858F5F8987AE014F5F5F4FA8
:10152000BE01675F7F4FC8010E94F024882309F441
:101530005ECEF50161917191819191915F01F70109
:1015400021913191419151917F012A873B874C87AD
:101550005D870E94B9362A853B854C855D850E9452
:101560000F3629813A814B815C810E9487352B019E
:101570003C0120E030E040E05FE3F70164897589D9
:10158000868997890E9487359B01AC01C301B2010E
:101590000E94AA3718160CF4E1CEFBE1EF16F4E036
:1015A000FF0609F469CFB6CF84E0F82E89858F5FF6
:1015B0008987AE014F5F5F4FBE01675F7F4FC801F4
:1015C0000E94F024882309F412CEFA94F110EECF91
:1015D00053CF0E94D7248091FA0681110FC09091B9
:1015E0003D0480918507981303C0F3CF14E107C031
:1015F0000E948C200E9439240E94D72410E0812F61
:101600002D960FB6F894DEBF0FBECDBFDF91CF9100
:101610001F910F91FF90EF90DF90CF90BF90AF9010
:101620009F908F907F906F905F904F900895FC01F6
:10163000892B61F080899189A289B38980A391A3C4
:10164000A2A3B3A315A214A281E0089580E0089597
:10165000009769F16115710551F1FB01258524FFA2
:1016600026C02091950130919601232B01F52EE1A2
:10167000FB01A7E9B1E001900D922A95E1F7909363
:10168000960180939501FB0186859785A089B18994
:101690008093B5019093B601A093B701B093B801C0
:1016A0001092BA011092B90185E991E0089580E0A5
:1016B00090E008956F927F928F929F92AF92BF9227
:1016C000CF92DF92EF92FF920F931F93CF93DF930E
:1016D00000D000D0CDB7DEB74C01892B09F477C01C
:1016E000423051056105710508F471C0CB01BA01A2
:1016F000D401ED91FC912481608071802B3089F5BB
:1017000024E030E040E050E00E94A639F401A284D9
:10171000B384C484D584E684F784008911890E9447
:10172000EF39F4E0EF2EF12C8E010F5F1F4FF30124
:101730000995882309F44BC009811A812B813C81CA
:10174000011511052105310509F441C0D901C80170
:10175000805F9F4FAF4FBF404097A105B105A0F5F7
:1017600036C022E030E040E050E00E94A639D401CB
:101770001A96AC901A971B96BC901B971C96CC900F
:101780001C971D96DC901D971E96EC901E971F9639
:10179000FC901F9750960C91509751961C910E9467
:1017A000EF39E2E0EE2EF12C8E010F5F1F4FF301B7
:1017B0000995882361F089819A818C0120E030E0CD
:1017C00001978F3E9F4F18F4B801C90104C060E033
:1017D00070E080E090E00F900F900F900F90DF91FD
:1017E000CF911F910F91FF90EF90DF90CF90BF901E
:1017F000AF909F908F907F906F9008952F923F921F
:101800004F925F926F927F928F929F92AF92BF9210
:10181000CF92DF92EF92FF920F931F93CF93DF93BC
:10182000CDB7DEB7E9970FB6F894DEBF0FBECDBFD8
:10183000009719F16115710501F199AB88ABDC01D5
:101840002D903C90D10158960D90BC91A02DBBAB32
:10185000AAABDC0190964D905D906D907C90939733
:1018600094968D919C9195972AA93BA982179307ED
:1018700030F088A999A90E94170B80E005C1AE013C
:101880004F5D5F4F25E0DA011D922A95E9F72EE1C1
:10189000DB011D922A95E9F77AA369A3411451044B
:1018A0006104710409F090C0D101ED91FC91119790
:1018B00024812B3039F49A964D905D906D907C90F8
:1018C0009D9782C0F101428D538D22A133A1BA01AF
:1018D000621B730B7BAB6AAB77C08DA18111C5C056
:1018E0008AA99BA9AEA5BFA58A1B9B0B9DAB8CAB00
:1018F0009D0140E050E060E070E0CB01AEA33FA36B
:1019000048A759A76AA77BA78CA79DA74114510494
:101910006104710409F065C040E050E060E070E0EF
:1019200080E090E0D1019296AC9092979396BC9013
:1019300093979496CC9094979596DC9095979696DD
:10194000EC9096979796FC90979798960C9198970D
:1019500099961C910E94EF391CA21BA2D101ED9116
:10196000FC910280F381E02DDE0191964D01A8EDFE
:10197000AA2EADE0BA2ECCA8DDA8B0E2EB2EF12C59
:101980008E010F5F1F4F0995882309F476CF8BA135
:101990009CA1EEA5FFA5E80FF91FFFA7EEA72AA9B6
:1019A0003BA9E217F30708F498CFB301A201C101E4
:1019B0000E945A0B2B013C0180E090E0411451043D
:1019C0006104710409F44DC09FA78EA7B301A20161
:1019D00042505109610971094EAB5FAB68AF79AFF5
:1019E0007CCF2114310461F1B2E04B165104610443
:1019F000710430F1F101208D318D40E050E06EA98D
:101A00007FA988AD99AD0E94A639D1015A96AC90B4
:101A10005A975B96BC905B975C96CC905C975D9672
:101A2000DC905D975E96EC905E975F96FC905F977A
:101A300090960C91909791961C910E94EF3908C056
:101A400020E030E040E050E060E070E080E090E0D6
:101A5000AEA0BFA0C8A4D9A4EAA4FBA40CA51DA550
:101A600079CF8DA1882309F404CFA8A9B9A99096AC
:101A70004D925D926D927C929397EEA5FFA59596FF
:101A8000FC93EE9394978DA1E9960FB6F894DEBF80
:101A90000FBECDBFDF91CF911F910F91FF90EF90BF
:101AA000DF90CF90BF90AF909F908F907F906F907E
:101AB0005F904F903F902F900895F894F999FECF42
:101AC00092BD81BD81E08FBB80B58627482F082E4F
:101AD000000C550B262F30E024233523232B39F01F
:101AE0006F3F19F060BD84E006C084E104C0882324
:101AF00021F060BD84E28FBBF99A789408958F92AB
:101B00009F92AF92BF92CF92DF92EF92FF920F938C
:101B10001F93CF937C014A016B01C40ED51E8B012C
:101B2000C0E05C01A61AB70AC8018A0D9B1D0C15FE
:101B30001D0599F0C11108C02C2FCC0F330B232F9A
:101B4000221F2227221F01C021E0F80161918F018D
:101B5000C22FC60F0E945D0DE7CF6C2FC701880D05
:101B6000991DCF911F910F91FF90EF90DF90CF9033
:101B7000BF90AF909F908F900C945D0DF999FECF20
:101B800092BD81BD81E08FBB80B50895FC012381AA
:101B90006281862F90E0A0E0B0E0DC0199278827E1
:101BA000B22B2081822B2181BC01CD01722B0895A3
:101BB000EF92FF920F931F93CF93DF93FC01D70116
:101BC000CD91DC91119712968D919C9113978096EF
:101BD00013969C938E9312978081853E09F48DC055
:101BE000882309F48AC083858F3009F486C08EE18A
:101BF000DE011D928A95E9F70E8B1F8B288F398F96
:101C00004A8F5B8F6C8F7D8F9F01BE0190E0D90161
:101C10008C918032A1F0DB018C93448543FF08C096
:101C2000D9014C9141544A3118F4805EDB018C9308
:101C30009F5F2F5F3F4F6F5F7F4F983041F78881E5
:101C4000853011F485EE88838085803221F1DE01B4
:101C5000A90FB11D8EE28C93BF01685F7F4F34E006
:101C6000390F9F5FDB018C918032A9F0AE01490FE3
:101C7000511DDA018C93248524FF08C0DB012C91CF
:101C800021542A3118F4805EDA018C939F5F6F5FD4
:101C90007F4F9313E7CFDE01A90FB11D1C928385FF
:101CA0008D87838D90E0982F8827228D822BA0E04E
:101CB000B0E08E879F87A88BB98B458950E0542F61
:101CC00044272489422B60E070E0BA01552744275D
:101CD000842B952BA62BB72B8E879F87A88BB98B30
:101CE000CF014C960E94C60D6A8B7B8B8C8B9D8B93
:101CF00081E0F701848380E001C081E0DF91CF9132
:101D00001F910F91FF90EF9008952FB7F894909145
:101D1000000780958923809300072FBF08952FB770
:101D2000F89490910007892B809300072FBF0895A6
:101D30008770806680937C0085E08A95F1F70000CB
:101D400080917A00806480937A0080917A0086FD89
:101D5000FCCF8091790008952F923F924F925F922D
:101D60006F927F928F929F92AF92BF92CF92DF92AB
:101D7000EF92FF920F931F93CF93DF93CDB7DEB710
:101D8000C554D1090FB6F894DEBF0FBECDBF809108
:101D9000FC0680FD94C72091C3062EAB3BE2239F37
:101DA000C0011124AC01425C5B4F22965FAF4EAF85
:101DB0002297F0913D04FFABFF5FF98FFF3011F4E4
:101DC00018AE02C0298D28AF3BE248AD349FC00158
:101DD0001124DC01A45BBB4F2496BFAFAEAF2497A8
:101DE0009091C4068091C506981709F468C7809140
:101DF000F3069091F406892B09F0F7C21091FC06C6
:101E0000512F5470F52E12FF05C022968EAD9FAD56
:101E1000229702C00E9429249093F4068093F3062F
:101E2000C090F306D090F406C114D10409F447C75A
:101E3000E090C806012F0270EE2DE170E0FE03C0B5
:101E40001092C806BBC08091C7068F5F853009F02D
:101E5000E82FE093C7069DE09E9FF0011124EC5B04
:101E6000F84FF0934307E0934207D6011C968C91FC
:101E70001C9784874D915D916D917C91DB01CA0126
:101E800023E0880F991FAA1FBB1F2A95D1F78083D3
:101E90009183A283B383D60114964D915D916D9188
:101EA0007C911797DB01CA0133E0880F991FAA1FA5
:101EB000BB1F3A95D1F784839583A683B783D60158
:101EC00018964D915D916D917C911B97DB01CA0134
:101ED00043E0880F991FAA1FBB1F4A95D1F780873F
:101EE0009187A287B387F601608571858285938586
:101EF0000E94B7366093CD067093CE068093CF06CE
:101F00009093D006D6015A962D913D914D915C91BA
:101F10005D970E940F369B01AC016093D1067093D0
:101F2000D2068093D3069093D40660E070E080EAF6
:101F30009FE30E940F366093D5067093D606809378
:101F4000D7069093D8061092C9061092CA0610922E
:101F5000CB061092CC06011102C0E2FE1EC06091B9
:101F6000E6067091E7068091E8069091E906609395
:101F7000DE067093DF068093E0069093E1069B01F6
:101F8000AC010E94E237F60166877787808B918BE0
:101F90008E2D8B7F8093C80611C0D6011E966D9141
:101FA0007D918D919C9151970E9479386093DE06C6
:101FB0007093DF068093E0069093E1061092DA06B4
:101FC0001092DB061092DC061092DD06D6015696C2
:101FD0002D913D914D915C91599729833A834B8383
:101FE0005C8360E070E080E09FE30E940F366D83C9
:101FF0007E838F839887F601428C538C648C758C1A
:10200000002309F44BC0F2E0F093D906D6011E96E6
:10201000CD90DD90ED90FC905197A70196010E9424
:10202000E2379B01AC01C301B2010E9486354B012E
:102030005C0120E030E0A9010E940A3687FF1DC044
:1020400029813A814B815C81CA01B9010E9487359F
:10205000A30192010E94E2379B01AC01C701B601C6
:102060000E9486350E9479386093E6067093E706F1
:102070008093E8069093E906B5C18092DA069092C3
:10208000DB06A092DC06B092DD061092E606109206
:10209000E7061092E8061092E906A4C11092D9064C
:1020A0004092EA065092EB066092EC067092ED06C2
:1020B000FF2069F01092E6061092E7061092E806FB
:1020C0001092E90619861A861B861C8623C0B8ADB5
:1020D000EEA9BE1769F02496AEADBFAD24972D9141
:1020E0003D914D915C9129873A874B875C8704C06D
:1020F00019861A861B861C8669857A858B859C8540
:102100000E9479386093E6067093E7068093E806AC
:102110009093E906C6010E943620698B7A8B8B8BDF
:102120009C8B9B01AC010E94E2374B015C01D60104
:102130001E962D913D914D915C9151972D873E8733
:102140004F87588B9B01AC016D857E858F85988963
:102150000E94AA3718160CF075C0A50194016D8570
:102160007E858F8598890E9486359B01AC016D81A3
:102170007E818F8198850E94E2379B01AC01C3016B
:10218000B2010E9486356093EA067093EB06809355
:10219000EC069093ED0620E030E0A9010E940A369B
:1021A000181644F1B2E0B093D90629813A814B81E7
:1021B0005C81CA01B9010E948735A30192010E9486
:1021C000E2379B01AC01F6016685778580899189AC
:1021D0000E9486350E9479386093E6067093E70680
:1021E0008093E8069093E9068091C8068460809306
:1021F000C806F8C029853A854B855C85C501B401C0
:102200000E9486359B01AC016D817E818F8198850E
:102210000E94E2376093EE067093EF068093F0061B
:102220009093F10629893A894B895C892093E206CB
:102230003093E3064093E4065093E50633E0309391
:10224000D906D0C029853A854B855C856D857E850C
:102250008F8598890E9486359B01AC016D817E81B6
:102260008F8198850E94E2379B01AC01C301B201C6
:102270000E94873520E030E040E05FE30E94E237D3
:102280006B017C0120E030E0A9010E94AA371816FA
:102290000CF090C0A3019201C701B6010E940A365A
:1022A00087FF84C029853A854B855C85C501B401CB
:1022B0000E9486359B01AC016D817E818F8198855E
:1022C0000E94E2376093EE067093EF068093F0066B
:1022D0009093F106A70196010E940A3687FF39C044
:1022E00089899A89AB89BC898093E2069093E30639
:1022F000A093E406B093E506A50194016D857E8563
:102300008F8598890E940A36811104C091E09093CC
:10231000D90668C02D853E854F855889C501B40111
:102320000E9486359B01AC016D817E818F819885ED
:102330000E94E2379B01AC01C301B2010E948635C5
:102340006093EA067093EB068093EC069093ED069B
:1023500049C0C092EA06D092EB06E092EC06F092F9
:10236000ED06C092EE06D092EF06E092F006F092F3
:10237000F10629813A814B815C81CA01B9010E9431
:102380008735A70196010E94E23729853A854B855A
:102390005C850E9487350E9479386093E2067093CD
:1023A000E3068093E4069093E5061CC0A2E0A093A8
:1023B000D90618C01092EA061092EB061092EC06AD
:1023C0001092ED068091E6069091E706A091E8064E
:1023D000B091E9068093E2069093E306A093E406A9
:1023E000B093E50618601093FC068091C606E82FAE
:1023F000F0E0FA87E98747E09F01429FF001439FA1
:10240000F00D1124E85EF84F8091C7068483809117
:10241000F3069091F4069E838D83DC015A96BC915D
:10242000BEA3FC01F38DFFA3DC015C96BC91B8A7B1
:10243000FC01F58DF9A72091D5063091D606409183
:10244000D7065091D8066EA17FA18B2F9F2F0E9497
:1024500086356AAB7BAB8CAB9DAB20E030E0A9014D
:102460000E940A3687FF04C01AAA1BAA1CAA1DAA2A
:102470005090EA064090EB062091EC062D873091B3
:10248000ED06398B4091E2064A8F5091E3065B8F4F
:102490008091E4068C8F9091E5069D8FA091EE06C9
:1024A000AAA7B091EF06BBA7E091F006ECA7F091C8
:1024B000F106FDA72091D90629833090DE062090F1
:1024C000DF066090E0067090E1063091DA063EA7E4
:1024D0004091DB064FA75091DC0658AB8091DD069A
:1024E00089AB9091E60699AFA091E706AAAFB091AB
:1024F000E806BBAFE091E906ECAF0EA1FFA126967E
:10250000FFAF269718A529A525962FAF25978EE30F
:10251000C82E83ECD82E8EE2E82E89E3F82E1D8A91
:102520001E8A1F8A188ECE8EDF8EE8A2F9A29981AC
:10253000913009F40BC1AD81BE8156962D913D912C
:102540004D915C915997913008F480C0933009F017
:102550003EC1C701B6010E94E2374B015C0120E099
:1025600030E040E05FE30E94E2379B01AC01632D65
:10257000722DC3010E9486359B01AC01C701B601D3
:102580000E94E2376AA37BA38CA39DA39B01AC01AD
:10259000602F26967FAD2697812F25969FAD259794
:1025A0000E948635062F26967FAF2697182F2596F0
:1025B0009FAF2597252D342D4D8559890E940A36C8
:1025C00087FD0BC020E030E0A9016AA17BA18CA1AE
:1025D0009DA10E940A3618168CF1252D342D4D85AB
:1025E00059896EA17FA188A599A50E9486359B0176
:1025F000AC010E9487356B017C012A8D3B8D4C8D8F
:102600005D8D632D722DC3010E9487359B01AC0146
:10261000C701B6010E940F366B017C013A8C2B8CEE
:102620006C8C7D8C052D26964FAE26971D85B9891D
:102630002596BFAF2597E1E0E98357C1A501940135
:10264000632D722DC3010E9486357CC0C701B6017F
:102650000E94E2374B015C0120E030E040E05FE3A4
:102660000E94E2379B01AC01632D722DC3010E94D1
:1026700087359B01AC01C701B6010E94E2379B017F
:10268000AC01602F26967FAD2697812F25969FADB2
:1026900025970E948635062F26967FAF2697182FFE
:1026A00025969FAF2597252D342D4D8559890E945C
:1026B0000A3687FF40C0252D342D4D8559896EA1DE
:1026C0007FA188A599A50E9486359B01AC010E9437
:1026D00087356B017C012A8D3B8D4C8D5D8D632D83
:1026E000722DC3010E9487359B01AC01C701B60161
:1026F0000E940F366B017C012AA53BA54CA55DA568
:10270000652D742D8D8599890E940A36811103C02B
:10271000B2E0B98302C0E1E0E9833A8C2B8C6C8C87
:102720007D8C052D26964FAE26971D85F989259619
:10273000FFAF2597DAC0A5019401632D722DC30167
:102740000E948735362E272E3C01CFC0A701960167
:102750006A8D7B8D8C8D9D8D0E94E2379B01AC0133
:10276000602F26967FAD2697812F25969FAD2597C2
:102770000E9486354B015C012AA53BA54CA55DA5B1
:102780000E940A3687FFA9C02AA53BA54CA55DA5D6
:10279000602F26967FAD2697812F25969FAD259792
:1027A0000E9486352A8D3B8D4C8D5D8D0E940F36A3
:1027B0006B017C010AA52BA526962FAF26971CA599
:1027C0003DA525963FAF259742E049838EC0C701BE
:1027D000B6010E94E2374B015C019B01AC01632D05
:1027E000722DC3010E94AA3718160CF042C020E0D7
:1027F00030E040E05FE3C501B4010E94E2379B0195
:10280000AC01632D722DC3010E9486359B01AC0182
:10281000C701B6010E94E2379B01AC01602F2696EA
:102820007FAD2697812F25969FAD25970E948635EF
:102830006AA37DAF8EAF9FAF2EA53FA548A959A92A
:102840000E94AA371816ACF4A5019401632D722DCD
:10285000C3010E948635362E272E3C010AA1BDAD4C
:102860002696BFAF26971EADEFAD2596EFAF259705
:102870003CC02EA53FA548A959A9602F26967FAD3B
:102880002697812F25969FAD25970E9486359B011F
:10289000AC010E9487356B017C0129AD3AAD4BAD8F
:1028A0005CAD632D722DC3010E9487359B01AC0185
:1028B000C701B6010E940F366B017C0139AC2AAC0E
:1028C0006BAC7CAC0EA5FFA52696FFAF269718A98A
:1028D00029A925962FAF259708C0082D26969FAECB
:1028E00026971A2D2596BFAE2597A70196016D89CB
:1028F0007E898F89988D0E9487356D8B7E8B8F8B1B
:10290000988F2E8D3F8D48A159A10E940A3687FFCE
:1029100009C02D893E894F89588D6E8D7F8D88A184
:1029200099A13EC02AA93BA94CA95DA9602F269672
:102930007FAD2697812F25969FAD25970E94AA37B8
:102940001816E4F0832D922DD3018093DE06909328
:10295000DF06A093E006B093E10639813093D906F3
:102960008091FC0683FF40C0AD81BE819A969C9108
:102970009093F206877F8093FC0636C02EE333ECFB
:102980004EE259E36E8D7F8D88A199A10E94873513
:102990006E8F7F8F88A399A32D893E894F89588D8B
:1029A0000E9486356B017C012EA53FA548A959A937
:1029B000602F26967FAD2697812F25969FAD259770
:1029C0000E94AA3718160CF4B2CD832D922DD30194
:1029D0008093DE069093DF06A093E006B093E106B5
:1029E00049814093D906BCCF27E0E985FA852E9F1F
:1029F000C0012F9F900D1124AC01485E584F3A0141
:102A00008091F206DA0116968C932091D1063091CE
:102A1000D2064091D3065091D406602F26967FAD02
:102A20002697812F25969FAD25970E94E2371B019F
:102A30002C010E94F3356B017C016091CD067091F1
:102A4000CE068091CF069091D0060E94F3354B01BF
:102A50005C01A70196010E9486350E948836698331
:102A60007A838B839C8329813A81F301318320838C
:102A7000232B41F48091FC0681FF04C08160809388
:102A8000FC061DC12091C9063091CA064091CB06B3
:102A90005091CC066D897E898F89988D0E948735EB
:102AA0006D837E838F839887A2019101C501B40154
:102AB0000E9486359B01AC016D817E818F81988556
:102AC0000E940F364B015C0120EC31EE44E65EE4DF
:102AD0000E94E2370E94F3350E948836603D57E03D
:102AE00075078105910560F427E0A985BA852A9FBD
:102AF000F0012B9FF00D1124E85EF84F158254C0B1
:102B0000603A3FE073078105910568F4A7E04985C5
:102B10005A85A49FF001A59FF00D1124E85EF84F9F
:102B2000B1E0B5831FC06034EFE17E0781059105F8
:102B300068F447E029853A85429FF001439FF00DF4
:102B40001124E85EF84F52E055830CC027E0A985B8
:102B5000BA852A9FF0012B9FF00D1124E85EF84FF3
:102B600033E03583A7E049855A85A49FF001A59FEE
:102B7000F00D1124E85EF84F2581022E04C09695D1
:102B80008795779567950A94D2F749815A8102C053
:102B9000440F551F2A95E2F7518340836115710553
:102BA00051E08507910568F427E0A985BA852A9F39
:102BB000F0012B9FF00D1124E85EF84F73836283C0
:102BC00004C04FEF5FEF538342838091C50680932B
:102BD000C6068F5F863019F08093C50602C010923A
:102BE000C506E091F306F091F406802F26969FAD7E
:102BF0002697A12F2596BFAD2597828F938FA48FFF
:102C0000B58FC092CD06D092CE06E092CF06F0925C
:102C1000D006A2019101C701B6010E948635A50127
:102C200094010E94E2376093C9067093CA068093AC
:102C3000CB069093CC062091DA063091DB064091CA
:102C4000DC065091DD06602F26967FAD2697812FFA
:102C500025969FAD25970E940A368111C1C820E0B4
:102C600030E0A901602F26967FAD2697812F25960B
:102C70009FAD25970E94AA379091FC06181614F074
:102C800092FF04C091609093FC0619C01092F40664
:102C90001092F3065EA98FA9581709F4A1C8998D5F
:102CA0009F3009F4198E80913C04AFA9A81303C08A
:102CB000B98DB0933C04E98DE0933D047AC8CB5BB9
:102CC000DF4F0FB6F894DEBF0FBECDBFDF91CF91BF
:102CD0001F910F91FF90EF90DF90CF90BF90AF903A
:102CE0009F908F907F906F905F904F903F902F902C
:102CF0000895CF93DF93C091F306D091F406209707
:102D0000C9F08091C80681608093C8066091DE0694
:102D10007091DF068091E0069091E1069B01AC0185
:102D20000E94E2376E877F87888B998B1092F4061A
:102D30001092F306DF91CF91089510923B04109208
:102D40003A0480913304482F80FF03C080E28093CF
:102D50003B0480913404282F80FF03C080E18093DE
:102D60003A0441FF05C080913B04806880933B0496
:102D700021FF05C080913A04806480933A0408954D
:102D80001F920F920FB60F9211248F939F938BB1C6
:102D900090913B04907A8F75892B8BB915BC9F91CC
:102DA0008F910F900FBE0F901F901895EFE6F0E0F7
:102DB00080818D7F8083E1E8F0E08081887F816081
:102DC00080831092120408958093B4009091B00013
:102DD000811102C09F7D01C090629093B0008093EA
:102DE000FE0608951F93CF93DF9386E00E94980E0E
:102DF0008F3368F48091F7068F7DE9F48091F606B1
:102E00008B7F8093F6068091F606816012C08F3B1F
:102E100068F48091F7068F7D71F48091F6068E7FBD
:102E20008093F6068091F606846003C08091F606D2
:102E30008A7F8093F60687E00E94980E8F3358F5BC
:102E40008091F706982F9F7D49F48091F606877F41
:102E50008093F6068091F606826046C0883019F0AD
:102E6000803109F043C08091F60684FD3FC0809117
:102E7000F60680618093F6068091FD068333B0F1FB
:102E80008550823308F482E38093FD060E949B23E1
:102E90000E94E41F2BC08F3B20F58091F706982FEE
:102EA0009F7D49F48091F6068D7F8093F606809190
:102EB000F606886019C0883011F08031B9F480912D
:102EC000F60684FD13C08091F60680618093F606B5
:102ED0008091FD06863950F48B5F8739A8F286E928
:102EE000D3CF8091F606857E8093F6068091F60614
:102EF0008111B3C085E00E94980E182F85E00E94D2
:102F0000980EC82FD0E0212F30E02C1B3D0B37FF4F
:102F100003C0319521953109233031050CF09DC056
:102F2000853170F48091F506882309F496C080916C
:102F300000078061809300078CE00E94CF1F87C04C
:102F40008A3398F58091F506882309F486C080912C
:102F5000F70681111BC02FEF86E791E021508040DA
:102F60009040E1F700C0000085E00E94980E90E0DC
:102F70008C1B9D0B97FF03C0919581959109039739
:102F80000CF06BC08091F60680645FC0883021F43D
:102F900080910007886006C0803109F058C0809198
:102FA000000782608093000752C0853558F58091F4
:102FB000F506882309F451C08091F706811147C0B6
:102FC0002FEF86E791E0215080409040E1F700C06C
:102FD000000085E00E94980E90E08C1B9D0B97FFEF
:102FE00003C09195819591090397BCF58091FE06E8
:102FF000811102C081E001C080E00E94E4160E94BD
:10300000BF0125C0893630F58091F506882329F166
:103010008091F70681111BC02FEF86E791E02150C8
:1030200080409040E1F700C0000085E00E94980ECB
:1030300090E08C1B9D0B97FF03C0919581959109A2
:1030400003975CF48091F60680628093F6061092F6
:10305000F50603C081E08093F506DF91CF911F91C3
:1030600008951F920F920FB60F9211242F933F9342
:103070004F935F936F937F938F939F93AF93BF9380
:10308000EF93FF938091120481118BC18BB19091CA
:10309000020490758F7A892B8BB98BB18F759091C3
:1030A0000104892B8BB98CEE86BD82E085BD81E061
:1030B0008093120478948091100490911104892BCC
:1030C00009F0A2C08091C4069091C606981709F431
:1030D0008EC0E091C4062E2F30E087E0E89FF0011B
:1030E0001124E85EF84FF0931104E09310048281FC
:1030F000938190938900809388008081918190933F
:103100000C0480930B04E48180910D048E1721F14F
:10311000E0930D048DE0E89FF0011124EC5BF84F83
:10312000F0930F04E0930E0480859185A285B3850A
:10313000B695A795979587958093FC039093FD038B
:10314000A093FE03B093FF038093F8039093F903D9
:10315000A093FA03B093FB03A0910E04B0910F0467
:1031600090913A041C968C911C97892780930204B5
:1031700087E0829FF001839FF00D1124E85EF84FF5
:1031800025814D915D916D917C911397022E04C024
:1031900076956795579547950A94D2F7409303041F
:1031A00050930404609305047093060414968D9163
:1031B0009D910D90BC91A02D04C0B695A7959795B3
:1031C00087952A95D2F78093070490930804A093DB
:1031D0000904B0930A048091F7068830A9F480911D
:1031E000FE06813089F086810E94E4160DC00E949F
:1031F000D6168091FE06823018F080E00E94E41618
:1032000084E00E948F0ECDC010920104409103040F
:103210005091040460910504709106048091F803B4
:103220009091F903A091FA03B091FB03840F951FCD
:10323000A61FB71F8093F8039093F903A093FA0396
:10324000B093FB03E0910E04F0910F04408551858B
:1032500062857385481759076A077B0768F520E27E
:10326000209301044085518562857385841B950BED
:10327000A60BB70B8093F8039093F903A093FA037E
:10328000B093FB0324858091F0039091F103A0910A
:10329000F203B091F30324FF04C00197A109B1091F
:1032A00003C00196A11DB11D8093F0039093F1031B
:1032B000A093F203B093F3034091070450910804E4
:1032C0006091090470910A048091FC039091FD03C0
:1032D000A091FE03B091FF03840F951FA61FB71F97
:1032E0008093FC039093FD03A093FE03B093FF0330
:1032F0004085518562857385481759076A077B07A2
:1033000078F52091010420682093010440855185BF
:1033100062857385841B950BA60BB70B8093FC030A
:103320009093FD03A093FE03B093FF032485809147
:10333000F4039091F503A091F603B091F70326FFF3
:1033400004C00197A109B10903C00196A11DB11DD7
:103350008093F4039093F503A093F603B093F703DF
:1033600080910B0490910C04019790930C0480932E
:103370000B04892B69F410921104109210048091AF
:10338000C4068F5F8093C406863011F41092C40681
:1033900090913B048091010489278093010410924D
:1033A0001204FF91EF91BF91AF919F918F917F9107
:1033B0006F915F914F913F912F910F900FBE0F90A2
:1033C0001F9018956FE180E090E00E945D0D47E24C
:1033D00050E063E174E081E090E00C947F0D48E000
:1033E00050E068EE73E080E092E00C947F0DE3E142
:1033F000F4E010A211A28AE097EDA3E2BCE382A35D
:1034000093A3A4A3B5A316A280E090E0A0E2B3E446
:1034100080839183A283B38384839583A683B783B8
:1034200080E090E9ACE1B6E480879187A287B3871A
:1034300084879587A687B78780E89BECA4E2BBE4E6
:10344000808B918BA28BB38B848B958BA68BB78B48
:1034500080E090E8A4E9B3E4808F918FA28FB38FCE
:1034600080E090E0A2EDB3E4848F958FA68FB78FB4
:103470000E94E21988E0E8EEF3E0DF011D928A95F0
:10348000E9F70C94EF191F920F920FB60F921124C7
:103490002F933F934F935F936F937F938F939F935C
:1034A000AF93BF93EF93FF934091C600413231F049
:1034B0004E3741F0483141F480E101C088E00E947C
:1034C0008F0E1CC082E0FBCF2091E6033091E70312
:1034D000C90101968F31910511F480E090E060916F
:1034E000E4037091E5038617970741F0F901EB5368
:1034F000FC4F40839093E7038093E603FF91EF91A5
:10350000BF91AF919F918F917F916F915F914F91FB
:103510003F912F910F900FBE0F901F9018951F9203
:103520000F920FB60F9211248F939F93EF93FF93F7
:1035300080911707E82FF0E0EE5FF84F90819093AD
:10354000C6008F5F853109F480E080931707909162
:103550000107891305C08091C1008F7D8093C10050
:10356000FF91EF919F918F910F900FBE0F901F9041
:103570001895E091010791E09E0F953109F490E0D4
:10358000209117079217E1F3F0E0EE5FF84F808388
:10359000909301078091C10080628093C1000895DB
:1035A0001F93CF93DF9300D000D0CDB7DEB7182F95
:1035B0004C835B836A8379830E94EA1E812F806437
:1035C0000E94F41E7981872F0E94F41E6A81862F43
:1035D0000E94F41E5B81852F0E94F41E4C81842F73
:1035E0000E94F41E112321F0183021F487E803C053
:1035F00085E901C08FEF0E94F41E1AE00E94EA1EC6
:103600008F3F11F41150D1F70F900F900F900F9042
:10361000DF91CF911F9108952F923F924F925F9229
:103620006F927F928F929F92AF92BF92CF92DF92D2
:10363000EF92FF920F931F93CF93DF93CDB7DEB737
:1036400060970FB6F894DEBF0FBECDBF29833A83D3
:103650004B835C836D837E838F8398871A8709876A
:10366000FC86EB862B853C85232B09F4C6C029817B
:103670003A8131703E872D87190129813A814B812A
:103680005C816D817E818F8198855101C12CD12C07
:10369000E12CF12C00E010E00E94043A39014A01CB
:1036A0001B012C0180E092E0ED85FE858E1B9F0BB7
:1036B000988B8F872B853C852817390710F4388B1A
:1036C0002F87A090BD03B090BE03C090BF03D090E1
:1036D000C003E090C103F090C2030091C3031091B6
:1036E000C4039301A401B101C2010E940D3A09F47F
:1036F00050C02A988091BC0382FF08C0842D09E045
:103700000E94D339BA01422F532F02C0A301B40142
:1037100081E10E94D01A882319F02A9A80E06EC0B5
:103720000E94EA1E8E3FE1F70CEB11E00E94EA1EB8
:10373000F80181938F01F3E00C3B1F07B9F760920A
:10374000BD037092BE038092BF039092C00320928B
:10375000C1033092C2034092C3035092C4036D85EB
:103760007E8564547E4F4F85588989859A850E944D
:10377000313A29853A858F859889280F391F3A87EC
:1037800029870E94EA1E0E94EA1E2A9A0E94EA1EC7
:1037900012C06D857E8564547E4F4F85588989851A
:1037A0009A850E94313AE985FA852F853889E20F9A
:1037B000F31FFA87E9878B859C85EF85F8898E1B37
:1037C0009F0B9C878B879F0140E050E060E070E09A
:1037D00080E090E0A980BA80CB80DC80ED80FE8024
:1037E0000F8118850E94EF3929833A834B835C83CC
:1037F0006D837E838F83988735CF81E060960FB687
:10380000F894DEBF0FBECDBFDF91CF911F910F9116
:10381000FF90EF90DF90CF90BF90AF909F908F90F0
:103820007F906F905F904F903F902F9008952F92D0
:103830003F924F925F926F927F928F929F92AF9240
:10384000BF92CF92DF92EF92FF920F931F93CF938D
:10385000DF93CDB7DEB762970FB6F894DEBF0FBE29
:10386000CDBF29014B835C836D837E831C01188748
:103870000F833701DA82C982BA86A986012B11F437
:1038800080E04AC0E114F104D9F329813A812E1570
:103890003F05B0F349855A85452B91F39701EB8697
:1038A0003C8773010F81188592014B815C816D818A
:1038B0007E81C1010E940C1B882311F374018201D7
:1038C0002B813C814D815E81B1018F819885E98595
:1038D000FA8509958823F9F092014B815C816D810D
:1038E0007E81C101AB84BC84C12CD12CE12CF12C94
:1038F00000E010E00E94EF3929014B835C836D8367
:103900007E831C0129813A81261937093A8329834C
:103910002615370530F681E062960FB6F894DEBFC3
:103920000FBECDBFDF91CF911F910F91FF90EF9010
:10393000DF90CF90BF90AF909F908F907F906F90CF
:103940005F904F903F902F9008958F929F92AF92EB
:10395000BF92CF92DF92EF92FF92CF93DF93EC0171
:103960005B01FB01C080D180E280F38020E030E089
:10397000A901C701B6010E940A368823B1F0A70148
:103980009601688179818A819B810E940F366B0143
:103990007C01E894F7F829E936E746E95EE7C701D4
:1039A000B6010E94AA37181644F489E9C82E86E7A2
:1039B000D82E86E9E82E8EE7F82EF50184809580D2
:1039C000A680B78020E030E0A901C501B4010E94C3
:1039D0000A368823B1F0A50194016C817D818E8126
:1039E0009F810E940F364B015C01E894B7F8A50156
:1039F0009401C701B6010E940A3687FD02C0750115
:103A00006401C701B601DF91CF91FF90EF90DF9085
:103A1000CF90BF90AF909F908F9008952F923F923C
:103A20004F925F926F927F928F929F92AF92BF92CE
:103A3000CF92DF92EF92FF920F931F93CF93DF937A
:103A4000C091C306C11101C0CFE0C150D0913C0468
:103A5000CD1709F41BC1EC2EF12C2BE2C29F800183
:103A60001124025C1B4FF801A288B388C488D58852
:103A700066897789808D918D9B01AC010E94873585
:103A8000F801228D338D448D558D0E94E2374B0114
:103A90008C019B01AC01B501C6010E940A3687FD6D
:103AA00002C0540168018BE28E9DF0018F9DF00DE4
:103AB0001124E25CFB4FC501D60186879787A08B56
:103AC000B18BC11101C0CFE0C150CD1761F02BE225
:103AD0002E9DC0012F9D900D11249C01225C3B4F17
:103AE0007901DBE233C080913D04D8135EC00E94AF
:103AF00079165BC0AC2EB12CDA9DC001DB9D900D18
:103B00001124FC01E25CFB4F6F01C11101C0CFE049
:103B1000C15080913D04C81302C00E947916DA9DFD
:103B20008001DB9D100D1124025C1B4FF80182887F
:103B30009388A488B588A5019401668577858089D6
:103B400091890E940A36811106C0760180913C0459
:103B5000C813D0CF2AC0F80166897789808D918DEE
:103B60009B01AC010E948735F801228D338D448D75
:103B7000558D0E94E237F7012685378540895189A6
:103B80000E9487352B013C01A50194010E940A3651
:103B9000F80187FF05C046865786608A718AD5CFAF
:103BA00086869786A08AB18AD0CFD0913C04FBE26A
:103BB000DF9F80011124025C1B4FC1E0CD0FCF308D
:103BC00009F4C0E02090C3068BE2382EC21509F438
:103BD0005BC0CC2ED12C3C9CC0013D9C900D11248F
:103BE0009C01225C3B4F7901F80146845784608830
:103BF0007188F90186849784A088B188A501940111
:103C0000C301B2010E940A3687FF24C0F801668909
:103C10007789808D918D9B01AC010E948735F801D9
:103C2000228D338D448D558D0E94E2379B01AC016E
:103C3000C301B2010E9487352B013C01A50194010B
:103C40000E940A3687FF06C0F70146865786608ABB
:103C5000718ADC2F3C9CF0013D9CF00D1124E25C4C
:103C6000FB4F228933894489558966857785808908
:103C700091890E940A36811101C0DC2FCF5FCF30BD
:103C800009F4C0E08701A2CFD0933C04DF91CF912B
:103C90001F910F91FF90EF90DF90CF90BF90AF906A
:103CA0009F908F907F906F905F904F903F902F905C
:103CB00008954F925F926F927F928F929F92AF92F0
:103CC000BF92CF92DF92EF92FF920F931F93CF9309
:103CD000DF9300D000D0CDB7DEB78C01FC0180802F
:103CE0009180A280B38020E030E0A901C501B40139
:103CF0000E940A36882371F0A5019401C501B40120
:103D00000E94E23720E030E0A9010E9487352B01B4
:103D10003C0103C0412C512C3201F801C480D580F4
:103D2000E680F78020E030E0A901C701B6010E94DB
:103D30000A36882371F0A7019601C701B6010E94D7
:103D4000E2379B01AC01C301B2010E9487352B0110
:103D50003C01C301B2010E9479382B013C019B0157
:103D6000AC0160E070E080E89FE30E940F36698359
:103D70007A838B839C839B01AC01C501B4010E94B3
:103D8000E237F801608371838283938329813A81CA
:103D90004B815C81C701B6010E94E237F801648360
:103DA000758386839783C301B2010F900F900F90A4
:103DB0000F90DF91CF911F910F91FF90EF90DF90C7
:103DC000CF90BF90AF909F908F907F906F905F90BB
:103DD0004F9008958FEF8EBD0DB407FEFDCF8DB5CA
:103DE0008F778DBD8EB508958EBD0DB407FEFDCFC6
:103DF0008DB58F778DBD08958F929F92AF92BF92B0
:103E0000CF92DF92EF92FF920F931F93CF93DF93A6
:103E1000CDB7DEB72D970FB6F894DEBF0FBECDBF7E
:103E20006B017C01042F20E030E0A9010E940A36DA
:103E300087FF07C08DE20E94B91AF7FAF094F7F8ED
:103E4000F094102F123060F020E030E048EC52E4A3
:103E5000C701B6010E94E2376B017C011250F2CF1C
:103E600000FF0AC020E030E040E251E4C701B601A3
:103E70000E94E2376B017C0120E030E040E05FE32C
:103E8000C701B6010E9487350E94813610E03AE0F2
:103E9000832E912CA12CB12C611571058105910502
:103EA00091F0EE24E394F12CEC0EFD1EE10EF11CDA
:103EB000A50194010E94FB38605DF7016083B901A0
:103EC000CA011F5FE9CF80E3101748F4E1E0F0E09A
:103ED000EC0FFD1FE10FF11D80831F5FF5CF101365
:103EE00014C011E0100F80E3FE01E00FF11D81838B
:103EF0000CC0101303C08EE20E94B91AFE01E10F3C
:103F0000F11D80810E94B91A11501111F2CF2D9626
:103F10000FB6F894DEBF0FBECDBFDF91CF911F91DA
:103F20000F91FF90EF90DF90CF90BF90AF909F9058
:103F30008F900895CF93DF93843630F06AE00E942B
:103F4000DB38C0E3C90F03C0C0E08A3030F06AE05C
:103F50000E94DB38D0E3D90F01C0D0E0805D0E9421
:103F6000B91ADD2319F08D2F0E94B91ACC2329F03C
:103F70008C2FDF91CF910C94B91ADF91CF910895D6
:103F8000CF93DF93FC018491EF012196882321F0E8
:103F90000E94B91AFE01F7CFDF91CF910895CF9318
:103FA000C82F811105C08CE391E00E94C01F07C09B
:103FB00085E391E00E94C01F8C2F0E949A1F83E32B
:103FC00091E0CF910C94C01F0E94791680913D041E
:103FD00080933C040C940E1D4F925F926F927F92DF
:103FE0008F929F92AF92BF92CF92DF92EF92FF9209
:103FF000CF93DF93E0EFF3E0C080D180E280F380E5
:104000004480558066807780C1EAD7E0C701B60159
:10401000640D751D861D971D22E0822E912CA12C0A
:10402000B12CA50194010E941D39288339834A834C
:104030005B83C701B6016419750986099709A50153
:1040400094010E941D392C833D834E835F83DF9151
:10405000CF91FF90EF90DF90CF90BF90AF909F9067
:104060008F907F906F905F904F900895BF92CF9206
:10407000DF92EF92FF920F931F93CF93DF937C0118
:10408000FC0106A117A1D0A5C1A5858580FD28C08A
:104090006091FD0670E080E090E00E94B9362AE071
:1040A00037ED43E25CE30E94E2379B01AC01B801CB
:1040B0008D2F9C2F0E94E2378B01D82FC92FF7013B
:1040C000B2A0C3A0D4A0F5A02B2D3C2D4D2D5F2D6B
:1040D0000E94AA37181624F40B2D1C2DDD2DCF2D90
:1040E00020E030E040E85FE3B8018D2F9C2F0E9474
:1040F000AA37181624F000E010E0D0E8CFE3B801AA
:104100008D2F9C2FDF91CF911F910F91FF90EF90FA
:10411000DF90CF90BF9008952F923F924F925F9281
:104120006F927F928F929F92AF92BF92CF92DF92C7
:10413000EF92FF920F931F93CF93DF93CDB7DEB72C
:1041400068970FB6F894DEBF0FBECDBF0091C306CF
:1041500010E08BE2809F9001819F300D1124A90116
:10416000425C5B4F1A01DA011D928A95E9F7809152
:104170009E07FA018587C090A507D090A607E0901A
:10418000A707F090A80720918607309187074091F4
:104190008807509189072D8B3E8B4F8B588F8091CC
:1041A0008A0790918B07A0918C07B0918D07898B1E
:1041B0009A8BAB8BBC8B8091A1079091A207A091A9
:1041C000A307B091A40729013A01481A590A6A0ABB
:1041D0007B0A89899A89AB89BC898C199D09AE09AA
:1041E000BF09840D951DA61DB71DB7FF07C0B0956B
:1041F000A095909581959F4FAF4FBF4FF101808360
:104200009183A283B3838BE2809FF001819FF00DA5
:104210001124E25CFB4FD701C60129893A894B89F9
:104220005C89821B930BA40BB50B840D951DA61DF9
:10423000B71DB7FF07C0B095A095909581959F4F8A
:10424000AF4FBF4F84839583A683B7838BE2809F54
:10425000F001819FF00D1124E25CFB4F8085918578
:10426000A285B38580809180A280B380881699064C
:10427000AA06BB0610F44C015D0189899A89AB89B5
:10428000BC89840D951DA61DB71DBC01CD016C19FF
:104290007D098E099F090E94B9362091130430913F
:1042A000140440911504509116040E940F3669873A
:1042B0007A878B879C8720E030E0A9010E940A362C
:1042C00087FF0BC08BE2809FF001819FF00D1124CE
:1042D000E25CFB4F8485806184878BE2809FF001E4
:1042E000819FF00D1124E25CFB4F84819581A681B2
:1042F000B78188169906AA06BB0610F44C015D0129
:10430000D301C20129893A894B895C89821B930BAD
:10431000A40BB50BBC01CD016C0D7D1D8E1D9F1D29
:104320000E94B93620911704309118044091190465
:1043300050911A040E940F366D877E878F87988B65
:1043400020E030E0A9010E940A3687FF0BC08BE213
:10435000809FF001819FF00D1124E25CFB4F84856A
:10436000806484872BE2209FC001219F900D11243F
:10437000AC01425C5B4F7A01DA0118968D929D92F6
:10438000AD92BC921B9789288A288B2809F4B7C163
:10439000CE0109960E94591EF701628F738F848F98
:1043A000958FBE01675F7F4F83E294E00E94A51C5A
:1043B000D70156966D937D938D939C935997BE012B
:1043C000675F7F4F8BE194E00E94A51CF70162A319
:1043D00073A384A395A3358530FF05C066A377A397
:1043E00080A791A714C040919A0750919B076091B4
:1043F0009C0770919D07F70146A357A360A771A77B
:1044000090919907992319F09091960792A720917E
:10441000C30690913D04291709F45EC031FD5CC0CC
:104420004090A9075090AA076090AB077090AC0726
:1044300089849A84AB84BC84A5019401C301B20130
:104440000E94E2379B01AC0160E070E0CB010E946A
:1044500086356B017C01A3019201C501B4010E9464
:10446000863569837A838B839C834090AD07509017
:10447000AE076090AF077090B0078D849E84AF84C4
:10448000B888A5019401C301B2010E94E2379B01E3
:10449000AC01C701B6010E9486356B017C01A30106
:1044A0009201C501B4010E9486356D837E838F839E
:1044B00098872FEE3FEF4FE75FE3C701B6010E94F9
:1044C000AA371816D4F48BE2809FF001819FF00D7B
:1044D0001124E25CFB4F0CC08BE2809FF001819FB6
:1044E000F00D1124E25CFB4F16861786108A118AA4
:1044F000168E178E10A211A272C02FEE3FEF4FE75B
:104500005FEBC701B6010E940A3687FF11C08BE23C
:10451000809FF001819FF00D1124E25CFB4F89E93F
:1045200096E7A6E9BEE7868F978FA0A3B1A357C0F1
:10453000CE0101960E94591EBE016F5F7F4F83E23C
:1045400094E00E94A51C4B015C01A701960160E06C
:1045500070E080E89FE30E94863520E030E040E094
:104560005FE30E94E2370E9479386B017C01209161
:104570003504309136044091370450913804C50118
:10458000B4010E94E237A70196010E94E2374B0175
:104590005C01A701960160E070E080E89FE30E9463
:1045A00086359B01AC01C501B4010E940F366B0139
:1045B0007C0120E030E0A9010E940A3687FF03C099
:1045C000C12CD12C76018BE2809FF001819FF00DF0
:1045D0001124E25CFB4FC68ED78EE0A2F1A22BE243
:1045E000209FC001219F900D11249C01225C3B4F14
:1045F0007901D9011D968C9181FD83C0C1010E9472
:1046000036204B015C014090B1075090B20760909A
:10461000B3077090B407A30192010E94AA3718163D
:1046200064F4A3019201C301B2010E94E237F701D1
:10463000628B738B848B958B0DC0A5019401C50192
:10464000B4010E94E237D70152966D937D938D930A
:104650009C9355972BE2209FC001219F900D112420
:104660008C01025C1B4FF801C68CD78CE0A0F1A036
:10467000A701960162897389848995890E94AA3766
:1046800018163CF4D8015296CD92DD92ED92FC9230
:1046900055978092B1079092B207A092B307B0925B
:1046A000B40788E0FE013996A9EAB7E001900D92BF
:1046B0008A95E1F72D893E894F89588D2093A1076E
:1046C0003093A2074093A3075093A40789899A893E
:1046D000AB89BC898093A5079093A607A093A707F1
:1046E000B093A807809185078093C3068F5F8F30B2
:1046F00009F480E0809385070E940E1D02C080E0CF
:1047000001C081E068960FB6F894DEBF0FBECDBF42
:10471000DF91CF911F910F91FF90EF90DF90CF909D
:10472000BF90AF909F908F907F906F905F904F90D1
:104730003F902F9008955F926F927F928F929F92F9
:10474000AF92BF92CF92DF92EF92FF920F931F939F
:10475000CF93DF93C0913D045090C30689E9F82EB2
:1047600006E716E9DEE79BE2692EC51509F455C098
:10477000AC2EB12C6A9CC0016B9C900D11249C0145
:10478000225C3B4F6901C9010E943620762E872E9C
:10479000982EE92E2F2D302F412F5D2F0E94AA3702
:1047A00018164CF42F2D302F412F5D2F6F2D702FA9
:1047B000812F9D2F08C0272D382D492D5E2D672D67
:1047C000782D892D9E2D0E94E237F601628B738B26
:1047D000848B958B6A9C80016B9C100D1124025C6C
:1047E0001B4FF801A68CB78CC0A0D1A0A6019501E3
:1047F00062897389848995890E94AA3718162CF4D6
:10480000F801A28AB38AC48AD58ACF5FCF3009F46F
:10481000C0E0F72C8401DE2DA8CF8F2D902FA12F83
:10482000BD2F8093B1079093B207A093B307B093C5
:10483000B407DF91CF911F910F91FF90EF90DF9020
:10484000CF90BF90AF909F908F907F906F905F9030
:10485000089580913D049091C306981739F02BE29A
:10486000829FC0011124825C9B4F089580E090E0FC
:1048700008950E942924892B19F082E00C948F0E50
:104880000895CF93C0910007CC2309F487C08C2FE3
:10489000887141F18091F706883059F482E0809365
:1048A000FC060E947916C4FF1AC081E08093FB06C3
:1048B00016C0982F9F7E61F4C4FF11C01092F706B6
:1048C00081E08093FA061092FB061092FF066DC0FD
:1048D000843029F4C4FF03C081E08093FA0688E1A4
:1048E0000E94850EC1FF25C08091F7068F7EF1F4EE
:1048F000C1601092FC061092FB060E942924892BAD
:1049000079F088E08093F7060E94AC0E80913B041A
:104910008093010480916F00826080936F0006C0D5
:104920008091FF06811102C01092F70682E00E947A
:10493000850EC0FF07C00E943D020E94E50181E094
:104940000E94850EC2FF2AC080910007816080937B
:1049500000078091FC0681FF1AC00E94E41F80912D
:10496000FC068D7F8093FC068091FB06882341F036
:104970001092F70681E08093FA061092FB0615C0AC
:1049800080E18093F70681E08093FB0604C01092DB
:10499000F7060E94392484E00E94850E8091F70674
:1049A0008C7219F0CF910C94AC0ECF9108950E94A7
:1049B000F2160E9441248091FB068111F8CF0895E0
:1049C0000E942924892B39F00E94D7248091FA066D
:1049D0008823B1F304C08091F7068830A9F30895C5
:1049E0006F927F928F929F92AF92BF92CF92DF92FF
:1049F000EF92FF920F931F93CF93DF937C01FB0104
:104A00006A018081D701A80FB11D9C91ED019D32F3
:104A100019F02196612C05C0229611969C9166246E
:104A20006394912CA12C712C20E030E0A9018E011F
:104A300060EDB62EB90E89E08B15A0F0A39491100D
:104A40007A94A5E0B0E00E944239DC01CB01880FE6
:104A5000991FAA1FBB1F9C01AD012B0D311D411DCC
:104A6000511D07C0AEEFBA1208C0911006C09924BC
:104A700093942196D8019C91DACFAA2009F443C0DF
:104A80008F01CA01B9010E94B7364B015C0120E0D9
:104A900030E0A9010E940A368823E1F0BFEF7B16BF
:104AA0006CF42AE037ED43E25CE3C501B4010E94F7
:104AB000E2374B015C0173947394F0CF7B120AC010
:104AC0002DEC3CEC4CEC5DE3C501B4010E94E237F7
:104AD0004B015C01662051F0B7FAB094B7F8B0947E
:104AE000F60180829182A282B38206C0D6018D92A5
:104AF0009D92AD92BC921397CE19DF09C150F80177
:104B0000C08381E001C080E0DF91CF911F910F91C0
:104B1000FF90EF90DF90CF90BF90AF909F908F90DD
:104B20007F906F9008956F927F929F92AF92BF9205
:104B3000CF92DF92EF92FF920F931F93CF93DF9369
:104B40008C013B017A01DB018C91F801E80FF11D2A
:104B500080819F018D3221F02F5F3F4FA12C05C036
:104B60002E5F3F4F8181AA24A394922EF90120E069
:104B700030E0A9019E2F99196F0160EDB62EB80E95
:104B8000B9E0BB15A0F0A5E0B0E00E944239DC011D
:104B9000CB01880F991FAA1FBB1F9C01AD012B0DD4
:104BA000311D411D511D3196E6018881E3CFDEEFB5
:104BB000BD16F1F09923E1F0AA2069F08827992722
:104BC000DC01821B930BA40BB50BE701888399834F
:104BD000AA83BB8306C0D7012D933D934D935C936D
:104BE0001397E01BF10BE150E301E88381E001C082
:104BF00080E0DF91CF911F910F91FF90EF90DF90B8
:104C0000CF90BF90AF909F907F906F900895CF937B
:104C1000DF93CDB7DEB7CF57D1090FB6F894DEBF1B
:104C20000FBECDBF87B18F6087B9529A209A3C9A48
:104C30008FEF99EF0197F1F700C00000419A409A79
:104C40000E94F900AFE1BEE41197F1F700C0000047
:104C50000E94F900EFEFF0E03197F1F700C000009B
:104C60000E94F9008FEF90E00197F1F700C000007B
:104C700040980E94F900AFEFB0E01197F1F700C043
:104C8000000088E20E94640181E00E94640186E0E5
:104C90000E9464018CE00E9464010E941C028091C9
:104CA0007A00876880937A008091C0008260809348
:104CB000C0001092C50080E18093C4008091C100C3
:104CC00088698093C10080E090E00E94BE0D8F3122
:104CD00009F0B2C473E1E72E74E0F72E10E081E032
:104CE00090E06C01BFEFCB1ADB0A0E94BE0D1111E0
:104CF00008C0212F110F330B232F221F2227221F21
:104D000001C021E0122F180FF70181937F01C60126
:104D10008832910531F788E290E00E94BE0D1813A9
:104D20008BC48AB1806A8AB98AB180658AB9809158
:104D300081008F7E809381008091810088608093C4
:104D40008100809180008C7F809380008091800022
:104D50008F708093800080916E00887F80936E00BA
:104D600014BC15BC80916E00816080936E00539AD4
:104D700083E08093B00084E08093B10080E00E94E3
:104D8000E4162198299A8FEF8093B30080917000E8
:104D900082608093700088E0E0EFF3E0DF01482E4E
:104DA0001D924A94E9F7E4E0F1E0DF01482E1D92FC
:104DB0004A94E9F7909139049D7F90933904E8EE85
:104DC000F3E0DF011D928A95E9F7789489E0E7EF37
:104DD000F6E0DF011D928A95E9F78BE1E6E8F7E05E
:104DE000DF011D928A95E9F78091390481FF03C0A4
:104DF00081E08093F70684E68093FD068EE00E94B2
:104E0000CF1F8091E6039091E7039093E503809391
:104E1000E40384E1E1EAF7E0DF011D928A95E9F716
:104E200010923D041092C30611E010938507109272
:104E30003C040E94D6168CE2E7ECF6E0DF011D92FE
:104E40008A95E9F78AE1E8EFF3E0DF011D928A95A0
:104E5000E9F71092F4061092F3061092C40610922D
:104E6000C6061093C506109212040E949D168091EA
:104E70003A04809302048BB18F7590913B04892B87
:104E80008BB98BB18F7A90913A04892B8BB90E94A0
:104E9000EC1F212C312CC12CD12C69961FAE1EAEDB
:104EA000699760961FAE609727961FAE27972F963B
:104EB0001FAE2F978091F606882309F443C1809195
:104EC000F60684FD3FC18091F60687FF03C010926D
:104ED000F60630C18091F60686FFC6C0239A259A51
:104EE000229A24982C9A2A9A83E58CBD8DB58E7FC0
:104EF0008DBD1092BC031AE00E94EA1E1150E1F72A
:104F00002A9800E012E040E050E0BA0180E00E9400
:104F1000D01A813021F001501109A9F761C04AEA85
:104F200051E060E070E088E00E94D01A82FD11C07C
:104F30000E94EA1E0E94EA1E0E94EA1E80FFE1C350
:104F40000E94EA1E8A3A09F0DCC38091BC038260A9
:104F500011C040E050E0BA0187E30E94D01A40E05F
:104F600050E0BA0189E20E94D01A82FD05C080910A
:104F7000BC0381608093BC0300E010E88091BC0317
:104F8000982F9370A9F081FF06C0812C912CA12C41
:104F900060E4B62E03C0812C912C540140E050E017
:104FA000BA0187E30E94D01AB501A40189E204C0C6
:104FB00040E050E0BA0181E00E94D01A80FF04C0B6
:104FC00001501109D9F60CC08091BC0381FF19C0B2
:104FD00040E050E0BA018AE30E94D01A882311F021
:104FE0002A9A8FC30E94EA1E86FF05C08091BC03E7
:104FF00084608093BC030E94EA1E0E94EA1E0E9405
:10500000EA1E40E052E060E070E080E10E94D01AC9
:105010002A9A811176C38CB58C7F8CBD8DB5816049
:105020008DBD8FEF8093BD038093BE038093BF033C
:105030008093C0038093C1038093C2038093C30312
:105040008093C403E12C52E0F52E0CEB11E020E03C
:1050500030E040E050E060E070E080E090E00E94EE
:105060000C1B8111EFC24DC38091F60685FF38C03D
:105070001092F60614E28091F50681110BC01150D2
:1050800049F0AFE3BCE91197F1F700C000000E94BE
:10509000F216F1CF8091F50681111AC08091390482
:1050A00081FD0AC088E0E0EFF3E0DF011D928A9500
:1050B000E9F70E94EC1F3EC088E0E0EFF3E0A8EEC5
:1050C000B3E001900D928A95E1F70E94EF1932C08A
:1050D00082E08093F90680E091E00E94E2052AC018
:1050E00081E00E94710314E28091F6068823D1F0DA
:1050F0001150C1F0EFE3FCE93197F1F700C0000077
:105100000E94F2160E9441248091FA06882361F3DE
:1051100086C20E94D7248091FA06811180C282E063
:105120000E9471038091F6068111F3CF8091FA06F7
:10513000811175C28091E6039091E7039093E50396
:105140008093E403772473940BE318E0F12E8091AD
:10515000E4039091E5032091E6033091E7032817DB
:10516000390731F48091FA06882309F44CC257C2FA
:10517000FC01EB53FC4F208101968F31910511F416
:1051800080E090E09093E5038093E4032F3F51F398
:105190002B3309F01DC28091FA06811140C2809123
:1051A000F706803179F427964FAC2797E42DF0E08D
:1051B000E958FE4F00832F961FAD2F97117049F0CD
:1051C0008BE0F4C10E94D7248091FA06882359F31A
:1051D00026C2909177018091F706943209F0EFC1D1
:1051E000823008F0E1C126967FAE26978091780143
:1051F000893431F0823509F4DEC0843209F0EFC021
:10520000909179019B3309F0CDC1843209F0B7C088
:105210008BE70E94B91A809133040E949A1F8CE296
:105220000E94B91A809134040E949A1F8CE20E9455
:10523000B91A60911304709114048091150490912F
:10524000160443E00E94FC1E8CE20E94B91A609191
:105250001704709118048091190490911A0443E086
:105260000E94FC1E8CE20E94B91A20E030E040E768
:1052700052E460911B0470911C0480911D04909174
:105280001E040E940F3640E00E94FC1E8CE20E9429
:10529000B91A20E030E040E752E460911F047091B9
:1052A000200480912104909122040E940F3640E056
:1052B0000E94FC1E8CE20E94B91A20E030E041E618
:1052C00055E4609123047091240480912504909109
:1052D00026040E940F3640E00E94FC1E8CE20E94D1
:1052E000B91A20E030E041E655E46091270470915E
:1052F00028048091290490912A040E940F3640E0EE
:105300000E94FC1E8CE20E94B91A60912B047091DD
:105310002C0480912D0490912E0441E00E94FC1EEB
:105320008CE20E94B91A60912F0470913004809130
:1053300031049091320441E00E94FC1E8CE20E94F4
:10534000B91A8091390481700E949A1F8CE20E94E0
:10535000B91A6091350470913604809137049091A8
:10536000380443E00E94FC1E8CE20E94B91A80912E
:105370003904869581700E949A1F8DE715C010929E
:10538000F9068BE50E94B91A82E890E00E94C01FDE
:105390008CE20E94B91A198283E30E94B91A8981AA
:1053A000805D0E94B91A8DE50E94B91A83E391E0ED
:1053B0000E94C01FFAC080917901833509F0F2C0C4
:1053C00080917A01843509F0EDC080917B018B33A7
:1053D00009F0E8C00E94F7190E949D16E6C0AE01D0
:1053E0004F5F5F4FBE016B5B7F4F87E791E00E948D
:1053F000F024811102C012E0D8C026968FAD269706
:105400008F5F26968FAF2697AE014C5B5F4FBE0134
:105410006B5B7F4F87E791E00E949325882359F3C8
:105420002696EFAD2697F0E0E958FE4F80818B334A
:1054300009F0B8C089809A80AB80BC802596EFAC1B
:10544000259720E030E0A901C501B4010E940A3689
:1054500087FF04C0B7FAB094B7F8B094C501B4019F
:105460000E94B9380E9488368E2D90E08D309105CB
:1054700008F098C0FC01EC5CFF4F0C943C39609341
:10548000330402C0609334040E949D1688C0809249
:10549000130490921404A0921504B09216047FC0D5
:1054A0008092170490921804A0921904B0921A04E2
:1054B00076C020E030E040E752E4C501B4010E942C
:1054C000E23760931B0470931C0480931D04909337
:1054D0001E0465C020E030E040E752E4C501B4019D
:1054E0000E94E23760931F0470932004809321048C
:1054F0009093220454C020E030E041E655E4C50119
:10550000B4010E94E23760932304709324048093D3
:1055100025049093260443C020E030E041E655E4A2
:10552000C501B4010E94E2376093270470932804F8
:105530008093290490932A0432C080922B04909285
:105540002C04A0922D04B0922E0429C080922F0426
:1055500090923004A0923104B092320420C0809224
:10556000350490923604A0923704B092380417C0E4
:1055700080913904662311F0816001C08E7F809391
:1055800039040DC0809139048D7F80933904A8EED1
:10559000B3E0EF2D1D92EA95E9F70E94EF190E9402
:1055A000E21903C013E001C018E0812F0E94CF1F51
:1055B00027961FAE27972F961FAE2F97C8CD8572BF
:1055C00011F089E0F3CF87E791E00E94E205EECF8A
:1055D000233271F32F964FAC2F974110B8CD2796F9
:1055E0001FAD27971D3150F4E12FF0E0E958FE4F31
:1055F00020831F5F27961FAF2797A9CD21E02F9605
:105600002FAF2F97A4CD8091F706803109F452CCAB
:105610000E94D7248091FA06882309F44BCC80E0BD
:105620000E94E4160E94BF011092FA061092F6063C
:1056300081E080930007E5CB87E00E94CF1F0E94A6
:10564000F7196FCB1092F60681E08093F906B0E16E
:10565000EB2EF12C8E010F5F1F4F2EEB31E040E05F
:1056600050E060E070E080E090E00E940C1B81114F
:1056700005C069961FAE1EAE69973AC08D8188231A
:10568000C1F3909110019111F4CFECE0F1E09DE0B5
:10569000DF011D929A95E9F72CE03BE130930D0173
:1056A00020930C0127E13CE130930F0120930E0180
:1056B00080931001CE0109960E94C60D60931101DE
:1056C000709312018093130190931401CE010D96F3
:1056D0000E94C60D60931501709316018093170107
:1056E00090931801ECE0F1E06996FFAFEEAF699797
:1056F00069964EAC5FAC6997452809F06CC00C9474
:10570000763584E690E00E9473012114310419F08B
:10571000D1011D921C92C114D10419F0F60111821D
:10572000108269964EAC5FAC69974114510419F030
:10573000D20114961C9260964FAC609741102AC01B
:1057400001E085E00E94980E182F85E00E94980ED7
:10575000212F30E0281B310937FF03C031952195F7
:105760003109233031057CF48A3358F49091F506E1
:10577000992349F0853110F41092F6061092F5063F
:1057800009C00093F5068FE39CE90197F1F700C08B
:105790000000D7CF8091F60681118CCB0E941C02AD
:1057A000C9CCECE0F1E08DE0DF011D928A95E9F7CC
:1057B0008CE09BE190930D0180930C0187E19CE1CB
:1057C00090930F0180930E018FEF809310016996E3
:1057D000FFAFEEAF69978091190190911A01892B63
:1057E00059F085E690E00E947301C12CD12C211460
:1057F000310409F08DCF95CF82E3E9E1F1E0DF01DB
:105800001D928A95E9F769964EAC5FAC6997509204
:105810001A0140921901D20115966D917D918D91D9
:105820009C91189720E032E040E050E00E94A639B9
:10583000A2962FAFA297A3963FAFA397A4964FAF80
:10584000A497A5965FAFA597E8966FAFE897E996FE
:105850007FAFE997EA968FAFEA97EB969FAFEB970A
:10586000ABE00E94F839D201ED91FC91A5E2EA2E5D
:10587000F12C8E010F5F1F4F0995882309F452C246
:105880004A80C9805D80DC806B80E0966FAEE097D7
:105890007E80E1967FAEE1976884EF800A85F98487
:1058A0001D857C84CE0146960E94C60D4B015C018D
:1058B000CE014A960E94C60DA9966CAF7DAF8EAF01
:1058C0009FAFA997CE0182960E94C60DEF966CAF4E
:1058D0007DAF8EAF9FAFEF9781149104A104B10407
:1058E00049F48F2C912C902A8114910409F41AC246
:1058F000A12CB12C272D30E0A901512BAB965FAF25
:105900004EAFAB974115510551F0CA01A0E0B0E090
:10591000A9968CAF9DAFAEAFBFAFA9970BC0A996AC
:105920000CAD1DAD2EAD3FADA997012B022B032B66
:1059300009F4F8C16C2D70E09B0134296B963FAFE0
:105940002EAF6B978D2D90E08C011529F12C27013E
:105950005628E3965FAE4EAEE39775016401C01A18
:10596000D10AE108F108E1965FACE197452C512C92
:10597000612C712CE7964CAE5DAE6EAE7FAEE797B4
:10598000A9962CAD3DAD4EAD5FADA997C301B20157
:105990000E94CB38C61AD70AE80AF90A6B962EADD0
:1059A0003FAD6B9721503109E3968EAD9FADE397E4
:1059B00045E0880F991F4A95E1F7820F931F6B9678
:1059C0006EAD7FAD6B970E94E738A7019601261B4D
:1059D000370B41095109CA01B901E0963FADE09783
:1059E000432E512C612C712CA30192010E94FB3893
:1059F00029013A0145EF44164FE054066104710451
:105A000008F490C155EF45165FEF55066104710427
:105A100040F486E06996AEADBFAD699714968C935D
:105A200006C08BE06996EEADFFAD699784838CE28A
:105A3000EBE1F1E0DF011D928A95E9F76B96EEACA0
:105A4000FFAC6B976701E12CF12CAF96CCAEDDAECD
:105A5000EEAEFFAEAF97C501B401A70196010E945B
:105A6000A63920931B0130931C0140931D015093D4
:105A70001E0160931F017093200180932101909378
:105A80002201B80180E090E0A70196010E94A639AA
:105A9000A296AFACA297A396BFACA397A496CFACA7
:105AA000A497A596DFACA597E896EFACE897E996A2
:105AB000FFACE997EA960FADEA97EB961FADEB972F
:105AC0000E94EF39922E832E342E252EA2966FAF90
:105AD000A297A3967FAFA397A4968FAFA497A596FE
